:020000040000FA
:04000000E9EF12F022
:100E0000004E69636F20657374206672616E636162
:100E10006973000000000000000000004F7574209E
:100E20006F662052616E676544697374616E6365B5
:100E3000203D2020636D2020202020202020202005
:100E400020202020202020202020002D0000000E27
:100E5000046E000E036E8D9684BE31EF07F033EF03
:100E600007F050EF07F0020E026E040E016EBA0E8C
:100E7000E82EFED7012EFCD7022EFAD700D084BE72
:100E800044EF07F046EF07F050EF07F0430E056E12
:100E9000000E046E010E036E50EF07F050EF07F0E6
:100EA00084BC55EF07F057EF07F074EF07F0020E20
:100EB000026E040E016EBA0EE82EFED7012EFCD78C
:100EC000022EFAD700D084BC68EF07F06AEF07F073
:100ED00074EF07F0440E056E000E046E010E036EF3
:100EE00074EF07F074EF07F084BA79EF07F07BEF47
:100EF00007F098EF07F0020E026E040E016EBA0EB4
:100F0000E82EFED7012EFCD7022EFAD700D084BAE5
:100F10008CEF07F08EEF07F098EF07F0450E056EA7
:100F2000000E046E010E036E98EF07F098EF07F0C5
:100F300084B89DEF07F09FEF07F0BCEF07F0020EBB
:100F4000026E040E016EBA0EE82EFED7012EFCD7FB
:100F5000022EFAD700D084B8B0EF07F0B2EF07F056
:100F6000BCEF07F0460E056E000E046E010E036E18
:100F7000BCEF07F0BCEF07F08D868D9484BEC3EF05
:100F800007F0C5EF07F0E2EF07F0020E026E040E65
:100F9000016EBA0EE82EFED7012EFCD7022EFAD72C
:100FA00000D084BED6EF07F0D8EF07F0E2EF07F0ED
:100FB000420E056E000E046E010E036EE2EF07F0A6
:100FC000E2EF07F084BCE7EF07F0E9EF07F006EF88
:100FD00008F0020E026E040E016EBA0EE82EFED765
:100FE000012EFCD7022EFAD700D084BCFAEF07F00E
:100FF000FCEF07F006EF08F0390E056E000E046EE8
:10100000010E036E06EF08F006EF08F084BA0BEF4E
:1010100008F00DEF08F02AEF08F0020E026E040E41
:10102000016EBA0EE82EFED7012EFCD7022EFAD79B
:1010300000D084BA1EEF08F020EF08F02AEF08F085
:10104000360E056E000E046E010E036E2AEF08F0D8
:101050002AEF08F084B82FEF08F031EF08F04EEFD8
:1010600008F0020E026E040E016EBA0EE82EFED7D4
:10107000012EFCD7022EFAD700D084B842EF08F038
:1010800044EF08F04EEF08F0330E056E000E046ECC
:10109000010E036E4EEF08F04EEF08F08D848D9236
:1010A00084BE55EF08F057EF08F074EF08F0020E19
:1010B000026E040E016EBA0EE82EFED7012EFCD78A
:1010C000022EFAD700D084BE68EF08F06AEF08F06D
:1010D00074EF08F0300E056E000E046E010E036E04
:1010E00074EF08F074EF08F084BC79EF08F07BEF40
:1010F00008F098EF08F0020E026E040E016EBA0EB0
:10110000E82EFED7012EFCD7022EFAD700D084BCE1
:101110008CEF08F08EEF08F098EF08F0380E056EAF
:10112000000E046E010E036E98EF08F098EF08F0C1
:1011300084BA9DEF08F09FEF08F0BCEF08F0020EB4
:10114000026E040E016EBA0EE82EFED7012EFCD7F9
:10115000022EFAD700D084BAB0EF08F0B2EF08F050
:10116000BCEF08F0350E056E000E046E010E036E26
:10117000BCEF08F0BCEF08F084B8C1EF08F0C3EF93
:1011800008F0E0EF08F0020E026E040E016EBA0ED7
:10119000E82EFED7012EFCD7022EFAD700D084B855
:1011A000D4EF08F0D6EF08F0E0EF08F0320E056E4D
:1011B000000E046E010E036EE0EF08F0E0EF08F0A1
:1011C0008D828D9084BEE7EF08F0E9EF08F006EF1E
:1011D00009F0020E026E040E016EBA0EE82EFED762
:1011E000012EFCD7022EFAD700D084BEFAEF08F009
:1011F000FCEF08F006EF09F0410E056E000E046EDC
:10120000010E036E06EF09F006EF09F084BC0BEF48
:1012100009F00DEF09F02AEF09F0020E026E040E3C
:10122000016EBA0EE82EFED7012EFCD7022EFAD799
:1012300000D084BC1EEF09F020EF09F02AEF09F07E
:10124000370E056E000E046E010E036E2AEF09F0D4
:101250002AEF09F084BA2FEF09F031EF09F04EEFD1
:1012600009F0020E026E040E016EBA0EE82EFED7D1
:10127000012EFCD7022EFAD700D084BA42EF09F033
:1012800044EF09F04EEF09F0340E056E000E046EC7
:10129000010E036E4EEF09F04EEF09F084B853EFE4
:1012A00009F055EF09F072EF09F0020E026E040E1C
:1012B000016EBA0EE82EFED7012EFCD7022EFAD709
:1012C00000D084B866EF09F068EF09F072EF09F01A
:1012D000310E056E000E046E010E036E72EF09F002
:1012E00072EF09F08D8003500410D8A47AEF09F052
:1012F0007CEF09F07EEF09F07A0E056E055081EF64
:1013000009F012001250800B1B6E12501224216E35
:1013100011AE8DEF09F08FEF09F092EF09F0218007
:1013200092EF09F02150D8B498EF09F09AEF09F044
:10133000AFEF09F02128D8A4A0EF09F0A2EF09F03F
:10134000ACEF09F0000E0F6E000E106E000E116E65
:10135000000E126EACEF09F0118EB9EF09F0000E1D
:101360000F6E000E106E000E116E000E126EB9EFB1
:1013700009F01650800B1B1A16501624206E15AE5D
:10138000C4EF09F0C6EF09F0C9EF09F02080C9EFFA
:1013900009F02050D8B4CFEF09F0D1EF09F0E6EF13
:1013A00009F02028D8A4D7EF09F0D9EF09F0E3EF2E
:1013B00009F0000E136E000E146E000E156E000E76
:1013C000166EE3EF09F0158EEEEF09F0000E136EC6
:1013D000000E146E000E156E000E166E2050D8B45E
:1013E000F4EF09F0F6EF09F000EF0AF02150D8A46D
:1013F000FCEF09F0FEEF09F00CEF0AF000EF0AF045
:10140000000E0F6E000E106E000E116E000E126EAA
:10141000B8EF0BF0B8EF0BF015500F02F3CF26F03A
:10142000F4CF27F026501C6E1D6A1E6A1F6A2750D3
:10143000226E236A246A256A14501002F3CF26F024
:10144000F4CF27F026501C26000E1D221E221F223C
:1014500027502226000E2322242225221350110277
:10146000F3CF26F0F4CF27F026501C26000E1D22C5
:101470001E221F2227502226000E2322242225224C
:101480001EC01FF01DC01EF01CC01DF01C6A1350B2
:101490001002F3CF26F0F4CF27F026501C26275059
:1014A0001D22000E1E22000E1F2214500F02F3CF29
:1014B00026F0F4CF27F026501C2627501D22000EC0
:1014C0001E22000E1F221EC01FF01DC01EF01CC0D9
:1014D0001DF01C6A13500F02F3CF26F0F4CF27F053
:1014E00026501C2627501D22000E1E22000E1F22F1
:1014F00015501002F3CF26F0F4CF27F02650222605
:1015000027502322000E2422000E252214501102FF
:10151000F3CF26F0F4CF27F026502226275023229F
:10152000000E2422000E252215501102F3CF26F0C2
:10153000F4CF27F02650176E2750186E196A1A6AD2
:1015400019C01AF018C019F017C018F0176A175010
:10155000222618502322195024221A5025221CC05A
:1015600017F01DC018F01EC019F01FC01AF0190E98
:10157000BFEF0AF0D8901A32193218321732E82E1B
:10158000BAEF0AF0175022261850232219502422AD
:101590001A5025221EC01FF01DC01EF01CC01DF0D9
:1015A0001C6A205021C017F0186A1726000E182256
:1015B000820E1724266EFF0E1820276EF7EF0AF012
:1015C000D89022362336243625361FAEEAEF0AF0AD
:1015D000ECEF0AF0EDEF0AF02280D8901C361D36B1
:1015E0001E361F362606D8A02706F7EF0AF024AECF
:1015F000FCEF0AF0FEEF0AF0E0EF0AF000EF0BF06C
:10160000000E206E1FAE07EF0BF009EF0BF031EF6D
:101610000BF0FF0E1C14176EFF0E1D14186EFF0E3C
:101620001E14196E7F0E1F141A6E17501810191001
:101630001A10D8B41EEF0BF020EF0BF024EF0BF0D4
:10164000010E206E31EF0BF022A029EF0BF02BEFF3
:101650000BF031EF0BF0010E206E31EF0BF031EF9C
:101660000BF02050D8B437EF0BF039EF0BF061EFEF
:101670000BF0010E2226000E23222422252225A073
:1016800044EF0BF046EF0BF061EF0BF022C017F0C8
:1016900023C018F024C019F025C01AF01A341A32E9
:1016A00019321832173217C022F018C023F019C0AF
:1016B00024F01AC025F0264A272A61EF0BF061EFCB
:1016C0000BF027BE6CEF0BF0275008E12628D8A0BE
:1016D0006CEF0BF06EEF0BF078EF0BF0000E226E5C
:1016E000000E236E800E246E7F0E256EACEF0BF085
:1016F00027BE85EF0BF0275006E12604D8B083EF14
:101700000BF085EF0BF091EF0BF0000E226E000E48
:10171000236E000E246E000E256E000E1B6EACEFC5
:101720000BF026C021F0FF0E2216FF0E23167F0EAF
:101730002416000E251621A0A0EF0BF0A2EF0BF04F
:10174000A5EF0BF0248EA5EF0BF0D8902130256E7D
:10175000ACEF0BF0ACEF0BF01B50251222C00FF0DA
:1017600023C010F024C011F025C012F0B8EF0BF028
:1017700012002B50800B386E2B502B243F6E2AAE5C
:10178000C4EF0BF0C6EF0BF0C9EF0BF03F80C9EFD1
:101790000BF03F50D8B4CFEF0BF0D1EF0BF0E8EFE8
:1017A0000BF03F28D8A4D7EF0BF0D9EF0BF0E3EF05
:1017B0000BF0000E286E000E296E000E2A6E000E31
:1017C0002B6EE3EF0BF02A8E000E2B6EF2EF0BF078
:1017D000000E286E000E296E000E2A6E000E2B6E73
:1017E000F2EF0BF02F50800B381A2F502F24406E41
:1017F0002EAEFDEF0BF0FFEF0BF002EF0CF0408090
:1018000002EF0CF04050D8B408EF0CF00AEF0CF0E7
:1018100021EF0CF04028D8A410EF0CF012EF0CF0E0
:101820001CEF0CF0000E2C6E000E2D6E000E2E6EB6
:10183000000E2F6E1CEF0CF02E8E000E2F6E2BEF75
:101840000CF0000E2C6E000E2D6E000E2E6E000E93
:101850002F6E2BEF0CF02C502D102E102F10D8A423
:1018600034EF0CF036EF0CF050EF0CF0000E286E59
:10187000000E296E000E2A6E000E2B6E800E2A12AC
:101880007F0E2B1238502B1228C028F029C029F0C7
:101890002AC02AF02BC02BF0C8EF0DF0C8EF0DF0D6
:1018A0003F50D8A456EF0CF058EF0CF06CEF0CF052
:1018B000000E286E000E296E000E2A6E000E2B6E92
:1018C00028C028F029C029F02AC02AF02BC02BF00C
:1018D000C8EF0DF0C8EF0DF04050306E316A301E89
:1018E000311E304A312A3F50326E336A3050322630
:1018F000315033227F0E3224396E000E33203A6E7F
:1019000028C034F029C035F02AC036F02BC037F09B
:10191000000E286E000E296E000E2A6E000E2B6E31
:10192000000E3B6E000E3C6E000E3D6E000E3E6ED5
:10193000000E406ED8EF0CF04050D8B4A2EF0CF07F
:10194000A4EF0CF0BDEF0CF0D890343635363636B7
:101950003736D890283629362A362B363EAEB3EFA6
:101960000CF0B5EF0CF0B6EF0CF02880D8903B36B9
:101970003C363D363E36BDEF0CF02C50345C2D50DD
:1019800035582E5036582F503758D8A0CAEF0CF083
:10199000CCEF0CF0D7EF0CF03E8C2C50345E2D5079
:1019A000355A2E50365A2F50375AD7EF0CF0402A5E
:1019B000190E4064DEEF0CF0E0EF0CF09CEF0CF041
:1019C000E2EF0CF03450351036103710D8B4EBEF8E
:1019D0000CF0EDEF0CF009EF0DF03B8009EF0DF08E
:1019E00009EF0DF0D890283629362A362B363EAE30
:1019F000FCEF0CF0FEEF0CF0FFEF0CF02880D8901D
:101A00003B363C363D363E363906D8A03A0609EF1D
:101A10000DF02AAE0EEF0DF010EF0DF0F2EF0CF01E
:101A200012EF0DF0000E406E3EAE19EF0DF01BEF01
:101A30000DF043EF0DF0FF0E3B14306EFF0E3C1423
:101A4000316EFF0E3D14326E7F0E3E14336E3050F9
:101A5000311032103310D8B430EF0DF032EF0DF0FA
:101A600036EF0DF0010E406E43EF0DF028A03BEF76
:101A70000DF03DEF0DF043EF0DF0010E406E43EF22
:101A80000DF043EF0DF04050D8B449EF0DF04BEF9F
:101A90000DF073EF0DF0010E2826000E29222A22E8
:101AA0002B222BA056EF0DF058EF0DF073EF0DF039
:101AB00028C030F029C031F02AC032F02BC033F0FA
:101AC0003334333232323132303230C028F031C028
:101AD00029F032C02AF033C02BF0394A3A2A73EF8A
:101AE0000DF073EF0DF03ABE7EEF0DF03A5008E1C5
:101AF0003928D8A07EEF0DF080EF0DF08DEF0DF0BE
:101B0000000E3A6E3968000E286E000E296E000E27
:101B10002A6E000E2B6E8DEF0DF03ABE9AEF0DF08F
:101B20003A5006E13904D8B098EF0DF09AEF0DF075
:101B3000AAEF0DF0000E3A6E000E396E000E286E00
:101B4000000E296E000E2A6E000E2B6E000E386EEF
:101B5000AAEF0DF039C03FF03FA0B1EF0DF0B3EFA9
:101B60000DF0B6EF0DF02A8EB9EF0DF02A9EB9EF09
:101B70000DF0D8903F302B6E38502B1228C028F033
:101B800029C029F02AC02AF02BC02BF0C8EF0DF095
:101B90001200000ECE6E000ECF6E87EC13F0D1EF68
:101BA0000DF081A2D6EF0DF0D8EF0DF0D1EF0DF0D2
:101BB000CD80DBEF0DF081B2E0EF0DF0E2EF0DF044
:101BC000DBEF0DF0CD90CF504C6E4B6ACE504D6E8A
:101BD0004E6A4B504D104F6E4C504E10506E000ED2
:101BE0002C6E000E2D6E000E2E6E400E2F6E890E86
:101BF000136ED20E146EDE0E156E3C0E166E4FC0B6
:101C000001F050C002F0000E02BEFF0E036E046E23
:101C1000010E24EC0FF001C00FF002C010F003C061
:101C200011F004C012F082EC09F00FC028F010C0CF
:101C300029F011C02AF012C02BF0B9EC0BF028C02B
:101C400041F029C042F02AC043F02BC044F012EC0E
:101C500010F041C059F042C05AF0AE0E2C6E470E43
:101C60002D6E6B0E2E6E420E2F6E4FC001F050C0C7
:101C700002F0000E02BEFF0E036E046E010E24EC95
:101C80000FF001C028F002C029F003C02AF004C000
:101C90002BF0B9EC0BF028C041F029C042F02AC06B
:101CA00043F02BC044F012EC10F041C04FF042C0A2
:101CB00050F0010E4F244F6E000E5020506E50BE5B
:101CC0006BEF0EF0505009E1020E4F5CD8A06BEFA5
:101CD0000EF06DEF0EF003EF0FF050BE7BEF0EF045
:101CE000910E4F5C010E5058D8B079EF0EF07BEF9B
:101CF0000EF003EF0FF006EC13F0000E056E000E71
:101D0000046E000E076E010E066E1BEC12F0280E1C
:101D1000056E0E0E066E9DEC11F0000E056E000EA7
:101D2000046E000E076E0E0E066E1BEC12F04FC016
:101D300001F050C002F0000E046E0A0E036E31EC8A
:101D400011F00150300FA8EC12F04FC001F050C05C
:101D500002F0000E046E0A0E036EBBEC10F001C020
:101D60004FF002C050F0000E056E000E046E000E23
:101D7000076E0D0E066E1BEC12F04FC001F050C046
:101D800002F0000E046E0A0E036E31EC11F00150E9
:101D9000300FA8EC12F04FC001F050C002F0000E5E
:101DA000046E0A0E036EBBEC10F001C04FF002C0CF
:101DB00050F0000E056E000E046E000E076E0C0E45
:101DC000066E1BEC12F04FC001F050C002F0000E86
:101DD000046E0A0E036E31EC11F00150300FA8ECC6
:101DE00012F0000E056E000E046E000E076E0F0E50
:101DF000066E1BEC12F0330E056E0E0E066E9DEC99
:101E000011F017EF0FF006EC13F0000E056E010E47
:101E1000046E000E076E010E066E1BEC12F01C0E17
:101E2000056E0E0E066E9DEC11F017EF0FF0020E10
:101E30004C6E040E4B6EBA0EE82EFED74B2EFCD71E
:101E40004C2EFAD700D01200096E0950D8B42BEFEF
:101E50000FF02DEF0FF04FEF0FF004BE34EF0FF047
:101E600032EF0FF04FEF0FF001C005F002C006F0A7
:101E700003C007F004C008F0051E061E071E081E5A
:101E8000052A000E06220722082205C00BF006C014
:101E90000CF007C00DF008C00EF059EF0FF001C0B4
:101EA0000BF002C00CF003C00DF004C00EF059EFAF
:101EB0000FF00150021003100410D8A462EF0FF0CD
:101EC00064EF0FF070EF0FF0000E016E000E026E67
:101ED000000E036E000E046E11EF10F011EF10F003
:101EE000960E0A6E7CEF0FF00A2AD8900E320D3251
:101EF0000C320B327CEF0FF0000E0B14056E000E4F
:101F00000C14066E000E0D14076EFE0E0E14086EF5
:101F10000550061007100810D8A491EF0FF093EFAA
:101F20000FF074EF0FF0A3EF0FF0A3EF0FF00A2AFA
:101F3000010E0B26000E0C220D220E22D8900E321E
:101F40000D320C320B32000E0B14056E000E0C1409
:101F5000066E000E0D14076EFF0E0E14086E05506F
:101F6000061007100810D8A4B8EF0FF0BAEF0FF062
:101F700097EF0FF0C6EF0FF0C6EF0FF00A06D890FC
:101F80000B360C360D360E36C6EF0FF00DBECBEF0E
:101F90000FF0CDEF0FF0D7EF0FF0020E0A60D3EF86
:101FA0000FF0D5EF0FF0BEEF0FF0D7EF0FF00AB044
:101FB000DCEF0FF0DEEF0FF0E1EF0FF00D9EE1EF41
:101FC0000FF0D8900A320AC005F0066A076A086A5C
:101FD00005C008F0076A066A056A05500B1206502C
:101FE0000C1207500D1208500E120950D8B4FBEF16
:101FF0000FF0FDEF0FF007EF10F004BE04EF10F04C
:1020000002EF10F007EF10F00E8E07EF10F00BC08C
:1020100001F00CC002F00DC003F00EC004F011EF8F
:1020200010F01200433444344A6E4A50D8A41BEFD7
:1020300010F01DEF10F029EF10F0000E416E000EB1
:10204000426E000E436E000E446EBAEF10F0BAEF0F
:1020500010F041C045F042C046F043C047F044C0D4
:1020600048F0200E39EF10F0D8904832473246320F
:102070004532E82E34EF10F04550496E438EFF0E86
:102080004116FF0E4216FF0E4316000E4416960E22
:102090004A5E4ABE50EF10F04EEF10F074EF10F0B1
:1020A0004A50800A970FD8B058EF10F05AEF10F04E
:1020B00068EF10F0000E416E000E426E000E436E8F
:1020C000000E446EBAEF10F0BAEF10F068EF10F0A7
:1020D000D89044324332423241324A3E68EF10F0E7
:1020E0009EEF10F09EEF10F01F0E4A647AEF10F092
:1020F0007CEF10F092EF10F0000E416E000E426E79
:10210000000E436E000E446EBAEF10F0BAEF10F0FE
:1021100092EF10F0D89041364236433644364A06A4
:1021200092EF10F04A50D8A498EF10F09AEF10F008
:102130008AEF10F09EEF10F09EEF10F04950D8B4E7
:10214000A4EF10F0A6EF10F0B0EF10F0441E431E05
:10215000421E416C000E422243224422B0EF10F096
:1021600041C041F042C042F043C043F044C044F09B
:10217000BAEF10F01200000E066E04BEC4EF10F0AD
:10218000C2EF10F0CCEF10F0036C041ED8B0042A9C
:10219000010E066ECCEF10F002BED3EF10F0D1EFBF
:1021A00010F0DBEF10F0016C021ED8B0022A010E15
:1021B000061ADBEF10F0000E086E000E076E0350DB
:1021C0000410D8B4E6EF10F0E8EF10F01CEF11F0B7
:1021D000010E056EF2EF10F0D89003360436052A92
:1021E000F2EF10F004AEF7EF10F0F9EF10F0ECEFB3
:1021F00010F0FDEF10F0FDEF10F0D8900736083624
:102200000350015C04500258D8A009EF11F00BEF05
:1022100011F012EF11F00350015E0450025A0780D2
:1022200012EF11F0D89004320332052EFDEF10F0BA
:102230001CEF11F01CEF11F00650D8B422EF11F092
:1022400024EF11F02AEF11F0076C081ED8B0082A0D
:102250002AEF11F007C001F008C002F030EF11F0D2
:102260001200000E066E02BE3AEF11F038EF11F0C8
:1022700042EF11F0016C021ED8B0022A010E066E68
:1022800042EF11F004BE49EF11F047EF11F04FEFAC
:1022900011F0036C041ED8B0042A4FEF11F0035064
:1022A0000410D8B456EF11F058EF11F088EF11F088
:1022B000010E056E62EF11F0D89003360436052A40
:1022C00062EF11F004AE67EF11F069EF11F05CEF0F
:1022D00011F06DEF11F06DEF11F00350015C04503F
:1022E0000258D8A076EF11F078EF11F07EEF11F0E0
:1022F0000350015E0450025A7EEF11F0D890043270
:102300000332052E6DEF11F088EF11F088EF11F018
:102310000650D8B48EEF11F090EF11F096EF11F057
:10232000016C021ED8B0022A96EF11F001C001F034
:1023300002C002F09CEF11F01200000E0A6E000EB7
:10234000096EC0EF11F009500524076E0A500620EF
:10235000086E07C0F6FF08C0F7FF000EF86E0D0EFE
:10236000F76403D00800F55005D0F6CFE9FFF7CFAA
:10237000EAFFEF50A8EC12F0094A0A2AC0EF11F068
:1023800009500524076E0A500620086E07C0F6FFA4
:1023900008C0F7FF000EF86E0D0EF76403D00800BA
:1023A000F55005D0F6CFE9FFF7CFEAFFEF5000096F
:1023B000D8A4DDEF11F0DFEF11F0A3EF11F0E1EFA2
:1023C00011F0120079EC13F027EC07F05B6E310E80
:1023D0005B18D8A4EEEF11F0F0EF11F0F4EF11F06C
:1023E000C9EC0DF0F4EF11F07A0E5B18D8B4FBEFE6
:1023F00011F0FDEF11F006EF12F05B50A8EC12F0B7
:10240000100EE82EFED700D006EF12F0430E5B1838
:10241000D8A40DEF12F00FEF12F013EF12F006EC4C
:1024200013F013EF12F07A0E5B6EE4EF11F0E4EFAD
:1024300011F000EF00F00450140DF3500624086E64
:1024400005BE2CEF12F0055009E1020E045CD8A085
:102450002CEF12F02EEF12F032EF12F0180E0826C9
:1024600032EF12F008507DEC12F0086E3AEF12F0E5
:102470003AEF12F045EC13F00009D8A442EF12F045
:1024800044EF12F03AEF12F08C96F80E54EC13F081
:102490000850F00B54EC13F00838F00B100954EC12
:1024A00013F01200056E04C006F0D89006360350F3
:1024B0000626D890063605500626D8900636062AF7
:1024C000063AF00E061667EF12F067EF12F045ECD1
:1024D00013F00009D8A46FEF12F071EF12F067EF5C
:1024E00012F08C96F80E54EC13F0065054EC13F0E6
:1024F000000E54EC13F08C861200036E03C001F042
:102500000F0E0116013AF00E011603380F0B0F0BD8
:102510000110036E03C001F0330E0116D89001368E
:10252000D89001360340E8423F0B330B0110036E95
:1025300003C001F0550E0116D8900134026ED890F8
:102540000330550B0210036E0350A7EF12F0120078
:10255000046E04507DEC12F0046EB1EF12F0B1EF96
:1025600012F045EC13F00009D8A4B9EF12F0BBEF5C
:1025700012F0B1EF12F08C96FA0E54EC13F00450F6
:10258000F00B54EC13F00438F00B54EC13F08C8681
:102590001200D3507009D36E9598959495969582B4
:1025A00094908C8600F0560E016EB60EE82EFED783
:1025B000012EFCD7560E016EB60EE82EFED7012E68
:1025C000FCD7560E016EB60EE82EFED7012EFCD7B4
:1025D00012001C0EF66E270EF76E000EF86E090044
:1025E000F5CF5CF00900F5CF5DF000EE60F0280E4D
:1025F000EE6AE806FDE100EE51F00B0EEE6AE80629
:10260000FDE1000EF86E0001E2EF11F00AEF13F0A9
:102610000AEF13F045EC13F00009D8A412EF13F001
:1026200014EF13F00AEF13F08C96F80E54EC13F03D
:10263000800E54EC13F0000E54EC13F08C86120054
:102640000E011E85F40E1E17050E1D13F50E1D1727
:10265000500E30135F0E3017F10E0F011917310EA7
:1026600019131A8F1A9D8F0E39171200070ED36E89
:10267000000ECF6E000ECE6E3F0ECD16CD98CD9AC9
:10268000000ECE6E000ECF6E12008C96FC0E54EC37
:1026900013F0000E54EC13F0026E8C8600D0025042
:1026A000010B53EF13F01200016E01C003FF59EF4D
:1026B00013F00F011AA15FEF13F061EF13F059EF60
:1026C00013F003511200C9EC12F020EC13F006ECE9
:1026D00013F0010E036E000E046E010E52EC12F0A8
:1026E00012009590F19E628293828C9036EC13F0EA
:1026F000120063EC13F080EC13F071EC13F0120095
:10270000F00E966E84808482848484861200838096
:0E271000060EE82EFED700D0839012000300C4
:020000040001F9
:10FFF000A0F728F033F0FFF703FFFFFF1DF0F8F341
:00000001FF
