:020000040000FA
:0400000058EF13F0B2
:100E00000043202D205265746F75726E65722061EB
:100E100075206D656E75004E69636F206573742073
:100E20006672616E6361697300000000000000007B
:100E3000000042202D205665726966696572206344
:100E400061707465757220646973740041202D208F
:100E5000566572696669657220746F75636865733B
:100E60004F7574206F662052616E676544697374B4
:100E7000616E6365203D2020636D202020202020AE
:100E80002020202020202020202020202020002D75
:100E90000000000E046E000E036E8D9684BE53EFAC
:100EA00007F055EF07F072EF07F0020E026E040E26
:100EB000016EBA0EE82EFED7012EFCD7022EFAD70D
:100EC00000D084BE66EF07F068EF07F072EF07F01E
:100ED000430E056E000E046E010E036E72EF07F0F6
:100EE00072EF07F084BC77EF07F079EF07F096EF29
:100EF00007F0020E026E040E016EBA0EE82EFED747
:100F0000012EFCD7022EFAD700D084BC8AEF07F05E
:100F10008CEF07F096EF07F0440E056E000E046E9E
:100F2000010E036E96EF07F096EF07F084BA9BEF81
:100F300007F09DEF07F0BAEF07F0020E026E040E05
:100F4000016EBA0EE82EFED7012EFCD7022EFAD77C
:100F500000D084BAAEEF07F0B0EF07F0BAEF07F0B9
:100F6000450E056E000E046E010E036EBAEF07F01B
:100F7000BAEF07F084B8BFEF07F0C1EF07F0DEEF7C
:100F800007F0020E026E040E016EBA0EE82EFED7B6
:100F9000012EFCD7022EFAD700D084B8D2EF07F08A
:100FA000D4EF07F0DEEF07F0460E056E000E046E7C
:100FB000010E036EDEEF07F0DEEF07F08D868D94F5
:100FC00084BEE5EF07F0E7EF07F004EF08F0020E4C
:100FD000026E040E016EBA0EE82EFED7012EFCD76B
:100FE000022EFAD700D084BEF8EF07F0FAEF07F030
:100FF00004EF08F0420E056E000E046E010E036E43
:1010000004EF08F004EF08F084BC09EF08F00BEFE0
:1010100008F028EF08F0020E026E040E016EBA0E00
:10102000E82EFED7012EFCD7022EFAD700D084BCC2
:101030001CEF08F01EEF08F028EF08F0390E056EDF
:10104000000E046E010E036E28EF08F028EF08F082
:1010500084BA2DEF08F02FEF08F04CEF08F0020EE5
:10106000026E040E016EBA0EE82EFED7012EFCD7DA
:10107000022EFAD700D084BA40EF08F042EF08F011
:101080004CEF08F0360E056E000E046E010E036E76
:101090004CEF08F04CEF08F084B851EF08F053EF34
:1010A00008F070EF08F0020E026E040E016EBA0E28
:1010B000E82EFED7012EFCD7022EFAD700D084B836
:1010C00064EF08F066EF08F070EF08F0330E056E7D
:1010D000000E046E010E036E70EF08F070EF08F062
:1010E0008D848D9284BE77EF08F079EF08F096EF4B
:1010F00008F0020E026E040E016EBA0EE82EFED744
:10110000012EFCD7022EFAD700D084BE8AEF08F059
:101110008CEF08F096EF08F0300E056E000E046EAE
:10112000010E036E96EF08F096EF08F084BC9BEF7B
:1011300008F09DEF08F0BAEF08F0020E026E040E00
:10114000016EBA0EE82EFED7012EFCD7022EFAD77A
:1011500000D084BCAEEF08F0B0EF08F0BAEF08F0B2
:10116000380E056E000E046E010E036EBAEF08F025
:10117000BAEF08F084BABFEF08F0C1EF08F0DEEF75
:1011800008F0020E026E040E016EBA0EE82EFED7B3
:10119000012EFCD7022EFAD700D084BAD2EF08F085
:1011A000D4EF08F0DEEF08F0350E056E000E046E89
:1011B000010E036EDEEF08F0DEEF08F084B8E3EF17
:1011C00008F0E5EF08F002EF09F0020E026E040EDF
:1011D000016EBA0EE82EFED7012EFCD7022EFAD7EA
:1011E00000D084B8F6EF08F0F8EF08F002EF09F04D
:1011F000320E056E000E046E010E036E02EF09F052
:1012000002EF09F08D828D9084BE09EF09F00BEF9B
:1012100009F028EF09F0020E026E040E016EBA0EFC
:10122000E82EFED7012EFCD7022EFAD700D084BEBE
:101230001CEF09F01EEF09F028EF09F0410E056ED2
:10124000000E046E010E036E28EF09F028EF09F07E
:1012500084BC2DEF09F02FEF09F04CEF09F0020EDE
:10126000026E040E016EBA0EE82EFED7012EFCD7D8
:10127000022EFAD700D084BC40EF09F042EF09F00B
:101280004CEF09F0370E056E000E046E010E036E72
:101290004CEF09F04CEF09F084BA51EF09F053EF2D
:1012A00009F070EF09F0020E026E040E016EBA0E24
:1012B000E82EFED7012EFCD7022EFAD700D084BA32
:1012C00064EF09F066EF09F070EF09F0340E056E77
:1012D000000E046E010E036E70EF09F070EF09F05E
:1012E00084B875EF09F077EF09F094EF09F0020E7A
:1012F000026E040E016EBA0EE82EFED7012EFCD748
:10130000022EFAD700D084B888EF09F08AEF09F0EE
:1013100094EF09F0310E056E000E046E010E036E9F
:1013200094EF09F094EF09F08D8003500410D8A4D5
:101330009CEF09F09EEF09F0A0EF09F07A0E056E20
:101340000550A3EF09F012001250800B1B6E1250D3
:101350001224216E11AEAFEF09F0B1EF09F0B4EF36
:1013600009F02180B4EF09F02150D8B4BAEF09F0A8
:10137000BCEF09F0D1EF09F02128D8A4C2EF09F0A1
:10138000C4EF09F0CEEF09F0000E0F6E000E106EE4
:10139000000E116E000E126ECEEF09F0118EDBEF13
:1013A00009F0000E0F6E000E106E000E116E000E92
:1013B000126EDBEF09F01650800B1B1A1650162424
:1013C000206E15AEE6EF09F0E8EF09F0EBEF09F05B
:1013D0002080EBEF09F02050D8B4F1EF09F0F3EFE3
:1013E00009F008EF0AF02028D8A4F9EF09F0FBEF84
:1013F00009F005EF0AF0000E136E000E146E000ED9
:10140000156E000E166E05EF0AF0158E10EF0AF03D
:10141000000E136E000E146E000E156E000E166E8A
:101420002050D8B416EF0AF018EF0AF022EF0AF0B5
:101430002150D8A41EEF0AF020EF0AF02EEF0AF098
:1014400022EF0AF0000E0F6E000E106E000E116EED
:10145000000E126EDAEF0BF0DAEF0BF015500F0200
:10146000F3CF26F0F4CF27F026501C6E1D6A1E6ABB
:101470001F6A2750226E236A246A256A14501002BC
:10148000F3CF26F0F4CF27F026501C26000E1D22A5
:101490001E221F2227502226000E2322242225222C
:1014A00013501102F3CF26F0F4CF27F026501C265C
:1014B000000E1D221E221F2227502226000E23224C
:1014C000242225221EC01FF01DC01EF01CC01DF0CE
:1014D0001C6A13501002F3CF26F0F4CF27F02650E9
:1014E0001C2627501D22000E1E22000E1F22145003
:1014F0000F02F3CF26F0F4CF27F026501C262750FA
:101500001D22000E1E22000E1F221EC01FF01DC035
:101510001EF01CC01DF01C6A13500F02F3CF26F002
:10152000F4CF27F026501C2627501D22000E1E2225
:10153000000E1F2215501002F3CF26F0F4CF27F033
:101540002650222627502322000E2422000E252278
:1015500014501102F3CF26F0F4CF27F026502226A4
:1015600027502322000E2422000E2522155011029E
:10157000F3CF26F0F4CF27F02650176E2750186EC1
:10158000196A1A6A19C01AF018C019F017C018F0B1
:10159000176A1750222618502322195024221A5055
:1015A00025221CC017F01DC018F01EC019F01FC066
:1015B0001AF0190EE1EF0AF0D8901A3219321832E7
:1015C0001732E82EDCEF0AF017502226185023229B
:1015D000195024221A5025221EC01FF01DC01EF0D3
:1015E0001CC01DF01C6A205021C017F0186A172675
:1015F000000E1822820E1724266EFF0E1820276E6A
:1016000019EF0BF0D89022362336243625361FAE3C
:101610000CEF0BF00EEF0BF00FEF0BF02280D890D9
:101620001C361D361E361F362606D8A0270619EF93
:101630000BF024AE1EEF0BF020EF0BF002EF0BF0DF
:1016400022EF0BF0000E206E1FAE29EF0BF02BEFF8
:101650000BF053EF0BF0FF0E1C14176EFF0E1D1452
:10166000186EFF0E1E14196E7F0E1F141A6E17507F
:10167000181019101A10D8B440EF0BF042EF0BF00D
:1016800046EF0BF0010E206E53EF0BF022A04BEF54
:101690000BF04DEF0BF053EF0BF0010E206E53EFFC
:1016A0000BF053EF0BF02050D8B459EF0BF05BEF79
:1016B0000BF083EF0BF0010E2226000E23222422D2
:1016C000252225A066EF0BF068EF0BF083EF0BF0FF
:1016D00022C017F023C018F024C019F025C01AF05A
:1016E0001A341A3219321832173217C022F018C0C1
:1016F00023F019C024F01AC025F0264A272A83EFC8
:101700000BF083EF0BF027BE8EEF0BF0275008E1B4
:101710002628D8A08EEF0BF090EF0BF09AEF0BF08D
:10172000000E226E000E236E800E246E7F0E256E3C
:10173000CEEF0BF027BEA7EF0BF0275006E12604F3
:10174000D8B0A5EF0BF0A7EF0BF0B3EF0BF0000E46
:10175000226E000E236E000E246E000E256E000E0B
:101760001B6ECEEF0BF026C021F0FF0E2216FF0EEF
:1017700023167F0E2416000E251621A0C2EF0BF0B3
:10178000C4EF0BF0C7EF0BF0248EC7EF0BF0D8902F
:101790002130256ECEEF0BF0CEEF0BF01B50251253
:1017A00022C00FF023C010F024C011F025C012F0A9
:1017B000DAEF0BF012002B50800B386E2B502B24DD
:1017C0003F6E2AAEE6EF0BF0E8EF0BF0EBEF0BF01D
:1017D0003F80EBEF0BF03F50D8B4F1EF0BF0F3EF9D
:1017E0000BF00AEF0CF03F28D8A4F9EF0BF0FBEF59
:1017F0000BF005EF0CF0000E286E000E296E000EA7
:101800002A6E000E2B6E05EF0CF02A8E000E2B6E4A
:1018100014EF0CF0000E286E000E296E000E2A6EDA
:10182000000E2B6E14EF0CF02F50800B381A2F5037
:101830002F24406E2EAE1FEF0CF021EF0CF024EFA2
:101840000CF0408024EF0CF04050D8B42AEF0CF09C
:101850002CEF0CF043EF0CF04028D8A432EF0CF042
:1018600034EF0CF03EEF0CF0000E2C6E000E2D6EDF
:10187000000E2E6E000E2F6E3EEF0CF02E8E000E20
:101880002F6E4DEF0CF0000E2C6E000E2D6E000E24
:101890002E6E000E2F6E4DEF0CF02C502D102E10D2
:1018A0002F10D8A456EF0CF058EF0CF072EF0CF09C
:1018B000000E286E000E296E000E2A6E000E2B6E92
:1018C000800E2A127F0E2B1238502B1228C028F0BF
:1018D00029C029F02AC02AF02BC02BF0EAEF0DF026
:1018E000EAEF0DF03F50D8A478EF0CF07AEF0CF04F
:1018F0008EEF0CF0000E286E000E296E000E2A6E80
:10190000000E2B6E28C028F029C029F02AC02AF02A
:101910002BC02BF0EAEF0DF0EAEF0DF04050306EE7
:10192000316A301E311E304A312A3F50326E336ADE
:1019300030503226315033227F0E3224396E000E61
:1019400033203A6E28C034F029C035F02AC036F072
:101950002BC037F0000E286E000E296E000E2A6E86
:10196000000E2B6E000E3B6E000E3C6E000E3D6EA8
:10197000000E3E6E000E406EFAEF0CF04050D8B4F0
:10198000C4EF0CF0C6EF0CF0DFEF0CF0D89034365B
:10199000353636363736D890283629362A362B361D
:1019A0003EAED5EF0CF0D7EF0CF0D8EF0CF028805E
:1019B000D8903B363C363D363E36DFEF0CF02C50AF
:1019C000345C2D5035582E5036582F503758D8A0EB
:1019D000ECEF0CF0EEEF0CF0F9EF0CF03E8C2C502D
:1019E000345E2D50355A2E50365A2F50375AF9EF53
:1019F0000CF0402A190E406400EF0DF002EF0DF0DC
:101A0000BEEF0CF004EF0DF03450351036103710E7
:101A1000D8B40DEF0DF00FEF0DF02BEF0DF03B8074
:101A20002BEF0DF02BEF0DF0D890283629362A3603
:101A30002B363EAE1EEF0DF020EF0DF021EF0DF036
:101A40002880D8903B363C363D363E363906D8A005
:101A50003A062BEF0DF02AAE30EF0DF032EF0DF01D
:101A600014EF0DF034EF0DF0000E406E3EAE3BEF84
:101A70000DF03DEF0DF065EF0DF0FF0E3B14306EF5
:101A8000FF0E3C14316EFF0E3D14326E7F0E3E147D
:101A9000336E3050311032103310D8B452EF0DF095
:101AA00054EF0DF058EF0DF0010E406E65EF0DF0A4
:101AB00028A05DEF0DF05FEF0DF065EF0DF0010E6A
:101AC000406E65EF0DF065EF0DF04050D8B46BEF50
:101AD0000DF06DEF0DF095EF0DF0010E2826000EC4
:101AE00029222A222B222BA078EF0DF07AEF0DF07D
:101AF00095EF0DF028C030F029C031F02AC032F047
:101B00002BC033F03334333232323132303230C0E2
:101B100028F031C029F032C02AF033C02BF0394A06
:101B20003A2A95EF0DF095EF0DF03ABEA0EF0DF0CB
:101B30003A5008E13928D8A0A0EF0DF0A2EF0DF03F
:101B4000AFEF0DF0000E3A6E3968000E286E000EF1
:101B5000296E000E2A6E000E2B6EAFEF0DF03ABE0E
:101B6000BCEF0DF03A5006E13904D8B0BAEF0DF0F1
:101B7000BCEF0DF0CCEF0DF0000E3A6E000E396E9A
:101B8000000E286E000E296E000E2A6E000E2B6EBF
:101B9000000E386ECCEF0DF039C03FF03FA0D3EF10
:101BA0000DF0D5EF0DF0D8EF0DF02A8EDBEF0DF034
:101BB0002A9EDBEF0DF0D8903F302B6E38502B1261
:101BC00028C028F029C029F02AC02AF02BC02BF009
:101BD000EAEF0DF01200000ECE6E000ECF6E3BEC61
:101BE00014F0F3EF0DF081A2F8EF0DF0FAEF0DF025
:101BF000F3EF0DF0CD80FDEF0DF081B202EF0EF0AE
:101C000004EF0EF0FDEF0DF0CD90CF504C6E4B6A0F
:101C1000CE504D6E4E6A4B504D104F6E4C504E1084
:101C2000506E000E2C6E000E2D6E000E2E6E400EAD
:101C30002F6E890E136ED20E146EDE0E156E3C0ED4
:101C4000166E4FC001F050C002F0000E02BEFF0E33
:101C5000036E046E010E46EC0FF001C00FF002C0DF
:101C600010F003C011F004C012F0A4EC09F00FC092
:101C700028F010C029F011C02AF012C02BF0DBECC4
:101C80000BF028C041F029C042F02AC043F02BC01D
:101C900044F034EC10F041C057F042C058F0AE0EA2
:101CA0002C6E470E2D6E6B0E2E6E420E2F6E4FC099
:101CB00001F050C002F0000E02BEFF0E036E046E73
:101CC000010E46EC0FF001C028F002C029F003C05D
:101CD0002AF004C02BF0DBEC0BF028C041F029C047
:101CE00042F02AC043F02BC044F034EC10F041C065
:101CF0004FF042C050F0010E4F244F6E000E5020A6
:101D0000506E50BE8DEF0EF0505009E1020E4F5C48
:101D1000D8A08DEF0EF08FEF0EF025EF0FF050BE34
:101D20009DEF0EF0910E4F5C010E5058D8B09BEF16
:101D30000EF09DEF0EF025EF0FF0BAEC13F0000E51
:101D4000056E000E046E000E076E010E066E98EC16
:101D500012F06C0E056E0E0E066E53EC12F0000EB5
:101D6000056E000E046E000E076E0E0E066E98ECE9
:101D700012F04FC001F050C002F0000E046E0A0EC7
:101D8000036EE7EC11F00150300F79EC13F04FC007
:101D900001F050C002F0000E046E0A0E036E71ECEA
:101DA00011F001C04FF002C050F0000E056E000EA1
:101DB000046E000E076E0D0E066E98EC12F04FC00A
:101DC00001F050C002F0000E046E0A0E036EE7EC44
:101DD00011F00150300F79EC13F04FC001F050C0FA
:101DE00002F0000E046E0A0E036E71EC11F001C0D9
:101DF0004FF002C050F0000E056E000E046E000E93
:101E0000076E0C0E066E98EC12F04FC001F050C039
:101E100002F0000E046E0A0E036EE7EC11F00150A2
:101E2000300F79EC13F0000E056E000E046E000EFC
:101E3000076E0F0E066E98EC12F0770E056E0E0E02
:101E4000066E53EC12F039EF0FF0BAEC13F0000EFF
:101E5000056E010E046E000E076E010E066E98EC04
:101E600012F0600E056E0E0E066E53EC12F039EF96
:101E70000FF0020E4C6E040E4B6EBA0EE82EFED71B
:101E80004B2EFCD74C2EFAD700D01200096E095009
:101E9000D8B44DEF0FF04FEF0FF071EF0FF004BE1D
:101EA00056EF0FF054EF0FF071EF0FF001C005F097
:101EB00002C006F003C007F004C008F0051E061EAD
:101EC000071E081E052A000E06220722082205C04A
:101ED0000BF006C00CF007C00DF008C00EF07BEF51
:101EE0000FF001C00BF002C00CF003C00DF004C0F5
:101EF0000EF07BEF0FF00150021003100410D8A475
:101F000084EF0FF086EF0FF092EF0FF0000E016EEE
:101F1000000E026E000E036E000E046E33EF10F022
:101F200033EF10F0960E0A6E9EEF0FF00A2AD8904B
:101F30000E320D320C320B329EEF0FF0000E0B14EE
:101F4000056E000E0C14066E000E0D14076EFE0ECC
:101F50000E14086E0550061007100810D8A4B3EF31
:101F60000FF0B5EF0FF096EF0FF0C5EF0FF0C5EFE4
:101F70000FF00A2A010E0B26000E0C220D220E2253
:101F8000D8900E320D320C320B32000E0B14056E4F
:101F9000000E0C14066E000E0D14076EFF0E0E14CC
:101FA000086E0550061007100810D8A4DAEF0FF0DD
:101FB000DCEF0FF0B9EF0FF0E8EF0FF0E8EF0FF004
:101FC0000A06D8900B360C360D360E36E8EF0FF0B9
:101FD0000DBEEDEF0FF0EFEF0FF0F9EF0FF0020E87
:101FE0000A60F5EF0FF0F7EF0FF0E0EF0FF0F9EF09
:101FF0000FF00AB0FEEF0FF000EF10F003EF10F05B
:102000000D9E03EF10F0D8900A320AC005F0066A60
:10201000076A086A05C008F0076A066A056A05507B
:102020000B1206500C1207500D1208500E120950D8
:10203000D8B41DEF10F01FEF10F029EF10F004BE20
:1020400026EF10F024EF10F029EF10F00E8E29EF9C
:1020500010F00BC001F00CC002F00DC003F00EC078
:1020600004F033EF10F01200433444344A6E4A5007
:10207000D8A43DEF10F03FEF10F04BEF10F0000E42
:10208000416E000E426E000E436E000E446EDCEF99
:1020900010F0DCEF10F041C045F042C046F043C004
:1020A00047F044C048F0200E5BEF10F0D890483263
:1020B000473246324532E82E56EF10F04550496E11
:1020C000438EFF0E4116FF0E4216FF0E4316000E02
:1020D0004416960E4A5E4ABE72EF10F070EF10F092
:1020E00096EF10F04A50800A970FD8B07AEF10F0B0
:1020F0007CEF10F08AEF10F0000E416E000E426E81
:10210000000E436E000E446EDCEF10F0DCEF10F0BA
:102110008AEF10F0D89044324332423241324A3E84
:102120008AEF10F0C0EF10F0C0EF10F01F0E4A64FD
:102130009CEF10F09EEF10F0B4EF10F0000E416E27
:10214000000E426E000E436E000E446EDCEF10F087
:10215000DCEF10F0B4EF10F0D89041364236433641
:1021600044364A06B4EF10F04A50D8A4BAEF10F043
:10217000BCEF10F0ACEF10F0C0EF10F0C0EF10F0BB
:102180004950D8B4C6EF10F0C8EF10F0D2EF10F0FD
:10219000441E431E421E416C000E42224322442232
:1021A000D2EF10F041C041F042C042F043C043F0D2
:1021B00044C044F0DCEF10F012002DEC14F049ECB8
:1021C00007F0596E5A045B10D8A4E9EF10F0EBEF5A
:1021D00010F0F3EF10F0CFEC12F0000E5B6E000E7B
:1021E0005A6EF3EF10F0420E5918D8A4FAEF10F01F
:1021F000FCEF10F023EF11F016EF11F016EF11F0D5
:1022000049EC07F0596E310E5918D8A40AEF11F0B5
:102210000CEF11F010EF11F0EBEC0DF016EF11F0E8
:102220007A0E596E16EF11F016EF11F0430E591891
:10223000D8A41DEF11F01FEF11F000EF11F023EF04
:1022400011F023EF11F0410E5918D8A42AEF11F024
:102250002CEF11F05CEF11F04FEF11F04FEF11F098
:1022600049EC07F0596E7A0E5918D8B43AEF11F0CC
:102270003CEF11F04FEF11F0595079EC13F0020ED2
:10228000526E040E516EBA0EE82EFED7512EFCD7B8
:10229000522EFAD700D04FEF11F04FEF11F0430E4E
:1022A0005918D8A456EF11F058EF11F030EF11F093
:1022B0005CEF11F05CEF11F0430E5918D8A463EFF6
:1022C00011F065EF11F069EF11F0000E5B6E010E79
:1022D0005A6E7A0E596EDFEF10F0DFEF10F000EF5C
:1022E00000F0000E066E04BE7AEF11F078EF11F0E8
:1022F00082EF11F0036C041ED8B0042A010E066EA2
:1023000082EF11F002BE89EF11F087EF11F091EF2B
:1023100011F0016C021ED8B0022A010E061A91EFCC
:1023200011F0000E086E000E076E03500410D8B4B2
:102330009CEF11F09EEF11F0D2EF11F0010E056E3F
:10234000A8EF11F0D89003360436052AA8EF11F053
:1023500004AEADEF11F0AFEF11F0A2EF11F0B3EF5B
:1023600011F0B3EF11F0D890073608360350015C36
:1023700004500258D8A0BFEF11F0C1EF11F0C8EF20
:1023800011F00350015E0450025A0780C8EF11F0AB
:10239000D89004320332052EB3EF11F0D2EF11F0D2
:1023A000D2EF11F00650D8B4D8EF11F0DAEF11F0F7
:1023B000E0EF11F0076C081ED8B0082AE0EF11F02A
:1023C00007C001F008C002F0E6EF11F01200000EA5
:1023D000066E02BEF0EF11F0EEEF11F0F8EF11F023
:1023E000016C021ED8B0022A010E066EF8EF11F041
:1023F00004BEFFEF11F0FDEF11F005EF12F0036CDA
:10240000041ED8B0042A05EF12F003500410D8B40B
:102410000CEF12F00EEF12F03EEF12F0010E056E0F
:1024200018EF12F0D89003360436052A18EF12F090
:1024300004AE1DEF12F01FEF12F012EF12F023EFB7
:1024400012F023EF12F00350015C04500258D8A0A0
:102450002CEF12F02EEF12F034EF12F00350015E69
:102460000450025A34EF12F0D89004320332052E91
:1024700023EF12F03EEF12F03EEF12F00650D8B408
:1024800044EF12F046EF12F04CEF12F0016C021E16
:10249000D8B0022A4CEF12F001C001F002C002F0E5
:1024A00052EF12F01200000E0A6E000E096E76EF67
:1024B00012F009500524076E0A500620086E07C066
:1024C000F6FF08C0F7FF000EF86E0D0EF76403D09C
:1024D0000800F55005D0F6CFE9FFF7CFEAFFEF503F
:1024E00079EC13F0094A0A2A76EF12F00950052414
:1024F000076E0A500620086E07C0F6FF08C0F7FFF7
:10250000000EF86E0D0EF76403D00800F55005D0EC
:10251000F6CFE9FFF7CFEAFFEF500009D8A493EF19
:1025200012F095EF12F059EF12F097EF12F012003F
:102530000450140DF3500624086E05BEA9EF12F0E6
:10254000055009E1020E045CD8A0A9EF12F0ABEF30
:1025500012F0AFEF12F0180E0826AFEF12F008508D
:102560002DEC13F0086EB7EF12F0B7EF12F0F9ECA4
:1025700013F00009D8A4BFEF12F0C1EF12F0B7EFCB
:1025800012F08C96F80E08EC14F00850F00B08ECE2
:1025900014F00838F00B100908EC14F01200BAEC33
:1025A00013F0000E056E000E046E000E076E000E96
:1025B000066E98EC12F04C0E056E0E0E066E53EC85
:1025C00012F0000E056E010E046E000E076E000E76
:1025D000066E98EC12F0320E056E0E0E066E53EC7F
:1025E00012F0000E056E020E046E000E076E000E55
:1025F000066E98EC12F0320E056E0E0E066E53EC5F
:1026000012F01200056E04C006F0D8900636035092
:102610000626D890063605500626D8900636062A95
:10262000063AF00E061617EF13F017EF13F0F9EC59
:1026300013F00009D8A41FEF13F021EF13F017EFE8
:1026400013F08C96F80E08EC14F0065008EC14F019
:10265000000E08EC14F08C861200036E03C001F02B
:102660000F0E0116013AF00E011603380F0B0F0B77
:102670000110036E03C001F0330E0116D89001362D
:10268000D89001360340E8423F0B330B0110036E34
:1026900003C001F0550E0116D8900134026ED89097
:1026A0000330550B0210036E035057EF13F0120066
:1026B000840EF66E280EF76E000EF86E00EE5AF0DD
:1026C00010EE04F00900F5CFEEFFE550E150FAE11D
:1026D00000EE60F02C0EEE6AE806FDE100EE53F02D
:1026E000070EEE6AE806FDE1000EF86E0001DDEF70
:1026F00010F0046E04502DEC13F0046E82EF13F012
:1027000082EF13F0F9EC13F00009D8A48AEF13F06C
:102710008CEF13F082EF13F08C96FA0E08EC14F0A5
:102720000450F00B08EC14F00438F00B08EC14F033
:102730008C861200D3507009D36E95989594959617
:10274000958294908C8600F0560E016EB60EE82E9F
:10275000FED7012EFCD7560E016EB60EE82EFED720
:10276000012EFCD7560E016EB60EE82EFED7012EB6
:10277000FCD71200BEEF13F0BEEF13F0F9EC13F02C
:102780000009D8A4C6EF13F0C8EF13F0BEEF13F0A2
:102790008C96F80E08EC14F0800E08EC14F0000E85
:1027A00008EC14F08C8612000E011E85F40E1E1724
:1027B000050E1D13F50E1D17500E30135F0E30174A
:1027C000F10E0F011917310E19131A8F1A9D8F0E62
:1027D00039171200070ED36E000ECF6E000ECE6EAC
:1027E0003F0ECD16CD98CD9A000ECE6E000ECF6E58
:1027F00012008C96FC0E08EC14F0000E08EC14F09D
:10280000026E8C8600D00250010B07EF14F012000C
:10281000016E01C003FF0DEF14F00F011AA113EFB9
:1028200014F015EF14F00DEF14F0035112009AECB0
:1028300013F0D4EC13F0BAEC13F0010E036E000E9B
:10284000046E010E02EC13F012009590F19E62826C
:1028500093828C90EAEC13F0120017EC14F034EC35
:1028600014F025EC14F01200F00E966E8480848231
:102870008484848612008380060EE82EFED700D062
:08288000839012000100030027
:020000040001F9
:10FFF000A0F728F033F0FFF703FFFFFF1DF0F8F341
:00000001FF
