:020000040000FA
:0400000055EF07F0C1
:100E00000020202020202020202020202020202002
:090E10002020202020002D00000C
:100E1A0011EF07F011EF07F037EC07F00009D8A43B
:100E2A0019EF07F01BEF07F011EF07F08C96F80E99
:100E3A0046EC07F0800E46EC07F0000E46EC07F091
:100E4A008C8612000DEC07F0A60EE82EFED700D015
:100E5A00A60EE82EFED700D027EF07F027EF07F0FF
:100E6A0000EF00F08C96FC0E46EC07F0000E46EC04
:100E7A0007F0026E8C8600D00250010B45EF07F096
:100E8A001200016E01C003FF4BEF07F00F011AA118
:100E9A0051EF07F053EF07F04BEF07F00351120041
:0A0EAA00000EF86E000127EF07F0BC
:020000040001F9
:10FFF000E0F78BF121F0FFF703FFF3FF01F0F8F2D8
:00000001FF
