:020000040000FA
:04000000A3EF0AF070
:100E0000004E69636F20657374206672616EE761DE
:100E10006973202020202020202020202020202036
:100E2000202020202020002D0000000E046E000E47
:100E3000036E8D9684BE1FEF07F021EF07F03EEFA3
:100E400007F0020E026E040E016EBA0EE82EFED7F7
:100E5000012EFCD7022EFAD700D084BE32EF07F065
:100E600034EF07F03EEF07F0430E056E000E046E00
:100E7000010E036E3EEF07F03EEF07F084BC43EF38
:100E800007F045EF07F062EF07F0020E026E040E66
:100E9000016EBA0EE82EFED7012EFCD7022EFAD72D
:100EA00000D084BC56EF07F058EF07F062EF07F070
:100EB000440E056E000E046E010E036E62EF07F025
:100EC00062EF07F084BA67EF07F069EF07F086EF8B
:100ED00007F0020E026E040E016EBA0EE82EFED767
:100EE000012EFCD7022EFAD700D084BA7AEF07F091
:100EF0007CEF07F086EF07F0450E056E000E046EDE
:100F0000010E036E86EF07F086EF07F084B88BEFD3
:100F100007F08DEF07F0AAEF07F0020E026E040E45
:100F2000016EBA0EE82EFED7012EFCD7022EFAD79C
:100F300000D084B89EEF07F0A0EF07F0AAEF07F00B
:100F4000460E056E000E046E010E036EAAEF07F04A
:100F5000AAEF07F08D868D9484BEB1EF07F0B3EF52
:100F600007F0D0EF07F0020E026E040E016EBA0E0B
:100F7000E82EFED7012EFCD7022EFAD700D084BE71
:100F8000C4EF07F0C6EF07F0D0EF07F0420E056E92
:100F9000000E046E010E036ED0EF07F0D0EF07F0E5
:100FA00084BCD5EF07F0D7EF07F0F4EF07F0020E9F
:100FB000026E040E016EBA0EE82EFED7012EFCD78B
:100FC000022EFAD700D084BCE8EF07F0EAEF07F072
:100FD000F4EF07F0390E056E000E046E010E036E7D
:100FE000F4EF07F0F4EF07F084BAF9EF07F0FBEF46
:100FF00007F018EF08F0020E026E040E016EBA0E32
:10100000E82EFED7012EFCD7022EFAD700D084BAE4
:101010000CEF08F00EEF08F018EF08F0360E056E32
:10102000000E046E010E036E18EF08F018EF08F0C2
:1010300084B81DEF08F01FEF08F03CEF08F0020E37
:10104000026E040E016EBA0EE82EFED7012EFCD7FA
:10105000022EFAD700D084B830EF08F032EF08F053
:101060003CEF08F0330E056E000E046E010E036EA9
:101070003CEF08F03CEF08F08D848D9284BE43EF86
:1010800008F045EF08F062EF08F0020E026E040E61
:10109000016EBA0EE82EFED7012EFCD7022EFAD72B
:1010A00000D084BE56EF08F058EF08F062EF08F069
:1010B000300E056E000E046E010E036E62EF08F036
:1010C00062EF08F084BC67EF08F069EF08F086EF84
:1010D00008F0020E026E040E016EBA0EE82EFED764
:1010E000012EFCD7022EFAD700D084BC7AEF08F08C
:1010F0007CEF08F086EF08F0380E056E000E046EE7
:10110000010E036E86EF08F086EF08F084BA8BEFCD
:1011100008F08DEF08F0AAEF08F0020E026E040E40
:10112000016EBA0EE82EFED7012EFCD7022EFAD79A
:1011300000D084BA9EEF08F0A0EF08F0AAEF08F004
:10114000350E056E000E046E010E036EAAEF08F058
:10115000AAEF08F084B8AFEF08F0B1EF08F0CEEFD7
:1011600008F0020E026E040E016EBA0EE82EFED7D3
:10117000012EFCD7022EFAD700D084B8C2EF08F0B7
:10118000C4EF08F0CEEF08F0320E056E000E046ECC
:10119000010E036ECEEF08F0CEEF08F08D828D9039
:1011A00084BED5EF08F0D7EF08F0F4EF08F0020E98
:1011B000026E040E016EBA0EE82EFED7012EFCD789
:1011C000022EFAD700D084BEE8EF08F0EAEF08F06C
:1011D000F4EF08F0410E056E000E046E010E036E72
:1011E000F4EF08F0F4EF08F084BCF9EF08F0FBEF3F
:1011F00008F018EF09F0020E026E040E016EBA0E2E
:10120000E82EFED7012EFCD7022EFAD700D084BCE0
:101210000CEF09F00EEF09F018EF09F0370E056E2C
:10122000000E046E010E036E18EF09F018EF09F0BE
:1012300084BA1DEF09F01FEF09F03CEF09F0020E30
:10124000026E040E016EBA0EE82EFED7012EFCD7F8
:10125000022EFAD700D084BA30EF09F032EF09F04D
:101260003CEF09F0340E056E000E046E010E036EA5
:101270003CEF09F03CEF09F084B841EF09F043EF8F
:1012800009F060EF09F0020E026E040E016EBA0E54
:10129000E82EFED7012EFCD7022EFAD700D084B854
:1012A00054EF09F056EF09F060EF09F0310E056ECA
:1012B000000E046E010E036E60EF09F060EF09F09E
:1012C0008D8003500410D8A468EF09F06AEF09F08C
:1012D0006CEF09F07A0E056E05506FEF09F0120001
:1012E000000E0A6E000E096E93EF09F009500524F6
:1012F000076E0A500620086E07C0F6FF08C0F7FF09
:10130000000EF86E0D0EF76403D00800F55005D0FE
:10131000F6CFE9FFF7CFEAFFEF5032EC0AF0094AC7
:101320000A2A93EF09F009500524076E0A50062097
:10133000086E07C0F6FF08C0F7FF000EF86E0D0E2E
:10134000F76403D00800F55005D0F6CFE9FFF7CFDA
:10135000EAFFEF500009D8A4B0EF09F0B2EF09F0AE
:1013600076EF09F0B4EF09F01200036E03C001F04C
:101370000F0E0116013AF00E011603380F0B0F0B7A
:101380000110036E03C001F0330E0116D890013630
:10139000D89001360340E8423F0B330B0110036E37
:1013A00003C001F0550E0116D8900134026ED8909A
:1013B0000330550B0210036E0350DFEF09F01200EB
:1013C000056E04C006F0D890063603500626D89065
:1013D000063605500626D8900636062A063AF00E3E
:1013E0000616F5EF09F0F5EF09F0B7EC0AF0000981
:1013F000D8A4FDEF09F0FFEF09F0F5EF09F08C96A6
:10140000F80EC6EC0AF00650C6EC0AF0000EC6EC68
:101410000AF08C861200EAEC0AF0010E056E0E0E40
:10142000066E70EC09F015EF0AF015EC07F00D6E82
:101430007A0E0D18D8B41FEF0AF021EF0AF02AEF48
:101440000AF00D5032EC0AF0A60EE82EFED700D0BE
:101450002AEF0AF07A0E0D6E15EF0AF015EF0AF07A
:1014600000EF00F0046E0450B5EC09F0046E3BEFA1
:101470000AF03BEF0AF0B7EC0AF00009D8A443EFFA
:101480000AF045EF0AF03BEF0AF08C96FA0EC6EC34
:101490000AF00450F00BC6EC0AF00438F00BC6EC6E
:1014A0000AF08C861200D3507009D36E95989594EB
:1014B0009596958294908C8600F0560E016EB60E2D
:1014C000E82EFED7012EFCD7560E016EB60EE82E82
:1014D000FED7012EFCD7560E016EB60EE82EFED7B3
:1014E000012EFCD7120077EF0AF077EF0AF0B7EC85
:1014F0000AF00009D8A47FEF0AF081EF0AF077EF35
:101500000AF08C96F80EC6EC0AF0800EC6EC0AF0D3
:10151000000EC6EC0AF08C8612000E011E85F40E39
:101520001E17050E1D13F50E1D17500E30135F0EFE
:101530003017F10E0F011917310E19131A8F1A9D5A
:101540008F0E39171200DE0EF66E150EF76E000EB6
:10155000F86E0900F5CF0EF00900F5CF0FF00D6A17
:101560000C6A0B6A000EF86E00010BEF0AF08C9605
:10157000FC0EC6EC0AF0000EC6EC0AF0026E8C8679
:1015800000D00250010BC5EF0AF01200016E01C03D
:1015900003FFCBEF0AF00F011AA1D1EF0AF0D3EF4E
:1015A0000AF0CBEF0AF00351120053EC0AF08DEC75
:1015B0000AF073EC0AF0010E036E000E046E010EC9
:1015C000E0EC09F01200F00E966E84808482848430
:1015D00084861200D5EC0AF0E3EC0AF01200030056
:020000040001F9
:10FFF000A0F728FF33F0FFF703FFFFFF1DF0F8F332
:00000001FF
