:020000040000FA
:040000004DEF00F0D0
:060008005E82F9EFA5F095
:100018005E80D8CF54F0E8CF55F0E0CF56F0F3CF5C
:1000280057F0F4CF58F0F6CF59F0F7CF5AF0F8CF91
:100038005BF0F5CF5CF0F2A424EF00F026EF00F0BF
:1000480039EF00F0000E536E010E526EF9EC99F084
:1000580052C0ACF053C0ADF0ACC004F0ADC005F078
:1000680081ECA5F0F29439EF00F05CC0F5FF5BC0BD
:10007800F8FF5AC0F7FF59C0F6FF58C0F4FF57C041
:10008800F3FF56C0E0FF55C0E8FF54C0D8FF5E90AC
:060098001000FEEFA4F0D1
:10FED80000312D506F7572207072656C6576657291
:10FEE80020646973744E69636F2065737420667249
:10FEF800616E636169734F7574206F662052616E1D
:10FF0800676544697374616E6365203D2000000075
:10FF180000000000000000269E783EEEE9913E13A6
:10FF2800CECC3EAAAA2A3FD1F717378071313F209D
:10FF3800636D322D205574696C69736174657572CF
:10FF4800206578697374616E74312D204E6F7576F3
:10FF5800656C6C65207574696C697361746575721C
:10FF6800417474656E74652064277574696C69736F
:10FF78006174657572546F75636865206E6F6E2065
:10FF880076616C6964654D616368696E652050725D
:10FF9800657465214D616368696E6520507265748A
:10FFA8006521507265702074656D702065617550AB
:10FFB8007265702074656D7020656175507265702A
:10FFC8002074656D7020656175202F2039302043BD
:10FFD800656C736975734D616E71756520656175C2
:10FFE8002020202020202020202020202020202009
:08FFF80020202020002D000054
:020000040001F9
:10000000AEC194F1AFC195F1B0C196F1B1C197F114
:1000100054C194F155C195F156C196F157C197F16C
:1000200094C19CF195C19DF196C19EF197C19FF13C
:10003000000E01017B6F000E7A6F9F5109E1800E67
:100040009E5DD8A026EF80F028EF80F048EF80F08A
:100050009CC158F19DC159F19EC15AF19FC15BF1FC
:10006000200E38EF80F0D8905B335A335933583331
:10007000E82E33EF80F0585159115A115B11D8B462
:1000800044EF80F046EF80F017EF81F048EF80F00A
:10009000D8909C35586F9D35596F9E355A6F9F3556
:1000A0005B6F585159115A115B11D8A45AEF80F067
:1000B0005CEF80F08CEF80F0000E276F000E286F51
:1000C000800E296FBF0E2A6F54C112F155C113F172
:1000D00056C114F157C115F154C10EF155C10FF1BC
:1000E00056C110F157C111F10FEC90F00EC12BF178
:1000F0000FC12CF110C12DF111C12EF17EEC94F045
:1001000027C154F128C155F129C156F12AC157F12F
:1001100008EF84F008EF84F09CC158F19DC159F1BB
:100120009EC15AF19FC15BF1200E9DEF80F001014D
:10013000D8905B335A3359335833E82E97EF80F019
:10014000585159115A115B11D8B4A9EF80F0ABEF97
:1001500080F0E6EF80F054C144F155C145F156C13D
:1001600046F157C147F154C100F155C101F156C1E3
:1001700002F157C103F120ECA5F000C140F101C12B
:1001800041F102C142F103C143F10DEC88F040C1DD
:1001900027F141C128F142C129F143C12AF1000EE2
:1001A00001012B6F000E2C6F000E2D6F000E2E6FB5
:1001B0007EEC94F027C154F128C155F129C156F1C4
:1001C0002AC157F108EF84F008EF84F00101E70E2F
:1001D0007A27FF0E7B2354C10EF155C10FF156C192
:1001E00010F157C111F1000E126F000E136F000EC7
:1001F000146F4C0E156F0FEC90F00EC154F10FC13F
:1002000055F110C156F111C157F154C194F155C1C6
:1002100095F156C196F157C197F194C19CF195C1E2
:100220009DF196C19EF197C19FF14DEF81F0800E37
:1002300001019E5D7F0E9F59D8A021EF81F023EF31
:1002400081F02FEF81F054C154F155C155F156C1E1
:1002500056F157C157F108EF84F04DEF81F0800E51
:100260009E1909E13F0E9F199C119D11D8A43BEFE7
:1002700081F03DEF81F04DEF81F0000E546F000EE4
:10028000556F000E566F000E576F08EF84F008EFA1
:1002900084F04DEF81F04DEF81F00D0E01019C27B0
:1002A000FB0E9D234A0E9E23000E9F23810E586F46
:1002B000FF0E596F9CC15AF19DC15BF19EC15CF16B
:1002C0009FC15DF1180E6AEF81F0D8905D335C3309
:1002D0005B335A33E82E65EF81F058515A27595154
:1002E0005B235A517A275B517B23FF0E9C15586F75
:1002F000FF0E9D15596F7F0E9E155A6F000E9F15AC
:100300005B6FF30E58259C6F040E59219D6F350EBF
:100310005A219E6F3F0E5B219F6F9CC194F19DC13E
:1003200095F19EC196F19FC197F194C154F195C189
:1003300055F196C156F197C157F154C140F155C1DD
:1003400041F156C142F157C143F1000E446F000E16
:10035000456F800E466FBF0E476F0DEC88F040C1B1
:1003600098F141C199F142C19AF143C19BF198C101
:1003700027F199C128F19AC129F19BC12AF1000EF8
:100380000101446F000E456F000E466F400E476F2F
:1003900098C140F199C141F19AC142F19BC143F129
:1003A0000DEC88F040C12BF141C12CF142C12DF17F
:1003B00043C12EF17EEC94F027C184F128C185F170
:1003C00029C186F12AC187F184C10EF185C10FF1DF
:1003D00086C110F187C111F184C112F185C113F1F9
:1003E00086C114F187C115F10FEC90F00EC188F1B0
:1003F0000FC189F110C18AF111C18BF188C10EF1D1
:1004000089C10FF18AC110F18BC111F188C112F1BC
:1004100089C113F18AC114F18BC115F10FEC90F071
:100420000EC18CF10FC18DF110C18EF111C18FF190
:10043000270EF66EFF0EF76E000EF86E0900F5CF70
:1004400044F10900F5CF45F10900F5CF46F10A0066
:10045000F5CF47F11F0EF66EFF0EF76E000EF86E29
:100460000900F5CF12F10900F5CF13F10900F5CF1E
:1004700014F10A00F5CF15F18CC10EF18DC10FF109
:100480008EC110F18FC111F10FEC90F00EC140F14F
:100490000FC141F110C142F111C143F10DEC88F0DF
:1004A00040C190F141C191F142C192F143C193F138
:1004B00090C10EF191C10FF192C110F193C111F1F0
:1004C0008CC112F18DC113F18EC114F18FC115F1E0
:1004D0000FEC90F00EC162F10FC163F110C164F135
:1004E00011C165F12B0EF66EFF0EF76E000EF86E61
:1004F0000900F5CF44F10900F5CF45F10900F5CF2A
:1005000046F10A00F5CF47F1230EF66EFF0EF76EA7
:10051000000EF86E0900F5CF12F10900F5CF13F1C6
:100520000900F5CF14F10A00F5CF15F18CC10EF1D9
:100530008DC10FF18EC110F18FC111F10FEC90F050
:100540000EC140F10FC141F110C142F111C143F19F
:100550000DEC88F040C190F141C191F142C192F19E
:1005600043C193F190C10EF191C10FF192C110F10D
:1005700093C111F188C112F189C113F18AC114F13B
:100580008BC115F10FEC90F00EC166F10FC167F150
:1005900010C168F111C169F166C140F167C141F153
:1005A00068C142F169C143F162C144F163C145F1DF
:1005B00064C146F165C147F10DEC88F040C15EF1C0
:1005C00041C15FF142C160F143C161F1000E01011F
:1005D000126F000E136F000E146F3F0E156F98C14F
:1005E0000EF199C10FF19AC110F19BC111F10FECFD
:1005F00090F00EC190F10FC191F110C192F111C1B3
:1006000093F190C10EF191C10FF192C110F193C11C
:1006100011F198C112F199C113F19AC114F19BC162
:1006200015F10FEC90F00EC17CF10FC17DF110C1FE
:100630007EF111C17FF17AC100F17BC101F10101AD
:10064000000E01BFFF0E026F036F010E49EC9BF01D
:1006500000C180F101C181F102C182F103C183F1C6
:1006600084C112F185C113F186C114F187C115F15E
:100670005EC144F15FC145F160C146F161C147F11E
:100680007CC140F17DC141F17EC142F17FC143F1A6
:100690000DEC88F040C10EF141C10FF142C110F1E3
:1006A00043C111F10FEC90F00EC16AF10FC16BF173
:1006B00010C16CF111C16DF12F0EF66EFF0EF76EC9
:1006C000000EF86E0900F5CF12F10900F5CF13F115
:1006D0000900F5CF14F10A00F5CF15F180C10EF134
:1006E00081C10FF182C110F183C111F10FEC90F0C3
:1006F0000EC144F10FC145F110C146F111C147F1DE
:100700006AC140F16BC141F16CC142F16DC143F16D
:100710000DEC88F040C16EF141C16FF142C170F142
:1007200043C171F17CC100F17DC101F17EC102F1D3
:100730007FC103F120ECA5F000C144F101C145F1F6
:1007400002C146F103C147F16EC140F16FC141F1F1
:1007500070C142F171C143F10DEC88F040C172F1FA
:1007600041C173F142C174F143C175F198C144F1C3
:1007700099C145F19AC146F19BC147F172C140F15F
:1007800073C141F174C142F175C143F10DEC88F0C0
:1007900040C176F141C177F142C178F143C179F1AD
:1007A00076C140F177C141F178C142F179C143F19D
:1007B000330EF66EFF0EF76E000EF86E0900F5CFE1
:1007C00012F10900F5CF13F10900F5CF14F10A0079
:1007D000F5CF15F180C10EF181C10FF182C110F189
:1007E00083C111F10FEC90F00EC144F10FC145F13E
:1007F00010C146F111C147F10DEC88F040C154F130
:1008000041C155F142C156F143C157F108EF84F09F
:100810001200AEC196F0AFC197F0B0C198F0B1C16F
:1008200099F048C096F049C097F04AC098F04BC084
:1008300099F096C09EF097C09FF098C0A0F099C024
:10084000A1F0000E00017D6F000E7C6FA15109E147
:10085000800EA05DD8A02FEF84F031EF84F051EF2F
:1008600084F09EC04CF09FC04DF0A0C04EF0A1C0DF
:100870004FF0200E41EF84F0D8904F324E324D327F
:100880004C32E82E3CEF84F04C504D104E104F107F
:10089000D8B44DEF84F04FEF84F01EEF85F051EFA8
:1008A00084F0D8909E354C6E9F354D6EA0354E6EBF
:1008B000A1354F6E4C504D104E104F10D8A463EF21
:1008C00084F065EF84F095EF84F0000E1B6E000E4F
:1008D0001C6E800E1D6EBF0E1E6E48C006F049C015
:1008E00007F04AC008F04BC009F048C002F049C008
:1008F00003F04AC004F04BC005F047EC92F002C090
:100900001FF003C020F004C021F005C022F08FECDE
:1009100096F01BC048F01CC049F01DC04AF01EC034
:100920004BF00CEF88F00CEF88F09EC04CF09FC0AD
:100930004DF0A0C04EF0A1C04FF0200EA5EF84F006
:10094000D8904F324E324D324C32E82EA0EF84F028
:100950004C504D104E104F10D8B4B1EF84F0B3EF9F
:1009600084F0EDEF84F048C038F049C039F04AC057
:100970003AF04BC03BF048C002F049C003F04AC017
:1009800004F04BC005F061ECA5F002C034F003C0E8
:1009900035F004C036F005C037F0D0EC8AF034C032
:1009A0001BF035C01CF036C01DF037C01EF0000E25
:1009B0001F6E000E206E000E216E000E226E8FEC58
:1009C00096F01BC048F01CC049F01DC04AF01EC084
:1009D0004BF00CEF88F00CEF88F00001E70E7C275D
:1009E000FF0E7D2348C002F049C003F04AC004F066
:1009F0004BC005F0000E066E000E076E000E086E6E
:100A00004C0E096E47EC92F002C048F003C049F06A
:100A100004C04AF005C04BF048C096F049C097F0BA
:100A20004AC098F04BC099F096C09EF097C09FF0D6
:100A300098C0A0F099C0A1F054EF85F0800E00019D
:100A4000A05D7F0EA159D8A028EF85F02AEF85F090
:100A500036EF85F048C048F049C049F04AC04AF036
:100A60004BC04BF00CEF88F054EF85F0800EA019CE
:100A700009E13F0EA1199E119F11D8A442EF85F004
:100A800044EF85F054EF85F0000E486E000E496E7D
:100A9000000E4A6E000E4B6E0CEF88F00CEF88F0E3
:100AA00054EF85F054EF85F00D0E00019E27FB0EEC
:100AB0009F234A0EA023000EA123810E4C6EFF0E31
:100AC0004D6E9EC04EF09FC04FF0A0C050F0A1C030
:100AD00051F0180E71EF85F0D890513250324F32EC
:100AE0004E32E82E6CEF85F04C504E264D504F2282
:100AF0004E507C274F507D23FF0E9E154C6EFF0EEF
:100B00009F154D6E7F0EA0154E6E000EA1154F6EF7
:100B1000F30E4C249E6F040E4D209F6F350E4E2019
:100B2000A06F3F0E4F20A16F9EC096F09FC097F020
:100B3000A0C098F0A1C099F096C048F097C049F0C5
:100B400098C04AF099C04BF048C034F049C035F025
:100B50004AC036F04BC037F0000E386E000E396ECA
:100B6000800E3A6EBF0E3B6ED0EC8AF034C09AF025
:100B700035C09BF036C09CF037C09DF09AC01BF08A
:100B80009BC01CF09CC01DF09DC01EF0000E386E76
:100B9000000E396E000E3A6E400E3B6E9AC034F075
:100BA0009BC035F09CC036F09DC037F0D0EC8AF089
:100BB00034C01FF035C020F036C021F037C022F01D
:100BC0008FEC96F01BC086F01CC087F01DC088F02B
:100BD0001EC089F086C002F087C003F088C004F010
:100BE00089C005F086C006F087C007F088C008F00D
:100BF00089C009F047EC92F002C08AF003C08BF084
:100C000004C08CF005C08DF08AC002F08BC003F0E8
:100C10008CC004F08DC005F08AC006F08BC007F0D0
:100C20008CC008F08DC009F047EC92F002C08EF045
:100C300003C08FF004C090F005C091F0270EF66E4F
:100C4000FF0EF76E000EF86E0900F5CF38F00900C0
:100C5000F5CF39F00900F5CF3AF00A00F5CF3BF0B7
:100C60001F0EF66EFF0EF76E000EF86E0900F5CF40
:100C700006F00900F5CF07F00900F5CF08F00A00EB
:100C8000F5CF09F08EC002F08FC003F090C004F0E1
:100C900091C005F047EC92F002C034F003C035F08B
:100CA00004C036F005C037F0D0EC8AF034C092F0C2
:100CB00035C093F036C094F037C095F092C002F082
:100CC00093C003F094C004F095C005F08EC006F008
:100CD0008FC007F090C008F091C009F047EC92F087
:100CE00002C064F003C065F004C066F005C067F0A0
:100CF0002B0EF66EFF0EF76E000EF86E0900F5CFA4
:100D000038F00900F5CF39F00900F5CF3AF00A00C4
:100D1000F5CF3BF0230EF66EFF0EF76E000EF86E69
:100D20000900F5CF06F00900F5CF07F00900F5CF6F
:100D300008F00A00F5CF09F08EC002F08FC003F072
:100D400090C004F091C005F047EC92F002C034F07E
:100D500003C035F004C036F005C037F0D0EC8AF09F
:100D600034C092F035C093F036C094F037C095F09F
:100D700092C002F093C003F094C004F095C005F057
:100D80008AC006F08BC007F08CC008F08DC009F057
:100D900047EC92F002C068F003C069F004C06AF04A
:100DA00005C06BF068C034F069C035F06AC036F039
:100DB0006BC037F064C038F065C039F066C03AF0F7
:100DC00067C03BF0D0EC8AF034C060F035C061F011
:100DD00036C062F037C063F0000E066E000E076E7C
:100DE000000E086E3F0E096E9AC002F09BC003F021
:100DF0009CC004F09DC005F047EC92F002C092F058
:100E000003C093F004C094F005C095F092C002F0C6
:100E100093C003F094C004F095C005F09AC006F0AA
:100E20009BC007F09CC008F09DC009F047EC92F011
:100E300002C07EF003C07FF004C080F005C081F0E6
:100E40007CC002F07DC003F0000E03BEFF0E046EF6
:100E5000056E010E39EC9CF002C082F003C083F0F5
:100E600004C084F005C085F086C006F087C007F096
:100E700088C008F089C009F060C038F061C039F05E
:100E800062C03AF063C03BF07EC034F07FC035F002
:100E900080C036F081C037F0D0EC8AF034C002F068
:100EA00035C003F036C004F037C005F047EC92F0CF
:100EB00002C06CF003C06DF004C06EF005C06FF0AE
:100EC0002F0EF66EFF0EF76E000EF86E0900F5CFCE
:100ED00006F00900F5CF07F00900F5CF08F00A0089
:100EE000F5CF09F082C002F083C003F084C004F0A3
:100EF00085C005F047EC92F002C038F003C039F02D
:100F000004C03AF005C03BF06CC034F06DC035F061
:100F10006EC036F06FC037F0D0EC8AF034C070F09D
:100F200035C071F036C072F037C073F07EC002F089
:100F30007FC003F080C004F081C005F061ECA5F033
:100F400002C038F003C039F004C03AF005C03BF0ED
:100F500070C034F071C035F072C036F073C037F035
:100F6000D0EC8AF034C074F035C075F036C076F03D
:100F700037C077F09AC038F09BC039F09CC03AF087
:100F80009DC03BF074C034F075C035F076C036F0CB
:100F900077C037F0D0EC8AF034C078F035C079F003
:100FA00036C07AF037C07BF078C034F079C035F0C5
:100FB0007AC036F07BC037F0330EF66EFF0EF76E58
:100FC000000EF86E0900F5CF06F00900F5CF07F026
:100FD0000900F5CF08F00A00F5CF09F082C002F051
:100FE00083C003F084C004F085C005F047EC92F0A4
:100FF00002C038F003C039F004C03AF005C03BF03D
:10100000D0EC8AF034C048F035C049F036C04AF020
:1010100037C04BF00CEF88F0120001014351800BF8
:10102000506F43514325526F42AF19EF88F01BEFC9
:1010300088F01EEF88F052811EEF88F05251D8B42C
:1010400024EF88F026EF88F03DEF88F05229D8A4ED
:101050002CEF88F02EEF88F038EF88F0000E406F0C
:10106000000E416F000E426F000E436F38EF88F0A4
:10107000428F000E436F47EF88F0000E406F000E66
:10108000416F000E426F000E436F47EF88F04751EB
:10109000800B516F50515119D8B451EF88F053EF74
:1010A00088F056EF88F0508D56EF88F0475147256D
:1010B000516F46AF5EEF88F060EF88F063EF88F025
:1010C000518163EF88F05151D8B469EF88F06BEF2C
:1010D00088F082EF88F05129D8A471EF88F073EF7F
:1010E00088F07DEF88F0000E446F000E456F000E13
:1010F000466F000E476F7DEF88F0468F000E476FFA
:101100008CEF88F0000E446F000E456F000E466FA6
:10111000000E476F8CEF88F05251515DD8B093EFBD
:1011200088F095EF88F0C0EF88F050AD9AEF88F026
:101130009CEF88F0A0EF88F0800E501BA0EF88F0A5
:1011400052C153F151C152F153C151F140C153F158
:1011500044C140F153C144F141C153F145C141F192
:1011600053C145F142C153F146C142F153C146F169
:1011700043C153F147C143F153C147F1C0EF88F078
:10118000000E536F5251486F496B481F491F484B1F
:10119000492B51514A6F4B6B48514A2749514B23B8
:1011A0004BBFDCEF88F04B5109E11A0E4A5DD8A025
:1011B000DCEF88F0DEEF88F01BEF89F04051411141
:1011C00042114311D8A4E7EF88F0EAEF88F0010E4E
:1011D000EBEF88F0000E536F000E406F000E416F72
:1011E000000E426F000E436F51C152F126EF89F09D
:1011F0001BEF89F053A1FFEF88F001EF89F007EFB3
:1012000089F0D89053310109536F0BEF89F0D890D2
:1012100053330BEF89F040A110EF89F012EF89F002
:1012200015EF89F0538F15EF89F04335433342337F
:1012300041334033522B5151525DD8A022EF89F0F7
:1012400024EF89F0FAEF88F026EF89F050BD2BEFFC
:1012500089F02DEF89F075EF89F05251D8A433EF62
:1012600089F035EF89F041EF89F0000E406F000EF4
:10127000416F000E426F000E436FCFEF8AF0CFEF49
:101280008AF044514027455141234651422347515A
:10129000432343A14EEF89F050EF89F025EF8AF008
:1012A00053A155EF89F057EF89F05DEF89F0D890A1
:1012B00053310109536F61EF89F0D890533361EFD7
:1012C00089F040A166EF89F068EF89F06BEF89F053
:1012D000538F6BEF89F0433543334233413340330F
:1012E000522B25EF8AF025EF8AF04451405D45519D
:1012F0004159465142594351800A486F4751800A2B
:101300004859D8B086EF89F088EF89F0C6EF89F0A8
:1013100040C148F141C149F142C14AF143C14BF1D9
:10132000481F491F4A1F4B1F482B000E49234A23C1
:101330004B23445148254C6F455149214D6F46512F
:101340004A214E6F47514B214F6FFF0E4C25406F86
:10135000FF0E4D21416FFF0E4E21426FFF0E4F21B8
:10136000436F800E501B536D5351D8A4BAEF89F0D0
:10137000BCEF89F0CEEF89F0010E4027000E41232B
:1013800042234323CEEF89F0CEEF89F04451405FF2
:101390004551415B4651425B4751435B40514111CE
:1013A00042114311D8A4D7EF89F0D9EF89F01AEF91
:1013B0008AF05351D8A4DFEF89F0E1EF89F01AEFFA
:1013C0008AF0000E406F000E416F000E426F000E5B
:1013D000436FCFEF8AF0CFEF8AF01AEF8AF0D89000
:1013E000403741374237433753AFF9EF89F0FBEFCE
:1013F00089F0FEEF89F04081FEEF89F053A103EF01
:101400008AF005EF8AF009EF8AF0D88053370DEFA4
:101410008AF0D89053370DEF8AF05251D8B413EFB9
:101420008AF015EF8AF01AEF8AF052071AEF8AF065
:101430001AEF8AF042AF1FEF8AF021EF8AF0EFEF48
:1014400089F025EF8AF025EF8AF0000E516F53AF37
:101450002CEF8AF02EEF8AF04AEF8AF053C148F160
:101460007F0E4817D8B437EF8AF039EF8AF03DEF96
:101470008AF0010E516F4AEF8AF040A142EF8AF0E4
:1014800044EF8AF04AEF8AF0010E516F4AEF8AF07A
:101490004AEF8AF05151D8B450EF8AF052EF8AF0F7
:1014A00083EF8AF0010E4027000E4123422343239D
:1014B00043A15DEF8AF05FEF8AF083EF8AF040C1CD
:1014C00048F141C149F142C14AF143C14BF14B35A9
:1014D0004B334A334933483348C140F149C141F1A4
:1014E0004AC142F14BC143F15229D8B47AEF8AF094
:1014F0007CEF8AF083EF8AF0522B83EF8AF083EF40
:101500008AF083EF8AF05229D8B489EF8AF08BEF02
:101510008AF095EF8AF05251D8A491EF8AF093EFB8
:101520008AF0ABEF8AF095EF8AF0000E406F000E64
:10153000416F000E426F000E436F5251D8A4A3EFCB
:101540008AF0A5EF8AF0ABEF8AF0000E506FABEF98
:101550008AF0ABEF8AF052A1B0EF8AF0B2EF8AF0D6
:10156000B5EF8AF0428FB8EF8AF0429FB8EF8AF069
:10157000D8905231436F50AFC0EF8AF0C2EF8AF07B
:10158000C5EF8AF0438FC5EF8AF040C140F141C1F9
:1015900041F142C142F143C143F1CFEF8AF0120061
:1015A0003750800B446E37503724466E36AEDBEF33
:1015B0008AF0DDEF8AF0E0EF8AF04680E0EF8AF013
:1015C0004650D8B4E6EF8AF0E8EF8AF0FFEF8AF0F1
:1015D0004628D8A4EEEF8AF0F0EF8AF0FAEF8AF00E
:1015E000000E346E000E356E000E366E000E376E35
:1015F000FAEF8AF0368E000E376E09EF8BF0000E90
:10160000346E000E356E000E366E000E376E09EF2A
:101610008BF03B50800B456E44504518D8B413EF07
:101620008BF015EF8BF018EF8BF0448C18EF8BF0EC
:101630003B503B24456E3AAE20EF8BF022EF8BF00F
:1016400025EF8BF0458025EF8BF04550D8B42BEF7C
:101650008BF02DEF8BF044EF8BF04528D8A433EFBF
:101660008BF035EF8BF03FEF8BF0000E386E000EF5
:10167000396E000E3A6E000E3B6E3FEF8BF03A8EE5
:10168000000E3B6E4EEF8BF0000E386E000E396E82
:10169000000E3A6E000E3B6E4EEF8BF04650455CEE
:1016A000D8B055EF8BF057EF8BF082EF8BF044AC56
:1016B0005CEF8BF05EEF8BF062EF8BF0800E441AE4
:1016C00062EF8BF046C047F045C046F047C045F09A
:1016D00034C047F038C034F047C038F035C047F068
:1016E00039C035F047C039F036C047F03AC036F05F
:1016F00047C03AF037C047F03BC037F047C03BF037
:1017000082EF8BF0000E476E46503C6E3D6A3C1EE9
:101710003D1E3C4A3D2A45503E6E3F6A3C503E26A7
:101720003D503F223FBE9EEF8BF03F5009E11A0E25
:101730003E5CD8A09EEF8BF0A0EF8BF0DDEF8BF03E
:101740003450351036103710D8A4A9EF8BF0ACEF19
:101750008BF0010EADEF8BF0000E476E000E346E75
:10176000000E356E000E366E000E376E45C046F028
:10177000E8EF8BF0DDEF8BF047A0C1EF8BF0C3EF0C
:101780008BF0C9EF8BF0D89047300109476ECDEF51
:101790008BF0D8904732CDEF8BF034A0D2EF8BF0A6
:1017A000D4EF8BF0D7EF8BF0478ED7EF8BF0373439
:1017B0003732363235323432462A4550465CD8A06C
:1017C000E4EF8BF0E6EF8BF0BCEF8BF0E8EF8BF003
:1017D00044BCEDEF8BF0EFEF8BF037EF8CF0465021
:1017E000D8A4F5EF8BF0F7EF8BF003EF8CF0000E41
:1017F000346E000E356E000E366E000E376E91EFB1
:101800008DF091EF8DF038503426395035223A5012
:1018100036223B50372237A010EF8CF012EF8CF0BD
:10182000E7EF8CF047A017EF8CF019EF8CF01FEF6B
:101830008CF0D89047300109476E23EF8CF0D89098
:10184000473223EF8CF034A028EF8CF02AEF8CF095
:101850002DEF8CF0478E2DEF8CF037343732363247
:1018600035323432462AE7EF8CF0E7EF8CF038500F
:10187000345C395035583A5036583750800A3C6EEF
:101880003B50800A3C58D8B048EF8CF04AEF8CF0BF
:1018900088EF8CF034C03CF035C03DF036C03EF0EF
:1018A00037C03FF03C1E3D1E3E1E3F1E3C2A000E30
:1018B0003D223E223F2238503C24406E39503D208C
:1018C000416E3A503E20426E3B503F20436EFF0E29
:1018D0004024346EFF0E4120356EFF0E4220366EDE
:1018E000FF0E4320376E800E441A476C4750D8A431
:1018F0007CEF8CF07EEF8CF090EF8CF0010E3426B4
:10190000000E35223622372290EF8CF090EF8CF0CB
:101910003850345E3950355A3A50365A3B50375A5F
:101920003450351036103710D8A499EF8CF09BEF57
:101930008CF0DCEF8CF04750D8A4A1EF8CF0A3EF33
:101940008CF0DCEF8CF0000E346E000E356E000E65
:10195000366E000E376E91EF8DF091EF8DF0DCEF6B
:101960008CF0D890343635363636373647AEBBEF46
:101970008CF0BDEF8CF0C0EF8CF03480C0EF8CF0B9
:1019800047A0C5EF8CF0C7EF8CF0CBEF8CF0D88080
:101990004736CFEF8CF0D8904736CFEF8CF04650DB
:1019A000D8B4D5EF8CF0D7EF8CF0DCEF8CF0460696
:1019B000DCEF8CF0DCEF8CF036AEE1EF8CF0E3EF97
:1019C0008CF0B1EF8CF0E7EF8CF0E7EF8CF0000ECD
:1019D000456E47AEEEEF8CF0F0EF8CF00CEF8DF033
:1019E00047C03CF07F0E3C16D8B4F9EF8CF0FBEF0B
:1019F0008CF0FFEF8CF0010E456E0CEF8DF034A0F3
:101A000004EF8DF006EF8DF00CEF8DF0010E456EBA
:101A10000CEF8DF00CEF8DF04550D8B412EF8DF037
:101A200014EF8DF045EF8DF0010E3426000E3522B7
:101A30003622372237A01FEF8DF021EF8DF045EFD2
:101A40008DF034C03CF035C03DF036C03EF037C0BC
:101A50003FF03F343F323E323D323C323CC034F006
:101A60003DC035F03EC036F03FC037F04628D8B410
:101A70003CEF8DF03EEF8DF045EF8DF0462A45EFBF
:101A80008DF045EF8DF045EF8DF04628D8B44BEF43
:101A90008DF04DEF8DF057EF8DF04650D8A453EFF9
:101AA0008DF055EF8DF06DEF8DF057EF8DF0000E4E
:101AB000346E000E356E000E366E000E376E4650D8
:101AC000D8A465EF8DF067EF8DF06DEF8DF0000E0F
:101AD000446E6DEF8DF06DEF8DF046A072EF8DF0DE
:101AE00074EF8DF077EF8DF0368E7AEF8DF0369EB5
:101AF0007AEF8DF0D8904630376E44AE82EF8DF09D
:101B000084EF8DF087EF8DF0378E87EF8DF034C046
:101B100034F035C035F036C036F037C037F091EFCD
:101B20008DF01200000E0101036F000E026F8D9602
:101B300084BE9DEF8DF09FEF8DF0BEEF8DF0020E15
:101B40000101016F040E006FBA0EE82EFED7002FC0
:101B5000FCD7012FFAD700F084BEB1EF8DF0B3EFC0
:101B60008DF0BEEF8DF0430E0101046F000E036F88
:101B7000010E026FBEEF8DF0BEEF8DF084BCC3EF9F
:101B80008DF0C5EF8DF0E4EF8DF0020E0101016FD5
:101B9000040E006FBA0EE82EFED7002FFCD7012FDF
:101BA000FAD700F084BCD7EF8DF0D9EF8DF0E4EFD9
:101BB0008DF0440E0101046F000E036F010E026FE1
:101BC000E4EF8DF0E4EF8DF084BAE9EF8DF0EBEF08
:101BD0008DF00AEF8EF0020E0101016F040E006F0E
:101BE000BA0EE82EFED7002FFCD7012FFAD700F04F
:101BF00084BAFDEF8DF0FFEF8DF00AEF8EF0450E09
:101C00000101046F000E036F010E026F0AEF8EF0E8
:101C10000AEF8EF084B80FEF8EF011EF8EF030EFF8
:101C20008EF0020E0101016F040E006FBA0EE82E55
:101C3000FED7002FFCD7012FFAD700F084B823EF8E
:101C40008EF025EF8EF030EF8EF0460E0101046F1E
:101C5000000E036F010E026F30EF8EF030EF8EF04A
:101C60008D868D9484BE37EF8EF039EF8EF058EF6D
:101C70008EF0020E0101016F040E006FBA0EE82E05
:101C8000FED7002FFCD7012FFAD700F084BE4BEF10
:101C90008EF04DEF8EF058EF8EF0420E0101046F82
:101CA000000E036F010E026F58EF8EF058EF8EF0AA
:101CB00084BC5DEF8EF05FEF8EF07EEF8EF0020E53
:101CC0000101016F040E006FBA0EE82EFED7002F3F
:101CD000FCD7012FFAD700F084BC71EF8EF073EFC0
:101CE0008EF07EEF8EF0390E0101046F000E036F4F
:101CF000010E026F7EEF8EF07EEF8EF084BA83EFDE
:101D00008EF085EF8EF0A4EF8EF0020E0101016FD0
:101D1000040E006FBA0EE82EFED7002FFCD7012F5D
:101D2000FAD700F084BA97EF8EF099EF8EF0A4EF17
:101D30008EF0360E0101046F000E036F010E026F6C
:101D4000A4EF8EF0A4EF8EF084B8A9EF8EF0ABEF85
:101D50008EF0CAEF8EF0020E0101016F040E006FCB
:101D6000BA0EE82EFED7002FFCD7012FFAD700F0CD
:101D700084B8BDEF8EF0BFEF8EF0CAEF8EF0330E59
:101D80000101046F000E036F010E026FCAEF8EF0A7
:101D9000CAEF8EF08D848D9284BED1EF8EF0D3EF9A
:101DA0008EF0F2EF8EF0020E0101016F040E006F53
:101DB000BA0EE82EFED7002FFCD7012FFAD700F07D
:101DC00084BEE5EF8EF0E7EF8EF0F2EF8EF0300E8E
:101DD0000101046F000E036F010E026FF2EF8EF02F
:101DE000F2EF8EF084BCF7EF8EF0F9EF8EF018EF83
:101DF0008FF0020E0101016F040E006FBA0EE82E83
:101E0000FED7002FFCD7012FFAD700F084BC0BEFD0
:101E10008FF00DEF8FF018EF8FF0380E0101046F87
:101E2000000E036F010E026F18EF8FF018EF8FF0A6
:101E300084BA1DEF8FF01FEF8FF03EEF8FF0020E90
:101E40000101016F040E006FBA0EE82EFED7002FBD
:101E5000FCD7012FFAD700F084BA31EF8FF033EFBF
:101E60008FF03EEF8FF0350E0101046F000E036F0F
:101E7000010E026F3EEF8FF03EEF8FF084B843EF1C
:101E80008FF045EF8FF064EF8FF0020E0101016FCC
:101E9000040E006FBA0EE82EFED7002FFCD7012FDC
:101EA000FAD700F084B857EF8FF059EF8FF064EF56
:101EB0008FF0320E0101046F000E036F010E026FEE
:101EC00064EF8FF064EF8FF08D828D9084BE6BEFA6
:101ED0008FF06DEF8FF08CEF8FF0020E0101016F2C
:101EE000040E006FBA0EE82EFED7002FFCD7012F8C
:101EF000FAD700F084BE7FEF8FF081EF8FF08CEF88
:101F00008FF0410E0101046F000E036F010E026F8E
:101F10008CEF8FF08CEF8FF084BC91EF8FF093EF0C
:101F20008FF0B2EF8FF0020E0101016F040E006F0F
:101F3000BA0EE82EFED7002FFCD7012FFAD700F0FB
:101F400084BCA5EF8FF0A7EF8FF0B2EF8FF0370EC4
:101F50000101046F000E036F010E026FB2EF8FF0EC
:101F6000B2EF8FF084BAB7EF8FF0B9EF8FF0D8EF00
:101F70008FF0020E0101016F040E006FBA0EE82E01
:101F8000FED7002FFCD7012FFAD700F084BACBEF91
:101F90008FF0CDEF8FF0D8EF8FF0340E0101046F8A
:101FA000000E036F010E026FD8EF8FF0D8EF8FF0A5
:101FB00084B8DDEF8FF0DFEF8FF0FEEF8FF0020ED1
:101FC0000101016F040E006FBA0EE82EFED7002F3C
:101FD000FCD7012FFAD700F084B8F1EF8FF0F3EFC0
:101FE0008FF0FEEF8FF0310E0101046F000E036FD2
:101FF000010E026FFEEF8FF0FEEF8FF08D8001017A
:1020000002510311D8A407EF90F009EF90F00BEF05
:1020100090F07A0E046F04510EEF90F0120001015F
:102020001151800B1A6F11511125206F10AF1BEF4A
:1020300090F01DEF90F020EF90F0208120EF90F0D5
:102040002051D8B426EF90F028EF90F03DEF90F0BB
:102050002029D8A42EEF90F030EF90F03AEF90F0D6
:10206000000E0E6F000E0F6F000E106F000E116F3E
:102070003AEF90F0108F47EF90F0000E0E6F000EC9
:102080000F6F000E106F000E116F47EF90F015519B
:10209000800B1A1B155115251F6F14AF52EF90F0CE
:1020A00054EF90F057EF90F01F8157EF90F01F51D1
:1020B000D8B45DEF90F05FEF90F074EF90F01F29CF
:1020C000D8A465EF90F067EF90F071EF90F0000EFC
:1020D000126F000E136F000E146F000E156F71EF6C
:1020E00090F0148F7CEF90F0000E126F000E136FC3
:1020F000000E146F000E156F1F51D8B482EF90F0D0
:1021000084EF90F08EEF90F02051D8A48AEF90F0F9
:102110008CEF90F09AEF90F08EEF90F0000E0E6F33
:10212000000E0F6F000E106F000E116F46EF92F051
:1021300046EF92F014510E03F3CF25F1F4CF26F1C0
:1021400025511B6F1C6B1D6B1E6B2651216F226B63
:10215000236B246B13510F03F3CF25F1F4CF26F13A
:1021600025511B27000E1C231D231E23265121272A
:10217000000E22232323242312511003F3CF25F131
:10218000F4CF26F125511B27000E1C231D231E23EF
:1021900026512127000E2223232324231DC11EF1B3
:1021A0001CC11DF11BC11CF11B6B12510F03F3CF9E
:1021B00025F1F4CF26F125511B2726511C23000EB3
:1021C0001D23000E1E2313510E03F3CF25F1F4CF70
:1021D00026F125511B2726511C23000E1D23000E1E
:1021E0001E231DC11EF11CC11DF11BC11CF11B6B67
:1021F00012510E03F3CF25F1F4CF26F125511B2701
:1022000026511C23000E1D23000E1E2314510F0304
:10221000F3CF25F1F4CF26F1255121272651222392
:10222000000E2323000E242313511003F3CF25F1B6
:10223000F4CF26F12551212726512223000E2323F6
:10224000000E242314511003F3CF25F1F4CF26F10F
:102250002551166F2651176F186B196B18C119F19C
:1022600017C118F116C117F1166B16512127175116
:10227000222318512323195124231BC116F11CC1F9
:1022800017F11DC118F11EC119F1190E4DEF91F092
:10229000D8901933183317331633E82E48EF91F0DE
:1022A0001651212717512223185123231951242372
:1022B0001DC11EF11CC11DF11BC11CF11B6B1F5167
:1022C00020C116F1176B1627000E1723820E162554
:1022D000256FFF0E1721266F85EF91F0D8902137DB
:1022E0002237233724371EAF78EF91F07AEF91F041
:1022F0007BEF91F02181D8901B371C371D371E379B
:102300002507D8A0260785EF91F023AF8AEF91F03B
:102310008CEF91F06EEF91F08EEF91F0000E1F6F49
:102320001EAF95EF91F097EF91F0BFEF91F0FF0E98
:102330001B15166FFF0E1C15176FFF0E1D15186F5E
:102340007F0E1E15196F1651171118111911D8B4D7
:10235000ACEF91F0AEEF91F0B2EF91F0010E1F6F84
:10236000BFEF91F021A1B7EF91F0B9EF91F0BFEF7E
:1023700091F0010E1F6FBFEF91F0BFEF91F01F5171
:10238000D8B4C5EF91F0C7EF91F0EFEF91F0010EE7
:102390002127000E22232323242324A1D2EF91F00E
:1023A000D4EF91F0EFEF91F021C116F122C117F1B6
:1023B00023C118F124C119F1193519331833173312
:1023C000163316C121F117C122F118C123F119C129
:1023D00024F1254B262BEFEF91F0EFEF91F026BF84
:1023E000FAEF91F0265108E12529D8A0FAEF91F0F3
:1023F000FCEF91F006EF92F0000E216F000E226FBD
:10240000800E236F7F0E246F3AEF92F026BF13EFFA
:1024100092F0265106E12505D8B011EF92F013EFA6
:1024200092F01FEF92F0000E216F000E226F000E4F
:10243000236F000E246F000E1A6F3AEF92F025C141
:1024400020F1FF0E2117FF0E22177F0E2317000E1B
:10245000241720A12EEF92F030EF92F033EF92F09C
:10246000238F33EF92F0D8902031246F3AEF92F01F
:102470003AEF92F01A51241321C10EF122C10FF14B
:1024800023C110F124C111F146EF92F01200055062
:10249000800B0E6E05500524146E04AE52EF92F0C0
:1024A00054EF92F057EF92F0148057EF92F01450DF
:1024B000D8B45DEF92F05FEF92F074EF92F01428D1
:1024C000D8A465EF92F067EF92F071EF92F0000EF2
:1024D000026E000E036E000E046E000E056E71EFAC
:1024E00092F0048E7EEF92F0000E026E000E036EEC
:1024F000000E046E000E056E7EEF92F00950800B08
:102500000E1A095009240F6E08AE89EF92F08BEF76
:1025100092F08EEF92F00F808EEF92F00F50D8B4C1
:1025200094EF92F096EF92F0ABEF92F00F28D8A4D0
:102530009CEF92F09EEF92F0A8EF92F0000E066EE4
:10254000000E076E000E086E000E096EA8EF92F0E6
:10255000088EB3EF92F0000E066E000E076E000EAE
:10256000086E000E096E0F50D8B4B9EF92F0BBEFB1
:1025700092F0C5EF92F01450D8A4C1EF92F0C3EFDF
:1025800092F0D1EF92F0C5EF92F0000E026E000EC5
:10259000036E000E046E000E056E7DEF94F07DEF6D
:1025A00094F008500202F3CF19F0F4CF1AF019504A
:1025B000106E116A126A136A1A50156E166A176A3B
:1025C000186A07500302F3CF19F0F4CF1AF019502C
:1025D0001026000E1122122213221A501526000E68
:1025E00016221722182206500402F3CF19F0F4CF56
:1025F0001AF019501026000E1122122213221A501E
:102600001526000E16221722182212C013F011C030
:1026100012F010C011F0106A06500302F3CF19F047
:10262000F4CF1AF0195010261A501122000E12225F
:10263000000E132207500202F3CF19F0F4CF1AF064
:10264000195010261A501122000E1222000E1322C9
:1026500012C013F011C012F010C011F0106A065031
:102660000202F3CF19F0F4CF1AF0195010261A50C5
:102670001122000E1222000E132208500302F3CF83
:1026800019F0F4CF1AF0195015261A501622000E20
:102690001722000E182207500402F3CF19F0F4CFCE
:1026A0001AF0195015261A501622000E1722000E85
:1026B000182208500402F3CF19F0F4CF1AF0195081
:1026C0000A6E1A500B6E0C6A0D6A0CC00DF00BC02E
:1026D0000CF00AC00BF00A6A0A5015260B5016229D
:1026E0000C5017220D50182210C00AF011C00BF028
:1026F00012C00CF013C00DF0190E84EF93F0D890B7
:102700000D320C320B320A32E82E7FEF93F00A5072
:1027100015260B5016220C5017220D50182212C0ED
:1027200013F011C012F010C011F0106A0F5014C055
:102730000AF00B6A0A26000E0B22820E0A24196E7A
:10274000FF0E0B201A6EBCEF93F0D890153616369C
:102750001736183613AEAFEF93F0B1EF93F0B2EF38
:1027600093F01580D89010361136123613361906AC
:10277000D8A01A06BCEF93F017AEC1EF93F0C3EFE9
:1027800093F0A5EF93F0C5EF93F0000E0F6E13AE2C
:10279000CCEF93F0CEEF93F0F6EF93F0FF0E101422
:1027A0000A6EFF0E11140B6EFF0E12140C6E7F0ECC
:1027B00013140D6E0A500B100C100D10D8B4E3EF6B
:1027C00093F0E5EF93F0E9EF93F0010E0F6EF6EF63
:1027D00093F015A0EEEF93F0F0EF93F0F6EF93F097
:1027E000010E0F6EF6EF93F0F6EF93F00F50D8B4A2
:1027F000FCEF93F0FEEF93F026EF94F0010E152618
:10280000000E16221722182218A009EF94F00BEFE1
:1028100094F026EF94F015C00AF016C00BF017C024
:102820000CF018C00DF00D340D320C320B320A32A0
:102830000AC015F00BC016F00CC017F00DC018F050
:10284000194A1A2A26EF94F026EF94F01ABE31EFB7
:1028500094F01A5008E11928D8A031EF94F033EF22
:1028600094F03DEF94F0000E156E000E166E800E83
:10287000176E7F0E186E71EF94F01ABE4AEF94F047
:102880001A5006E11904D8B048EF94F04AEF94F0DA
:1028900056EF94F0000E156E000E166E000E176EB9
:1028A000000E186E000E0E6E71EF94F019C014F049
:1028B000FF0E1516FF0E16167F0E1716000E1816B1
:1028C00014A065EF94F067EF94F06AEF94F0178E20
:1028D0006AEF94F0D8901430186E71EF94F071EFA5
:1028E00094F00E50181215C002F016C003F017C075
:1028F00004F018C005F07DEF94F0120001012A5198
:10290000800B376F2A512A253E6F29AF8AEF94F04A
:102910008CEF94F08FEF94F03E818FEF94F03E5166
:10292000D8B495EF94F097EF94F0AEEF94F03E2981
:10293000D8A49DEF94F09FEF94F0A9EF94F0000ECF
:10294000276F000E286F000E296F000E2A6FA9EF67
:1029500094F0298F000E2A6FB8EF94F0000E276FC5
:10296000000E286F000E296F000E2A6FB8EF94F04A
:102970002E51800B371B2E512E253F6F2DAFC3EFED
:1029800094F0C5EF94F0C8EF94F03F81C8EF94F055
:102990003F51D8B4CEEF94F0D0EF94F0E7EF94F03D
:1029A0003F29D8A4D6EF94F0D8EF94F0E2EF94F05A
:1029B000000E2B6F000E2C6F000E2D6F000E2E6F71
:1029C000E2EF94F02D8F000E2E6FF1EF94F0000ED9
:1029D0002B6F000E2C6F000E2D6F000E2E6FF1EF7F
:1029E00094F02B512C112D112E11D8A4FAEF94F044
:1029F000FCEF94F016EF95F0000E276F000E286F95
:102A0000000E296F000E2A6F800E29137F0E2A13E5
:102A100037512A1327C127F128C128F129C129F1EB
:102A20002AC12AF18EEF96F08EEF96F03E51D8A48F
:102A30001CEF95F01EEF95F032EF95F0000E276F2A
:102A4000000E286F000E296F000E2A6F27C127F194
:102A500028C128F129C129F12AC12AF18EEF96F067
:102A60008EEF96F03F512F6F306B2F1F301F2F4B83
:102A7000302B3E51316F326B2F5131273051322381
:102A80007F0E3125386F000E3221396F27C133F1A7
:102A900028C134F129C135F12AC136F1000E276F62
:102AA000000E286F000E296F000E2A6F000E3A6F7D
:102AB000000E3B6F000E3C6F000E3D6F000E3F6F2F
:102AC0009EEF95F03F51D8B468EF95F06AEF95F01E
:102AD00083EF95F0D8903337343735373637D89081
:102AE0002737283729372A373DAF79EF95F07BEF25
:102AF00095F07CEF95F02781D8903A373B373C37FB
:102B00003D3783EF95F02B51335D2C5134592D51C6
:102B100035592E513659D8A090EF95F092EF95F097
:102B20009DEF95F03D8D2B51335F2C51345B2D5132
:102B3000355B2E51365B9DEF95F03F2B190E3F65AF
:102B4000A4EF95F0A6EF95F062EF95F0A8EF95F061
:102B50003351341135113611D8B4B1EF95F0B3EFCC
:102B600095F0CFEF95F03A81CFEF95F0CFEF95F05C
:102B7000D8902737283729372A373DAFC2EF95F04D
:102B8000C4EF95F0C5EF95F02781D8903A373B37E1
:102B90003C373D373807D8A03907CFEF95F029AF3C
:102BA000D4EF95F0D6EF95F0B8EF95F0D8EF95F01B
:102BB000000E3F6F3DAFDFEF95F0E1EF95F009EFCD
:102BC00096F0FF0E3A152F6FFF0E3B15306FFF0E7C
:102BD0003C15316F7F0E3D15326F2F513011311181
:102BE0003211D8B4F6EF95F0F8EF95F0FCEF95F0D0
:102BF000010E3F6F09EF96F027A101EF96F003EF6A
:102C000096F009EF96F0010E3F6F09EF96F009EF8D
:102C100096F03F51D8B40FEF96F011EF96F039EFE0
:102C200096F0010E2727000E282329232A232AA104
:102C30001CEF96F01EEF96F039EF96F027C12FF1BA
:102C400028C130F129C131F12AC132F13235323394
:102C5000313330332F332FC127F130C128F131C147
:102C600029F132C12AF1384B392B39EF96F039EF7F
:102C700096F039BF44EF96F0395108E13829D8A0D1
:102C800044EF96F046EF96F053EF96F0000E396F52
:102C90003869000E276F000E286F000E296F000E96
:102CA0002A6F53EF96F039BF60EF96F0395106E185
:102CB0003805D8B05EEF96F060EF96F070EF96F0C2
:102CC000000E396F000E386F000E276F000E286F50
:102CD000000E296F000E2A6F000E376F70EF96F00E
:102CE00038C13EF13EA177EF96F079EF96F07CEF98
:102CF00096F0298F7FEF96F0299F7FEF96F0D8907E
:102D00003E312A6F37512A1327C127F128C128F1F4
:102D100029C129F12AC12AF18EEF96F012001E5026
:102D2000800B2B6E1E501E24326E1DAE9AEF96F055
:102D30009CEF96F09FEF96F032809FEF96F0325026
:102D4000D8B4A5EF96F0A7EF96F0BEEF96F0322834
:102D5000D8A4ADEF96F0AFEF96F0B9EF96F0000E75
:102D60001B6E000E1C6E000E1D6E000E1E6EB9EF67
:102D700096F01D8E000E1E6EC8EF96F0000E1B6EB4
:102D8000000E1C6E000E1D6E000E1E6EC8EF96F03B
:102D90002250800B2B1A22502224336E21AED3EF07
:102DA00096F0D5EF96F0D8EF96F03380D8EF96F006
:102DB0003350D8B4DEEF96F0E0EF96F0F7EF96F0F0
:102DC0003328D8A4E6EF96F0E8EF96F0F2EF96F00D
:102DD000000E1F6E000E206E000E216E000E226E81
:102DE000F2EF96F0218E000E226E01EF97F0000EAA
:102DF0001F6E000E206E000E216E000E226E01EF7F
:102E000097F01F50201021102210D8A40AEF97F03D
:102E10000CEF97F026EF97F0000E1B6E000E1C6E65
:102E2000000E1D6E000E1E6E800E1D127F0E1E12F5
:102E30002B501E121BC01BF01CC01CF01DC01DF02F
:102E40001EC01EF09EEF98F09EEF98F03250D8A46E
:102E50002CEF97F02EEF97F042EF97F0000E1B6EDD
:102E6000000E1C6E000E1D6E000E1E6E1BC01BF0B1
:102E70001CC01CF01DC01DF01EC01EF09EEF98F07F
:102E80009EEF98F03350236E246A231E241E234A9B
:102E9000242A3250256E266A2350252624502622C5
:102EA0007F0E25242C6E000E26202D6E1BC027F0D1
:102EB0001CC028F01DC029F01EC02AF0000E1B6E99
:102EC000000E1C6E000E1D6E000E1E6E000E2E6E8D
:102ED000000E2F6E000E306E000E316E000E336E3F
:102EE000AEEF97F03350D8B478EF97F07AEF97F0D1
:102EF00093EF97F0D8902736283629362A36D8907F
:102F00001B361C361D361E3631AE89EF97F08BEF1F
:102F100097F08CEF97F01B80D8902E362F363036F6
:102F2000313693EF97F01F50275C205028582150DE
:102F3000295822502A58D8A0A0EF97F0A2EF97F076
:102F4000ADEF97F0318C1F50275E2050285A21504A
:102F5000295A22502A5AADEF97F0332A190E3364BA
:102F6000B4EF97F0B6EF97F072EF97F0B8EF97F0F5
:102F70002750281029102A10D8B4C1EF97F0C3EFBA
:102F800097F0DFEF97F02E80DFEF97F0DFEF97F00D
:102F9000D8901B361C361D361E3631AED2EF97F058
:102FA000D4EF97F0D5EF97F01B80D8902E362F36C0
:102FB000303631362C06D8A02D06DFEF97F01DAE47
:102FC000E4EF97F0E6EF97F0C8EF97F0E8EF97F0AF
:102FD000000E336E31AEEFEF97F0F1EF97F019EF8F
:102FE00098F0FF0E2E14236EFF0E2F14246EFF0E8A
:102FF0003014256E7F0E3114266E235024102510B8
:103000002610D8B406EF98F008EF98F00CEF98F07F
:10301000010E336E19EF98F01BA011EF98F013EF2B
:1030200098F019EF98F0010E336E19EF98F019EF40
:1030300098F03350D8B41FEF98F021EF98F049EF93
:1030400098F0010E1B26000E1C221D221E221EA01F
:103050002CEF98F02EEF98F049EF98F01BC023F07A
:103060001CC024F01DC025F01EC026F026342632D8
:1030700025322432233223C01BF024C01CF025C08B
:103080001DF026C01EF02C4A2D2A49EF98F049EF7A
:1030900098F02DBE54EF98F02D5008E12C28D8A0C0
:1030A00054EF98F056EF98F063EF98F0000E2D6E05
:1030B0002C68000E1B6E000E1C6E000E1D6E000EA6
:1030C0001E6E63EF98F02DBE70EF98F02D5006E164
:1030D0002C04D8B06EEF98F070EF98F080EF98F075
:1030E000000E2D6E000E2C6E000E1B6E000E1C6E60
:1030F000000E1D6E000E1E6E000E2B6E80EF98F0FF
:103100002CC032F032A087EF98F089EF98F08CEF66
:1031100098F01D8E8FEF98F01D9E8FEF98F0D8904D
:1031200032301E6E2B501E121BC01BF01CC01CF038
:103130001DC01DF01EC01EF09EEF98F01200010190
:10314000A005A111D8A4A7EF98F0A9EF98F0F2EF8D
:1031500099F0C08237ECA4F0C092AFEF98F0C0A015
:10316000B4EF98F0B6EF98F0AFEF98F0B8EF98F0B2
:10317000C2CF00F1C3CF01F10101026B036B000E5E
:1031800049EC9BF000C1C8F101C1C9F102C1CAF10B
:1031900003C1CBF1C8C10EF1C9C10FF1CAC110F111
:1031A000CBC111F10A0E0101126F280E136FA00E90
:1031B000146F3B0E156F0FEC90F00EC1C8F10FC1EC
:1031C000C9F110C1CAF111C1CBF1C8C100F1C9C127
:1031D00001F1CAC102F1CBC103F120ECA5F000C19D
:1031E00040F101C141F102C142F103C143F1000EBE
:1031F0000101446F000E456FA00E466F400E476FF1
:103200000DEC88F040C1BAF141C1BBF142C1BCF143
:1032100043C1BDF1000E01012B6F400E2C6F1C0E3F
:103220002D6F460E2E6FBAC127F1BBC128F1BCC16C
:1032300029F1BDC12AF17EEC94F027C1A8F128C183
:10324000A9F129C1AAF12AC1ABF1C8C127F1C9C1AD
:1032500028F1CAC129F1CBC12AF1A8C12BF1A9C11A
:103260002CF1AAC12DF1ABC12EF17EEC94F027C157
:10327000BEF128C1BFF129C1C0F12AC1C1F1BEC14F
:1032800027F1BFC128F1C0C129F1C1C12AF1000E47
:1032900001012B6F400E2C6F1C0E2D6F460E2E6FF2
:1032A0007EEC94F027C1A2F128C1A3F129C1A4F1B9
:1032B0002AC1A5F1A2C154F1A3C155F1A4C156F18F
:1032C000A5C157F100EC80F054C1CCF155C1CDF14E
:1032D00056C1CEF157C1CFF1B2C12BF1B3C12CF120
:1032E000B4C12DF1B5C12EF1000E0101276F000E02
:1032F000286F800E296F3F0E2A6F7EEC94F027C155
:1033000044F128C145F129C146F12AC147F1000E17
:1033100001012B6F900E2C6F780E2D6F450E2E6FC6
:10332000CCC127F1CDC128F1CEC129F1CFC12AF1FD
:103330007EEC94F027C140F128C141F129C142F14E
:103340002AC143F10DEC88F040C1A8F141C1A9F1B7
:1033500042C1AAF143C1ABF1000E0101276F000E7B
:10336000286F800E296F3F0E2A6FA8C12BF1A9C1CB
:103370002CF1AAC12DF1ABC12EF17EEC94F027C146
:10338000B6F128C1B7F129C1B8F12AC1B9F1B6C166
:1033900040F1B7C141F1B8C142F1B9C143F1330EB7
:1033A0000101446F930E456F880E466FC30E476F41
:1033B0000DEC88F040C1B6F141C1B7F142C1B8F19E
:1033C00043C1B9F1B6C140F1B7C141F1B8C142F151
:1033D000B9C143F176EC9FF040C1A6F141C1A7F11C
:1033E000F2EF99F0A6C1A0F1A7C1A1F1F8EF99F011
:1033F000120052045310D8A400EF9AF002EF9AF092
:1034000042EF9BF0C08261ECA4F0C09208EF9AF00A
:10341000C0A00DEF9AF00FEF9AF008EF9AF011EFBD
:103420009AF0C2CF02F0C3CF03F0046A056A000E1F
:1034300039EC9CF002C0C8F103C0C9F104C0CAF164
:1034400005C0CBF1C8C102F0C9C103F0CAC104F084
:10345000CBC105F00A0E066E280E076EA00E086E90
:103460003B0E096E47EC92F002C0C8F103C0C9F1EF
:1034700004C0CAF105C0CBF1C8C102F0C9C103F054
:10348000CAC104F0CBC105F061ECA5F002C034F074
:1034900003C035F004C036F005C037F0000E386EBA
:1034A000000E396EA00E3A6E400E3B6ED0EC8AF0E4
:1034B00034C0BAF135C0BBF136C0BCF137C0BDF184
:1034C000000E1F6E400E206E1C0E216E460E226EE8
:1034D000BAC11BF0BBC11CF0BCC11DF0BDC11EF0C8
:1034E0008FEC96F01BC0A6F01CC0A7F01DC0A8F082
:1034F0001EC0A9F0C8C11BF0C9C11CF0CAC11DF093
:10350000CBC11EF0A6C01FF0A7C020F0A8C021F0BC
:10351000A9C022F08FEC96F01BC0BEF11CC0BFF119
:103520001DC0C0F11EC0C1F1BEC11BF0BFC11CF067
:10353000C0C11DF0C1C11EF0000E1F6E400E206EF6
:103540001C0E216E460E226E8FEC96F01BC0A2F070
:103550001CC0A3F01DC0A4F01EC0A5F0A2C048F07E
:10356000A3C049F0A4C04AF0A5C04BF009EC84F018
:1035700048C0CCF149C0CDF14AC0CEF14BC0CFF12B
:10358000B2C11FF0B3C120F0B4C121F0B5C122F027
:10359000000E1B6E000E1C6E800E1D6E3F0E1E6E0A
:1035A0008FEC96F01BC038F01CC039F01DC03AF00B
:1035B0001EC03BF0000E1F6E900E206E780E216E26
:1035C000450E226ECCC11BF0CDC11CF0CEC11DF04A
:1035D000CFC11EF08FEC96F01BC034F01CC035F04C
:1035E0001DC036F01EC037F0D0EC8AF034C0A6F013
:1035F00035C0A7F036C0A8F037C0A9F0000E1B6E8A
:10360000000E1C6E800E1D6E3F0E1E6EA6C01FF0BB
:10361000A7C020F0A8C021F0A9C022F08FEC96F03E
:103620001BC0B6F11CC0B7F11DC0B8F11EC0B9F186
:10363000B6C134F0B7C135F0B8C136F0B9C137F012
:10364000330E386E930E396E880E3A6EC30E3B6E93
:10365000D0EC8AF034C0B6F135C0B7F136C0B8F15D
:1036600037C0B9F1B6C102F0B7C103F0B8C104F078
:10367000B9C105F0C9ECA0F002C0AAF003C0ABF0DC
:1036800042EF9BF0AAC052F0ABC053F048EF9BF062
:1036900012000101086F01010851D8B452EF9BF0EC
:1036A00054EF9BF076EF9BF003BF5BEF9BF059EF7D
:1036B0009BF076EF9BF000C104F101C105F102C15E
:1036C00006F103C107F1041F051F061F071F042B86
:1036D000000E05230623072304C10AF105C10BF1DF
:1036E00006C10CF107C10DF180EF9BF000C10AF19A
:1036F00001C10BF102C10CF103C10DF180EF9BF090
:103700000051011102110311D8A489EF9BF08BEF36
:103710009BF097EF9BF0000E006F000E016F000E04
:10372000026F000E036F38EF9CF038EF9CF0960E9E
:10373000096FA3EF9BF0092BD8900D330C330B339B
:103740000A33A3EF9BF0000E0A15046F000E0B1551
:10375000056F000E0C15066FFE0E0D15076F045158
:10376000051106110711D8A4B8EF9BF0BAEF9BF032
:103770009BEF9BF0CAEF9BF0CAEF9BF0092B010E69
:103780000A27000E0B230C230D23D8900D330C3386
:103790000B330A33000E0A15046F000E0B15056F6C
:1037A000000E0C15066FFF0E0D15076F0451051165
:1037B00006110711D8A4DFEF9BF0E1EF9BF0BEEFFD
:1037C0009BF0EDEF9BF0EDEF9BF00907D8900A37E7
:1037D0000B370C370D37EDEF9BF00CBFF2EF9BF082
:1037E000F4EF9BF0FEEF9BF0020E0961FAEF9BF005
:1037F000FCEF9BF0E5EF9BF0FEEF9BF009B103EFD0
:103800009CF005EF9CF008EF9CF00C9F08EF9CF0FB
:10381000D890093309C104F1056B066B076B04C12D
:1038200007F1066B056B046B04510A1305510B136A
:1038300006510C1307510D130851D8B422EF9CF018
:1038400024EF9CF02EEF9CF003BF2BEF9CF029EFB0
:103850009CF02EEF9CF00D8F2EEF9CF00AC100F132
:103860000BC101F10CC102F10DC103F138EF9CF065
:1038700012000A6E0A50D8B440EF9CF042EF9CF060
:1038800064EF9CF005BE49EF9CF047EF9CF064EFBD
:103890009CF002C006F003C007F004C008F005C0A9
:1038A00009F0061E071E081E091E062A000E072222
:1038B0000822092206C00CF007C00DF008C00EF067
:1038C00009C00FF06EEF9CF002C00CF003C00DF0C9
:1038D00004C00EF005C00FF06EEF9CF00250031014
:1038E00004100510D8A477EF9CF079EF9CF085EFD9
:1038F0009CF0000E026E000E036E000E046E000EB1
:10390000056E26EF9DF026EF9DF0960E0B6E91EF63
:103910009CF00B2AD8900F320E320D320C3291EF00
:103920009CF0000E0C14066E000E0D14076E000EB7
:103930000E14086EFE0E0F14096E065007100810C4
:103940000910D8A4A6EF9CF0A8EF9CF089EF9CF09A
:10395000B8EF9CF0B8EF9CF00B2A010E0C26000E7D
:103960000D220E220F22D8900F320E320D320C3261
:10397000000E0C14066E000E0D14076E000E0E14D1
:10398000086EFF0E0F14096E06500710081009107C
:10399000D8A4CDEF9CF0CFEF9CF0ACEF9CF0DBEF28
:1039A0009CF0DBEF9CF00B06D8900C360D360E36F3
:1039B0000F36DBEF9CF00EBEE0EF9CF0E2EF9CF0E8
:1039C000ECEF9CF0020E0B60E8EF9CF0EAEF9CF04D
:1039D000D3EF9CF0ECEF9CF00BB0F1EF9CF0F3EF29
:1039E0009CF0F6EF9CF00E9EF6EF9CF0D8900B3218
:1039F0000BC006F0076A086A096A06C009F0086A7F
:103A0000076A066A06500C1207500D1208500E1273
:103A100009500F120A50D8B410EF9DF012EF9DF02C
:103A20001CEF9DF005BE19EF9DF017EF9DF01CEF08
:103A30009DF00F8E1CEF9DF00CC002F00DC003F046
:103A40000EC004F00FC005F026EF9DF01200000E2E
:103A5000CE6E000ECF6E4AC100F14BC101F18AEC6F
:103A6000A4F033EF9DF081A238EF9DF03AEF9DF086
:103A700033EF9DF0CD803DEF9DF081B242EF9DF0A0
:103A800044EF9DF03DEF9DF0CD90CF5001014D6F83
:103A90004C6BCE504E6F4F6B4C514E11526F4D517F
:103AA0004F11536F000E2B6F000E2C6F000E2D6FF9
:103AB000400E2E6F890E126FD20E136FDE0E146F32
:103AC0003C0E156F52C100F153C101F1000E01BF50
:103AD000FF0E026F036F010E49EC9BF000C10EF167
:103AE00001C10FF102C110F103C111F10FEC90F00F
:103AF0000EC127F10FC128F110C129F111C12AF11E
:103B00007EEC94F027C140F128C141F129C142F176
:103B10002AC143F176EC9FF040C1C6F141C1C7F123
:103B2000AE0E01012B6F470E2C6FEB0E2D6F420E68
:103B30002E6F52C100F153C101F1000E01BFFF0E03
:103B4000026F036F010E49EC9BF000C127F101C128
:103B500028F102C129F103C12AF17EEC94F027C1BA
:103B600040F128C141F129C142F12AC143F176EC6B
:103B70009FF040C152F141C153F1010E01015225A4
:103B8000526F000E5321536F53BFD0EF9DF053512E
:103B900009E1020E525DD8A0D0EF9DF0D2EF9DF06A
:103BA000E6EF9DF053BFE0EF9DF0910E525D010EE8
:103BB0005359D8B0DEEF9DF0E0EF9DF0E6EF9DF0B9
:103BC00052C150F153C151F1ECEF9DF0000E516F15
:103BD000000E506FECEF9DF050C14AF151C14BF116
:103BE000F2EF9DF01200000E01014B6F010E4A6FC3
:103BF00027EC9DF04AC1C2F14BC1C3F10101C3BF23
:103C00000DEF9EF0C35107E1050EC25DD8B00BEF7A
:103C10009EF00DEF9EF035EF9EF0000E0B6F010E43
:103C20000A6F1AECA2F022EF9EF0000E01014B6F1A
:103C3000010E4A6F27EC9DF04AC1C2F14BC1C3F19E
:103C400022EF9EF00101C3BF2FEF9EF0C35109E1A7
:103C5000050EC25DD8A02FEF9EF031EF9EF015EF5C
:103C60009EF035EF9EF035EF9EF0000EA16F010E35
:103C7000A06F9FEC98F0A0C1C4F1A1C1C5F10101F2
:103C8000C5BF4EEF9EF0C55107E13C0EC45DD8B0F4
:103C90004CEF9EF04EEF9EF0A7EF9EF0000E016FEE
:103CA000010E006F1CECA6F0000E01010B6F020E5E
:103CB0000A6F1AECA2F094EF9EF0000E0101A16FC2
:103CC000010EA06F9FEC98F0A0C1C4F1A1C1C5F195
:103CD000000E01010B6F010E0A6FE6ECA5F0000E5D
:103CE0000101046F010E036F000E066F000E056FD9
:103CF000A1ECA3F0C4C10AF1C5C10BF1B7EC9EF071
:103D0000000E0101046F010E036F000E066F040E1A
:103D1000056FA1ECA3F0D10E0101046FFF0E056F3A
:103D200011ECA3F094EF9EF00101C5BFA1EF9EF04E
:103D3000C55109E13C0EC45DD8A0A1EF9EF0A3EFF0
:103D40009EF05DEF9EF0A7EF9EF0A7EF9EF0000EB5
:103D5000016F000E006F1CECA6F0000E01010B6F4E
:103D6000000E0A6F1AECA2F00BECA6F01200000E87
:103D700001010D6F000E0C6F000E136F000E126F1D
:103D8000270E156F100E146F000E176F000E166FB2
:103D9000000E0F6F000E0E6F000E0A150C6F800ED6
:103DA0000B150D6F0C510D11D8B4D9EF9EF0DBEF50
:103DB0009EF0E9EF9EF0FF0E0A1BFF0E0B1B0A4B55
:103DC0000B2BFD0E046FFF0E056F11ECA3F0E9EF56
:103DD0009EF0000E0101136F000E126F13BFFAEF79
:103DE0009EF0135109E1050E125DD8A0FAEF9EF086
:103DF000FCEF9EF000EF9FF075EF9FF075EF9FF0E6
:103E0000000E176F000E166F0AC100F10BC101F111
:103E100014C102F115C103F19AECA2F000C116F130
:103E200001C117F114C100F115C101F116C102F170
:103E300017C103F1D0ECA5F00101001F011F004BD9
:103E4000012B0A5100250A6F0B5101210B6F14C180
:103E500000F115C101F1000E036F0A0E026F9AEC1A
:103E6000A2F000C114F101C115F1010117BF43EF28
:103E70009FF0175106E11605D8B041EF9FF043EFD0
:103E80009FF04EEF9FF00E510F11D8B44AEF9FF004
:103E90004CEF9FF062EF9FF04EEF9FF0000E0F6F20
:103EA000010E0E6F300E1627000E172316C110F1EB
:103EB000000E116F100E046F010E056F11ECA3F0D0
:103EC00062EF9FF00101124B132B13BF71EF9FF0B4
:103ED000135109E1050E125DD8A071EF9FF073EF49
:103EE0009FF000EF9FF075EF9FF012000101423547
:103EF0004335496F4951D8A480EF9FF082EF9FF07E
:103F00008EEF9FF0000E406F000E416F000E426F6B
:103F1000000E436F1FEFA0F01FEFA0F040C144F16F
:103F200041C145F142C146F143C147F1200E9EEF28
:103F30009FF0D8904733463345334433E82E99EF0A
:103F40009FF04451486F428FFF0E4017FF0E4117FC
:103F5000FF0E4217000E4317960E495F49BFB5EF9B
:103F60009FF0B3EF9FF0D9EF9FF04951800A970F70
:103F7000D8B0BDEF9FF0BFEF9FF0CDEF9FF0000EE8
:103F8000406F000E416F000E426F000E436F1FEF37
:103F9000A0F01FEFA0F0CDEF9FF0D8904333423355
:103FA00041334033493FCDEF9FF003EFA0F003EFE3
:103FB000A0F01F0E4965DFEF9FF0E1EF9FF0F7EFF4
:103FC0009FF0000E406F000E416F000E426F000E1A
:103FD000436F1FEFA0F01FEFA0F0F7EF9FF0D89016
:103FE00040374137423743374907F7EF9FF0495190
:103FF000D8A4FDEF9FF0FFEF9FF0EFEF9FF003EFEE
:10400000A0F003EFA0F04851D8B409EFA0F00BEFF7
:10401000A0F015EFA0F0431F421F411F406D000E9E
:1040200041234223432315EFA0F040C140F141C199
:1040300041F142C142F143C143F11FEFA0F0120030
:104040008CECA6F0F3EC9DF0000E0001EA6F010E7F
:10405000E96FA4EFA0F0A4EFA0F0000E01010B6F38
:10406000010E0A6F72ECA1F00001EE513EECA6F0D9
:104070003CEFA0F03CEFA0F00001EE51E319D8A412
:1040800044EFA0F046EFA0F03CEFA0F048EFA0F026
:10409000000EEA6F020EE96FA4EFA0F0000E01011E
:1040A0000B6F020E0A6F72ECA1F092EC8DF0000122
:1040B000E26F68EFA0F0000E01010B6F030E0A6FB4
:1040C0001AECA2F092EC8DF00001E26F68EFA0F024
:1040D000310EE219D8A46FEFA0F071EFA0F05BEF02
:1040E000A0F0320EE219D8A478EFA0F07AEFA0F099
:1040F0005BEFA0F07CEFA0F0310EE219D8A483EFC3
:10410000A0F085EFA0F08BEFA0F0000EEA6F040E98
:10411000E96FA4EFA0F0320EE219D8A492EFA0F05C
:1041200094EFA0F0A4EFA0F0000EEA6F030EE96F89
:10413000A4EFA0F0A4EFA0F0A4EFA0F0A4EFA0F0F3
:10414000A4EFA0F0A4EFA0F0E9C0ACF1EAC0ADF19B
:104150000101AD51000AD8B4B0EFA0F0A4EFA0F077
:10416000AC51010AD8B42DEFA0F0030AD8B44EEF39
:10417000A0F0010AD8B4A4EFA0F0070AD8B4A4EFC5
:10418000A0F0A4EFA0F0A4EFA0F0A4EFA0F04DEFFA
:1041900000F0043405340B6E0B50D8A4D2EFA0F01D
:1041A000D4EFA0F0E0EFA0F0000E026E000E036E60
:1041B000000E046E000E056E71EFA1F071EFA1F01C
:1041C00002C006F003C007F004C008F005C009F003
:1041D000200EF0EFA0F0D8900932083207320632F4
:1041E000E82EEBEFA0F006500A6E048EFF0E0216CA
:1041F000FF0E0316FF0E0416000E0516960E0B5E3C
:104200000BBE07EFA1F005EFA1F02BEFA1F00B50D3
:10421000800A970FD8B00FEFA1F011EFA1F01FEFB8
:10422000A1F0000E026E000E036E000E046E000E72
:10423000056E71EFA1F071EFA1F01FEFA1F0D89022
:1042400005320432033202320B3E1FEFA1F055EF6C
:10425000A1F055EFA1F01F0E0B6431EFA1F033EF89
:10426000A1F049EFA1F0000E026E000E036E000EE9
:10427000046E000E056E71EFA1F071EFA1F049EF31
:10428000A1F0D89002360336043605360B0649EF06
:10429000A1F00B50D8A44FEFA1F051EFA1F041EFE6
:1042A000A1F055EFA1F055EFA1F00A50D8B45BEFA3
:1042B000A1F05DEFA1F067EFA1F0051E041E031E43
:1042C000026C000E03220422052267EFA1F002C057
:1042D00002F003C003F004C004F005C005F071EF64
:1042E000A1F0120001010A050B11D8A47AEFA1F088
:1042F0007CEFA1F0A4EFA1F0A0ECA5F0000E01016D
:10430000046F000E036F000E066F000E056FA1EC28
:10431000A3F08E0E0101046FFF0E056F11ECA3F0E8
:10432000000E0101046F010E036F000E066F000EF8
:10433000056FA1ECA3F0680E0101046FFF0E056F7D
:1043400011ECA3F0A4EFA1F0020E01010A190B1168
:10435000D8A4ADEFA1F0AFEFA1F0D7EFA1F0A0ECA2
:10436000A5F0000E0101046F000E036F000E066F32
:10437000000E056FA1ECA3F0510E0101046FFF0EBA
:10438000056F11ECA3F0000E0101046F010E036F25
:10439000000E066F000E056FA1ECA3F03A0E0101AE
:1043A000046FFF0E056F11ECA3F0D7EFA1F0030E21
:1043B00001010A190B11D8A4E0EFA1F0E2EFA1F07E
:1043C000F8EFA1F0A0ECA5F0000E0101046F000EC3
:1043D000036F000E066F000E056FA1ECA3F0B70E81
:1043E0000101046FFF0E056F11ECA3F0F8EFA1F0CF
:1043F000040E01010A190B11D8A401EFA2F003EF7A
:10440000A2F019EFA2F0A0ECA5F0000E0101046FDC
:10441000000E036F000E066F000E056FA1ECA3F0F7
:10442000AA0E0101046FFF0E056F11ECA3F019EF46
:10443000A2F0120001010A510B11D8A422EFA2F040
:1044400024EFA2F03AEFA2F0A0ECA5F0000E0101DB
:10445000046F000E036F000E066F000E056FA1ECD7
:10446000A3F09C0E0101046FFF0E056F11ECA3F089
:104470003AEFA2F001010A050B11D8A442EFA2F015
:1044800044EFA2F05AEFA2F0A0ECA5F0000E01015B
:10449000046F000E036F000E066F000E056FA1EC97
:1044A000A3F0DE0E0101046FFF0E056F11ECA3F007
:1044B0005AEFA2F0020E01010A190B11D8A463EF02
:1044C000A2F065EFA2F07BEFA2F0A0ECA5F0000E49
:1044D0000101046F000E036F000E066F000E056FE2
:1044E000A1ECA3F0C40E0101046FFF0E056F11ECE7
:1044F000A3F07BEFA2F0030E01010A190B11D8A45F
:1045000084EFA2F086EFA2F099EFA2F0000E046F04
:10451000020E036F000E066F000E056FA1ECA3F0F4
:104520007D0E0101046FFF0E056F11ECA3F099EFF2
:10453000A2F01200000E0101056F03BFA4EFA2F06C
:10454000A2EFA2F0ACEFA2F0026D031FD8B0032BD4
:10455000010E056FACEFA2F001BFB3EFA2F0B1EF17
:10456000A2F0BBEFA2F0006D011FD8B0012B010E2D
:10457000051BBBEFA2F0000E076F000E066F025185
:104580000311D8B4C6EFA2F0C8EFA2F0FCEFA2F07E
:10459000010E046FD2EFA2F0D89002370337042B3C
:1045A000D2EFA2F003AFD7EFA2F0D9EFA2F0CCEF99
:1045B000A2F0DDEFA2F0DDEFA2F0D89006370737CA
:1045C0000251005D03510159D8A0E9EFA2F0EBEFD1
:1045D000A2F0F2EFA2F00251005F0351015B0681ED
:1045E000F2EFA2F0D89003330233042FDDEFA2F0F4
:1045F000FCEFA2F0FCEFA2F00551D8B402EFA3F05B
:1046000004EFA3F00AEFA3F0066D071FD8B0072B45
:104610000AEFA3F006C100F107C101F110EFA3F00A
:104620001200000E0101096F000E086F37EFA3F0B2
:10463000010108510425066F09510521076F06C1C4
:10464000F6FF07C1F7FF000EF86E0D0EF76403D0FA
:104650000800F55005D0F6CFE9FFF7CFEAFFEF509D
:10466000D8ECA4F00101084B092B37EFA3F0085157
:104670000425066F09510521076F06C1F6FF07C122
:10468000F7FF000EF86E0D0EF76403D00800F5502A
:1046900005D0F6CFE9FFF7CFEAFFEF500009D8A425
:1046A00054EFA3F056EFA3F018EFA3F058EFA3F0E8
:1046B0001200016EABB45FEFA3F061EFA3F068EFFF
:1046C000A3F0ABA266EFA3F068EFA3F06EEFA3F048
:1046D000AB98650EA0EFA3F0A0EFA3F00001EE51A0
:1046E0000118D8A476EFA3F078EFA3F07DEFA3F044
:1046F000EE51A0EFA3F0A0EFA3F0630E0118D8A431
:1047000084EFA3F086EFA3F08BEFA3F0630EA0EF8E
:10471000A3F0A0EFA3F0660E0118D8A492EFA3F0C7
:1047200094EFA3F09BEFA3F0660EA0EFA3F0A0EF31
:10473000A3F0A0EFA3F00150A0EFA3F0A0EFA3F02F
:10474000120001010351140DF3500525076F04BF3A
:10475000B3EFA3F0045109E1020E035DD8A0B3EF5B
:10476000A3F0B5EFA3F0B9EFA3F0180E0727B9EF48
:10477000A3F007510AECA4F00101076FC2EFA3F008
:10478000C2EFA3F02DECA6F00009D8A4CAEFA3F065
:10479000CCEFA3F0C2EFA3F08C96F80E4EECA6F08F
:1047A00001010751F00B4EECA6F001010739F00BA7
:1047B00010094EECA6F012000101046F03C105F1CF
:1047C0000101D890053702510527D89005370451CB
:1047D0000527D8900537052B053BF00E0517F3EF9D
:1047E000A3F0F3EFA3F02DECA6F00009D8A4FBEFA3
:1047F000A3F0FDEFA3F0F3EFA3F08C96F80E4EECD0
:10480000A6F0010105514EECA6F0000E4EECA6F00C
:104810008C8612000101026F02C100F10F0E01012E
:104820000017003BF00E001702390F0B0F0B0011A1
:10483000026F02C100F1330E0017D8900037D890F4
:1048400000370241E8423F0B330B0011026F02C1F7
:1048500000F1550E0017D8900035016FD890023145
:10486000550B0111026F025136EFA4F01200000E39
:104870000101016F000E006F01BF48EFA4F0100EA0
:10488000005D270E0159D8A048EFA4F04AEFA4F02C
:104890004EEFA4F060EFA4F060EFA4F0004B012B0A
:1048A00001BF5CEFA4F0100E005D270E0159D8A0E7
:1048B0005CEFA4F05EEFA4F04EEFA4F060EFA4F084
:1048C0001200000E036E000E026E03BE71EFA4F024
:1048D000100E025C270E0358D8A071EFA4F073EFFE
:1048E000A4F077EFA4F089EFA4F089EFA4F0024AD6
:1048F000032A03BE85EFA4F0100E025C270E0358B6
:10490000D8A085EFA4F087EFA4F077EFA4F089EFAB
:10491000A4F01200010100050111D8A492EFA4F047
:1049200094EFA4F09CEFA4F08380060EE82EFED74F
:1049300000D08390B1EFA4F0020E01010019011123
:10494000D8A4A5EFA4F0A7EFA4F0B1EFA4F0838260
:10495000060EE82EFED700D08392B1EFA4F0B1EF9F
:10496000A4F01200D3507009D36E95989594959643
:10497000958294908C8600F0560E0101006FB50E62
:10498000E82EFED7002FFCD700D0560E0101006F95
:10499000B50EE82EFED7002FFCD700D0560E010131
:1049A000006FB50EE82EFED7002FFCD700D0120006
:1049B0000101036F010103510AECA4F00101036F2F
:1049C000E4EFA4F0E4EFA4F02DECA6F00009D8A4E5
:1049D000ECEFA4F0EEEFA4F0E4EFA4F08C96FA0E66
:1049E0004EECA6F001010351F00B4EECA6F00101D4
:1049F0000339F00B4EECA6F08C8612004A0EF66ED0
:104A00004D0EF76E010EF86E00EEE5F010EE0AF0B6
:104A10000900F5CFEEFFE550E150FAE101EEAEF00E
:104A2000220EEE6AE806FDE100EEAEF0370EEE6A09
:104A3000E806FDE15D6A5E905E92000120EFA0F065
:104A400001010051011102110311D8B42AEFA5F0A0
:104A50002CEFA5F036EFA5F0000E001B000E011B99
:104A6000000E021B800E031B36EFA5F000C100F103
:104A700001C101F102C102F103C103F140EFA5F050
:104A80001200AAECA6F0330E0F01306F669C0E01E7
:104A90002A51F00B06092A6F1F51F00B01091F6FF5
:104AA0006788678AAC9CAC8AAC98AC96AC84AC90B6
:104AB000AB8EAB9CAB88D08EF28EF28C9D8A9D988B
:104AC00012000250031004100510D8B46AEFA5F0CC
:104AD0006CEFA5F076EFA5F0000E021A000E031A97
:104AE000000E041A800E051A76EFA5F002C002F03F
:104AF00003C003F004C004F005C005F080EFA5F08A
:104B0000120005BE8FEFA5F0055007E13C0E045CD6
:104B1000D8B08DEFA5F08FEFA5F097EFA5F0000EC0
:104B2000036E010E026E5EECA6F09FEFA5F0000E84
:104B3000036E000E026E5EECA6F09FEFA5F0120071
:104B4000A4EFA5F0A4EFA5F02DECA6F00009D8A4E1
:104B5000ACEFA5F0AEEFA5F0A4EFA5F08C96F80EA3
:104B60004EECA6F0800E4EECA6F0000E4EECA6F039
:104B70008C8612000E011E85F40E1E17050E1D13E5
:104B8000F50E1D17500E30135F0E3017F10E0F018A
:104B90001917310E19131A8F1A9D8F0E391712001B
:104BA000010100510203F3CF04F1F4CF05F10051EC
:104BB0000303F350052701510203F350052704C1F5
:104BC00000F105C101F1E5EFA5F012000AC103F102
:104BD0000BC104F1000E0101066F000E056FA1EC80
:104BE000A3F0E80E0101046FFF0E056F11ECA3F0B6
:104BF0001200FBEFA5F09EAA00EFA6F002EFA6F0D0
:104C0000FBEFA5F0AECF5DF05D5059ECA3F00001D5
:104C1000E36F5E921100F28AF194D08ED58CD5505C
:104C2000CF0B1009D56ED596D550F80B0309D56E6C
:104C3000D58E0C0ED66E1200010100050111D8A40C
:104C400024EFA6F026EFA6F029EFA6F0838A2CEF3A
:104C5000A6F0839A2CEFA6F012008C96FC0E4EEC78
:104C6000A6F0000E4EECA6F00101016F8C8600D07C
:104C700001010151010B3DEFA6F012000101006F8F
:104C800042EFA6F0ACA247EFA6F049EFA6F042EF44
:104C9000A6F04BEFA6F000C1ADFF12000101006FBE
:104CA00000C103FF54EFA6F00F011AA15AEFA6F0BE
:104CB0005CEFA6F054EFA6F00351120002040310BB
:104CC000D8A465EFA6F067EFA6F06AEFA6F0838A96
:104CD0006DEFA6F0839A6DEFA6F01200B2ECA4F08F
:104CE000BAECA5F0A0ECA5F0010E0101026F000ED8
:104CF000036F010EDCECA3F01200070ED36E000E62
:104D0000CF6E000ECE6E3F0ECD16CD98CD9A000E12
:104D1000CE6E000ECF6E120041ECA5F06EECA6F048
:104D20009EECA6F095ECA6F0120095909592F19E5F
:104D3000628293828C907DECA6F01200F00E966E4B
:104D40008480848284848486120001000300010030
:0C4D500045434941D380D382D384120034
:10FFF000A0F728F033F0FFF703FFFFFF1DF0F8F341
:00000001FF
