:020000040000FA
:0400000018EF00F005
:100008005D8207EF00F09EAA0CEF00F00EEF00F003
:1000180007EF00F0AECFDBF00001DB51BBEC1AF0CC
:0C0028000001DA6F5D92110092EF1CF0F5
:100E0000004E69636F20657374206672616E636162
:100E100069734F7574206F662052616E676544690F
:100E20007374616E6365203D2000000000000000C7
:100E3000000000269E783EEEE9913E13CECC3EAAFD
:100E4000AA2A3FD1F717378071313F20636D422DB9
:100E500020566572696620636170746575722064DE
:100E600069737400432D205265746F75726E6572DC
:100E7000206175206D656E7500412D205665726983
:100E80006620746F756368657300000000312D5033
:100E90006F7572207072656C657665722064697317
:100EA00074507265702074656D70206561754D6158
:100EB0006E7175652065617520202020202020201E
:100EC000202020202020202020202020002D000075
:100ED000B4C09CF0B5C09DF0B6C09EF0B7C09FF006
:100EE00056C09CF057C09DF058C09EF059C09FF06E
:100EF0009CC0A4F09DC0A5F09EC0A6F09FC0A7F026
:100F0000000E0001836F000E826FA75109E1800E71
:100F1000A65DD8A08EEF07F090EF07F0B0EF07F0D6
:100F2000A4C060F0A5C061F0A6C062F0A7C063F0E5
:100F3000200EA0EF07F0D890633362336133603343
:100F4000E82E9BEF07F06051611162116311D8B474
:100F5000ACEF07F0AEEF07F07EEF08F0B0EF07F070
:100F6000D890A435606FA535616FA635626FA7353F
:100F7000636F6051611162116311D8A4C2EF07F071
:100F8000C4EF07F0F4EF07F0000E296E000E2A6E92
:100F9000800E2B6EBF0E2C6E56C014F057C015F08D
:100FA00058C016F059C017F056C010F057C011F0D5
:100FB00058C012F059C013F07EEC10F010C02DF0A4
:100FC00011C02EF012C02FF013C030F0B5EC12F0AB
:100FD00029C056F02AC057F02BC058F02CC059F049
:100FE00060EF0BF060EF0BF0A4C060F0A5C061F003
:100FF000A6C062F0A7C063F0200E05EF08F0000164
:10100000D8906333623361336033E82EFFEF07F02B
:101010006051611162116311D8B411EF08F013EF40
:1010200008F04DEF08F056C046F057C047F058C0E2
:1010300048F059C049F056C002F057C003F058C0FC
:1010400004F059C005F017EC1DF002C042F003C0D7
:1010500043F004C044F005C045F061EC0BF042C021
:1010600029F043C02AF044C02BF045C02CF0000EFC
:101070002D6E000E2E6E000E2F6E000E306EB5EC33
:1010800012F029C056F02AC057F02BC058F02CC0DF
:1010900059F060EF0BF060EF0BF00001E70E8227D4
:1010A000FF0E832356C010F057C011F058C012F045
:1010B00059C013F0000E146E000E156E000E166E61
:1010C0004C0E176E7EEC10F010C056F011C057F0A9
:1010D00012C058F013C059F056C09CF057C09DF094
:1010E00058C09EF059C09FF09CC0A4F09DC0A5F0D0
:1010F0009EC0A6F09FC0A7F0B4EF08F0800E0001DC
:10110000A65D7F0EA759D8A088EF08F08AEF08F0F7
:1011100096EF08F056C056F057C057F058C058F038
:1011200059C059F060EF0BF0B4EF08F0800EA6192B
:1011300009E13F0EA719A411A511D8A4A2EF08F048
:10114000A4EF08F0B4EF08F0000E566E000E576ED4
:10115000000E586E000E596E60EF0BF060EF0BF052
:10116000B4EF08F0B4EF08F00D0E0001A427FB0E59
:10117000A5234A0EA623000EA723810E606FFF0E43
:10118000616FA4C062F0A5C063F0A6C064F0A7C000
:1011900065F0180ED1EF08F0D890653364336333EF
:1011A0006233E82ECCEF08F060516227615163236F
:1011B0006251822763518323FF0EA415606FFF0ED7
:1011C000A515616F7F0EA615626F000EA715636FE0
:1011D000F30E6025A46F040E6121A56F350E622108
:1011E000A66F3F0E6321A76FA4C09CF0A5C09DF021
:1011F000A6C09EF0A7C09FF09CC056F09DC057F0BF
:101200009EC058F09FC059F056C042F057C043F0FE
:1012100058C044F059C045F0000E466E000E476EAF
:10122000800E486EBF0E496E61EC0BF042C0A0F01C
:1012300043C0A1F044C0A2F045C0A3F0A0C029F073
:10124000A1C02AF0A2C02BF0A3C02CF0000E466E65
:10125000000E476E000E486E400E496EA0C042F070
:10126000A1C043F0A2C044F0A3C045F061EC0BF074
:1012700042C02DF043C02EF044C02FF045C030F0E6
:10128000B5EC12F029C08CF02AC08DF02BC08EF086
:101290002CC08FF08CC010F08DC011F08EC012F0F9
:1012A0008FC013F08CC014F08DC015F08EC016F0F6
:1012B0008FC017F07EEC10F010C090F011C091F0CC
:1012C00012C092F013C093F090C010F091C011F0D2
:1012D00092C012F093C013F090C014F091C015F0BA
:1012E00092C016F093C017F07EEC10F010C094F08E
:1012F00011C095F012C096F013C097F03B0EF66E39
:101300000E0EF76E0900F5CF46F00900F5CF47F055
:101310000900F5CF48F00A00F5CF49F0330EF66E1C
:101320000E0EF76E0900F5CF14F00900F5CF15F099
:101330000900F5CF16F00A00F5CF17F094C010F0B1
:1013400095C011F096C012F097C013F07EEC10F02B
:1013500010C042F011C043F012C044F013C045F079
:1013600061EC0BF042C098F043C099F044C09AF091
:1013700045C09BF098C010F099C011F09AC012F0CF
:101380009BC013F094C014F095C015F096C016F0F1
:1013900097C017F07EEC10F010C06AF011C06BF02F
:1013A00012C06CF013C06DF03F0EF66E0E0EF76EAD
:1013B0000900F5CF46F00900F5CF47F00900F5CF59
:1013C00048F00A00F5CF49F0370EF66E0E0EF76EB4
:1013D0000900F5CF14F00900F5CF15F00900F5CF9D
:1013E00016F00A00F5CF17F094C010F095C011F078
:1013F00096C012F097C013F07EEC10F010C042F0CF
:1014000011C043F012C044F013C045F061EC0BF082
:1014100042C098F043C099F044C09AF045C09BF098
:1014200098C010F099C011F09AC012F09BC013F050
:1014300090C014F091C015F092C016F093C017F050
:101440007EEC10F010C06EF011C06FF012C070F0A2
:1014500013C071F06EC042F06FC043F070C044F032
:1014600071C045F06AC046F06BC047F06CC048F0F0
:101470006DC049F061EC0BF042C066F043C067F00C
:1014800044C068F045C069F0000E146E000E156E81
:10149000000E166E3F0E176EA0C010F0A1C011F026
:1014A000A2C012F0A3C013F07EEC10F010C098F0B0
:1014B00011C099F012C09AF013C09BF098C010F0C0
:1014C00099C011F09AC012F09BC013F0A0C014F0A4
:1014D000A1C015F0A2C016F0A3C017F07EEC10F06A
:1014E00010C084F011C085F012C086F013C087F0E0
:1014F00082C002F083C003F0000E03BEFF0E046E34
:10150000056E010E15EC16F002C088F003C089F0DC
:1015100004C08AF005C08BF08CC014F08DC015F0AB
:101520008EC016F08FC017F066C046F067C047F057
:1015300068C048F069C049F084C042F085C043F0FB
:1015400086C044F087C045F061EC0BF042C010F05B
:1015500043C011F044C012F045C013F07EEC10F00F
:1015600010C072F011C073F012C074F013C075F0A7
:10157000430EF66E0E0EF76E0900F5CF14F009005B
:10158000F5CF15F00900F5CF16F00A00F5CF17F0EA
:1015900088C010F089C011F08AC012F08BC013F01F
:1015A0007EEC10F010C046F011C047F012C048F0B9
:1015B00013C049F072C042F073C043F074C044F0ED
:1015C00075C045F061EC0BF042C076F043C077F097
:1015D00044C078F045C079F084C002F085C003F0C3
:1015E00086C004F087C005F017EC1DF002C046F07D
:1015F00003C047F004C048F005C049F076C042F08F
:1016000077C043F078C044F079C045F061EC0BF04E
:1016100042C07AF043C07BF044C07CF045C07DF00E
:10162000A0C046F0A1C047F0A2C048F0A3C049F056
:101630007AC042F07BC043F07CC044F07DC045F0EE
:1016400061EC0BF042C07EF043C07FF044C080F0FC
:1016500045C081F07EC042F07FC043F080C044F0BE
:1016600081C045F0470EF66E0E0EF76E0900F5CFFD
:1016700014F00900F5CF15F00900F5CF16F00A00B7
:10168000F5CF17F088C010F089C011F08AC012F0B1
:101690008BC013F07EEC10F010C046F011C047F084
:1016A00012C048F013C049F061EC0BF042C056F094
:1016B00043C057F044C058F045C059F060EF0BF0FC
:1016C00012004550800B526E45504524546E44AE76
:1016D0006CEF0BF06EEF0BF071EF0BF0548071EFCD
:1016E0000BF05450D8B477EF0BF079EF0BF090EF8C
:1016F0000BF05428D8A47FEF0BF081EF0BF08BEFA9
:101700000BF0000E426E000E436E000E446E000E93
:10171000456E8BEF0BF0448E000E456E9AEF0BF08A
:10172000000E426E000E436E000E446E000E456EBB
:101730009AEF0BF04950800B536E52505318D8B4A7
:10174000A4EF0BF0A6EF0BF0A9EF0BF0528CA9EF72
:101750000BF049504924536E48AEB1EF0BF0B3EF94
:101760000BF0B6EF0BF05380B6EF0BF05350D8B43C
:10177000BCEF0BF0BEEF0BF0D5EF0BF05328D8A465
:10178000C4EF0BF0C6EF0BF0D0EF0BF0000E466E7F
:10179000000E476E000E486E000E496ED0EF0BF043
:1017A000488E000E496EDFEF0BF0000E466E000E05
:1017B000476E000E486E000E496EDFEF0BF054507E
:1017C000535CD8B0E6EF0BF0E8EF0BF013EF0CF042
:1017D00052ACEDEF0BF0EFEF0BF0F3EF0BF0800EF0
:1017E000521AF3EF0BF054C055F053C054F055C0EB
:1017F00053F042C055F046C042F055C046F043C0D9
:1018000055F047C043F055C047F044C055F048C0BC
:1018100044F055C048F045C055F049C045F055C0AA
:1018200049F013EF0CF0000E556E54504A6E4B6A9F
:101830004A1E4B1E4A4A4B2A53504C6E4D6A4A5020
:101840004C264B504D224DBE2FEF0CF04D5009E170
:101850001A0E4C5CD8A02FEF0CF031EF0CF06EEFAD
:101860000CF04250431044104510D8A43AEF0CF04D
:101870003DEF0CF0010E3EEF0CF0000E556E000E29
:10188000426E000E436E000E446E000E456E53C055
:1018900054F079EF0CF06EEF0CF055A052EF0CF015
:1018A00054EF0CF05AEF0CF0D89055300109556EFA
:1018B0005EEF0CF0D89055325EEF0CF042A063EF73
:1018C0000CF065EF0CF068EF0CF0558E68EF0CF043
:1018D00045344532443243324232542A5350545CE8
:1018E000D8A075EF0CF077EF0CF04DEF0CF079EF1E
:1018F0000CF052BC7EEF0CF080EF0CF0C8EF0CF057
:101900005450D8A486EF0CF088EF0CF094EF0CF054
:10191000000E426E000E436E000E446E000E456EC9
:1019200022EF0EF022EF0EF046504226475043229F
:10193000485044224950452245A0A1EF0CF0A3EFA6
:101940000CF078EF0DF055A0A8EF0CF0AAEF0CF01A
:10195000B0EF0CF0D89055300109556EB4EF0CF093
:10196000D8905532B4EF0CF042A0B9EF0CF0BBEFB9
:101970000CF0BEEF0CF0558EBEEF0CF04534453246
:10198000443243324232542A78EF0DF078EF0DF0B2
:101990004650425C47504358485044584550800A8E
:1019A0004A6E4950800A4A58D8B0D9EF0CF0DBEFA4
:1019B0000CF019EF0DF042C04AF043C04BF044C0A8
:1019C0004CF045C04DF04A1E4B1E4C1E4D1E4A2A7F
:1019D000000E4B224C224D2246504A244E6E475058
:1019E0004B204F6E48504C20506E49504D20516E48
:1019F000FF0E4E24426EFF0E4F20436EFF0E50200E
:101A0000446EFF0E5120456E800E521A556C555093
:101A1000D8A40DEF0DF00FEF0DF021EF0DF0010E3A
:101A20004226000E43224422452221EF0DF021EFF1
:101A30000DF04650425E4750435A4850445A495070
:101A4000455A4250431044104510D8A42AEF0DF0D7
:101A50002CEF0DF06DEF0DF05550D8A432EF0DF0D6
:101A600034EF0DF06DEF0DF0000E426E000E436E80
:101A7000000E446E000E456E22EF0EF022EF0EF0C7
:101A80006DEF0DF0D890423643364436453655AEAC
:101A90004CEF0DF04EEF0DF051EF0DF0428051EF95
:101AA0000DF055A056EF0DF058EF0DF05CEF0DF076
:101AB000D880553660EF0DF0D890553660EF0DF0B8
:101AC0005450D8B466EF0DF068EF0DF06DEF0DF0E7
:101AD00054066DEF0DF06DEF0DF044AE72EF0DF0AA
:101AE00074EF0DF042EF0DF078EF0DF078EF0DF0A0
:101AF000000E536E55AE7FEF0DF081EF0DF09DEFB0
:101B00000DF055C04AF07F0E4A16D8B48AEF0DF09A
:101B10008CEF0DF090EF0DF0010E536E9DEF0DF078
:101B200042A095EF0DF097EF0DF09DEF0DF0010E37
:101B3000536E9DEF0DF09DEF0DF05350D8B4A3EF11
:101B40000DF0A5EF0DF0D6EF0DF0010E4226000EC0
:101B500043224422452245A0B0EF0DF0B2EF0DF034
:101B6000D6EF0DF042C04AF043C04BF044C04CF0F9
:101B700045C04DF04D344D324C324B324A324AC0A2
:101B800042F04BC043F04CC044F04DC045F05428E7
:101B9000D8B4CDEF0DF0CFEF0DF0D6EF0DF0542A05
:101BA000D6EF0DF0D6EF0DF0D6EF0DF05428D8B4E7
:101BB000DCEF0DF0DEEF0DF0E8EF0DF05450D8A49F
:101BC000E4EF0DF0E6EF0DF0FEEF0DF0E8EF0DF0B5
:101BD000000E426E000E436E000E446E000E456E07
:101BE0005450D8A4F6EF0DF0F8EF0DF0FEEF0DF025
:101BF000000E526EFEEF0DF0FEEF0DF054A003EF5D
:101C00000EF005EF0EF008EF0EF0448E0BEF0EF025
:101C1000449E0BEF0EF0D8905430456E52AE13EF49
:101C20000EF015EF0EF018EF0EF0458E18EF0EF0D7
:101C300042C042F043C043F044C044F045C045F0C8
:101C400022EF0EF01200000E056E000E046E8D964F
:101C500084BE2DEF0EF02FEF0EF04CEF0EF0020EC3
:101C6000036E040E026EBA0EE82EFED7022EFCD7CB
:101C7000032EFAD700D084BE40EF0EF042EF0EF0F4
:101C80004CEF0EF0430E066E000E056E010E046E54
:101C90004CEF0EF04CEF0EF084BC51EF0EF053EF12
:101CA0000EF070EF0EF0020E036E040E026EBA0E0E
:101CB000E82EFED7022EFCD7032EFAD700D084BC24
:101CC00064EF0EF066EF0EF070EF0EF0440E066E4D
:101CD000000E056E010E046E70EF0EF070EF0EF048
:101CE00084BA75EF0EF077EF0EF094EF0EF0020E5F
:101CF000036E040E026EBA0EE82EFED7022EFCD73B
:101D0000032EFAD700D084BA88EF0EF08AEF0EF0D7
:101D100094EF0EF0450E066E000E056E010E046E79
:101D200094EF0EF094EF0EF084B899EF0EF09BEF65
:101D30000EF0B8EF0EF0020E036E040E026EBA0E35
:101D4000E82EFED7022EFCD7032EFAD700D084B897
:101D5000ACEF0EF0AEEF0EF0B8EF0EF0460E066EE2
:101D6000000E056E010E046EB8EF0EF0B8EF0EF027
:101D70008D868D9484BEBFEF0EF0C1EF0EF0DEEFC6
:101D80000EF0020E036E040E026EBA0EE82EFED79F
:101D9000022EFCD7032EFAD700D084BED2EF0EF06D
:101DA000D4EF0EF0DEEF0EF0420E066E000E056E62
:101DB000010E046EDEEF0EF0DEEF0EF084BCE3EFFA
:101DC0000EF0E5EF0EF002EF0FF0020E036E040EC0
:101DD000026EBA0EE82EFED7022EFCD7032EFAD7DB
:101DE00000D084BCF6EF0EF0F8EF0EF002EF0FF02B
:101DF000390E066E000E056E010E046E02EF0FF036
:101E000002EF0FF084BA07EF0FF009EF0FF026EFA3
:101E10000FF0020E036E040E026EBA0EE82EFED70D
:101E2000022EFCD7032EFAD700D084BA1AEF0FF097
:101E30001CEF0FF026EF0FF0360E066E000E056E4B
:101E4000010E046E26EF0FF026EF0FF084B82BEF93
:101E50000FF02DEF0FF04AEF0FF0020E036E040E9D
:101E6000026EBA0EE82EFED7022EFCD7032EFAD74A
:101E700000D084B83EEF0FF040EF0FF04AEF0FF0C4
:101E8000330E066E000E056E010E046E4AEF0FF063
:101E90004AEF0FF08D848D9284BE51EF0FF053EF17
:101EA0000FF070EF0FF0020E036E040E026EBA0E0A
:101EB000E82EFED7022EFCD7032EFAD700D084BE20
:101EC00064EF0FF066EF0FF070EF0FF0300E066E5C
:101ED000000E056E010E046E70EF0FF070EF0FF044
:101EE00084BC75EF0FF077EF0FF094EF0FF0020E58
:101EF000036E040E026EBA0EE82EFED7022EFCD739
:101F0000032EFAD700D084BC88EF0FF08AEF0FF0D1
:101F100094EF0FF0380E066E000E056E010E046E83
:101F200094EF0FF094EF0FF084BA99EF0FF09BEF5E
:101F30000FF0B8EF0FF0020E036E040E026EBA0E31
:101F4000E82EFED7022EFCD7032EFAD700D084BA93
:101F5000ACEF0FF0AEEF0FF0B8EF0FF0350E066EEE
:101F6000000E056E010E046EB8EF0FF0B8EF0FF023
:101F700084B8BDEF0FF0BFEF0FF0DCEF0FF0020EF3
:101F8000036E040E026EBA0EE82EFED7022EFCD7A8
:101F9000032EFAD700D084B8D0EF0FF0D2EF0FF0B5
:101FA000DCEF0FF0320E066E000E056E010E046EB1
:101FB000DCEF0FF0DCEF0FF08D828D9084BEE3EF4D
:101FC0000FF0E5EF0FF002EF10F0020E036E040EBB
:101FD000026EBA0EE82EFED7022EFCD7032EFAD7D9
:101FE00000D084BEF6EF0FF0F8EF0FF002EF10F024
:101FF000410E066E000E056E010E046E02EF10F02B
:1020000002EF10F084BC07EF10F009EF10F026EF9C
:1020100010F0020E036E040E026EBA0EE82EFED70A
:10202000022EFCD7032EFAD700D084BC1AEF10F092
:102030001CEF10F026EF10F0370E066E000E056E46
:10204000010E046E26EF10F026EF10F084BA2BEF8D
:1020500010F02DEF10F04AEF10F0020E036E040E98
:10206000026EBA0EE82EFED7022EFCD7032EFAD748
:1020700000D084BA3EEF10F040EF10F04AEF10F0BD
:10208000340E066E000E056E010E046E4AEF10F05F
:102090004AEF10F084B84FEF10F051EF10F06EEFF0
:1020A00010F0020E036E040E026EBA0EE82EFED77A
:1020B000022EFCD7032EFAD700D084B862EF10F0BE
:1020C00064EF10F06EEF10F0310E066E000E056E2C
:1020D000010E046E6EEF10F06EEF10F08D80045064
:1020E0000510D8A476EF10F078EF10F07AEF10F02A
:1020F0007A0E066E06507DEF10F012001350800B22
:102100001C6E13501324226E12AE89EF10F08BEF69
:1021100010F08EEF10F022808EEF10F02250D8B425
:1021200094EF10F096EF10F0ABEF10F02228D8A447
:102130009CEF10F09EEF10F0A8EF10F0000E106E64
:10214000000E116E000E126E000E136EA8EF10F04E
:10215000128EB5EF10F0000E106E000E116E000E14
:10216000126E000E136EB5EF10F01750800B1C1A94
:1021700017501724216E16AEC0EF10F0C2EF10F00A
:10218000C5EF10F02180C5EF10F02150D8B4CBEF8F
:1021900010F0CDEF10F0E2EF10F02128D8A4D3EF2B
:1021A00010F0D5EF10F0DFEF10F0000E146E000EFF
:1021B000156E000E166E000E176EDFEF10F0168E05
:1021C000EAEF10F0000E146E000E156E000E166E83
:1021D000000E176E2150D8B4F0EF10F0F2EF10F0AF
:1021E000FCEF10F02250D8A4F8EF10F0FAEF10F046
:1021F00008EF11F0FCEF10F0000E106E000E116EE3
:10220000000E126E000E136EB4EF12F0B4EF12F067
:1022100016501002F3CF27F0F4CF28F027501D6E90
:102220001E6A1F6A206A2850236E246A256A266A5D
:1022300015501102F3CF27F0F4CF28F027501D26B8
:10224000000E1E221F22202228502326000E2422A8
:102250002522262214501202F3CF27F0F4CF28F0C3
:1022600027501D26000E1E221F2220222850232622
:10227000000E2422252226221FC020F01EC01FF09F
:102280001DC01EF01D6A14501102F3CF27F0F4CFC9
:1022900028F027501D2628501E22000E1F22000E57
:1022A000202215501002F3CF27F0F4CF28F027504A
:1022B0001D2628501E22000E1F22000E20221FC0A5
:1022C00020F01EC01FF01DC01EF01D6A1450100229
:1022D000F3CF27F0F4CF28F027501D2628501E22D8
:1022E000000E1F22000E202216501102F3CF27F0FD
:1022F000F4CF28F02750232628502422000E252230
:10230000000E262215501202F3CF27F0F4CF28F04A
:102310002750232628502422000E2522000E262294
:1023200016501202F3CF27F0F4CF28F02750186E82
:102330002850196E1A6A1B6A1AC01BF019C01AF0CD
:1023400018C019F0186A18502326195024221A5060
:1023500025221B5026221DC018F01EC019F01FC0D8
:102360001AF020C01BF0190EBBEF11F0D8901B32F1
:102370001A3219321832E82EB6EF11F0185023260F
:10238000195024221A5025221B5026221FC020F04B
:102390001EC01FF01DC01EF01D6A215022C018F083
:1023A000196A1826000E1922820E1824276EFF0EB5
:1023B0001920286EF3EF11F0D890233624362536F5
:1023C000263620AEE6EF11F0E8EF11F0E9EF11F05C
:1023D0002380D8901D361E361F3620362706D8A0FB
:1023E0002806F3EF11F025AEF8EF11F0FAEF11F037
:1023F000DCEF11F0FCEF11F0000E216E20AE03EFC8
:1024000012F005EF12F02DEF12F0FF0E1D14186EF2
:10241000FF0E1E14196EFF0E1F141A6E7F0E20146D
:102420001B6E185019101A101B10D8B41AEF12F0A6
:102430001CEF12F020EF12F0010E216E2DEF12F0C2
:1024400023A025EF12F027EF12F02DEF12F0010E6E
:10245000216E2DEF12F02DEF12F02150D8B433EF92
:1024600012F035EF12F05DEF12F0010E2326000E90
:1024700024222522262226A040EF12F042EF12F05D
:102480005DEF12F023C018F024C019F025C01AF037
:1024900026C01BF01B341B321A321932183218C0F6
:1024A00023F019C024F01AC025F01BC026F0274ADB
:1024B000282A5DEF12F05DEF12F028BE68EF12F0EF
:1024C000285008E12728D8A068EF12F06AEF12F030
:1024D00074EF12F0000E236E000E246E800E256E37
:1024E0007F0E266EA8EF12F028BE81EF12F0285062
:1024F00006E12704D8B07FEF12F081EF12F08DEFE4
:1025000012F0000E236E000E246E000E256E000EDB
:10251000266E000E1C6EA8EF12F027C022F0FF0EF0
:102520002316FF0E24167F0E2516000E261622A057
:102530009CEF12F09EEF12F0A1EF12F0258EA1EFAA
:1025400012F0D8902230266EA8EF12F0A8EF12F009
:102550001C50261223C010F024C011F025C012F028
:1025600026C013F0B4EF12F012002C50800B396E1D
:102570002C502C24406E2BAEC0EF12F0C2EF12F0A4
:10258000C5EF12F04080C5EF12F04050D8B4CBEF49
:1025900012F0CDEF12F0E4EF12F04028D8A4D3EF00
:1025A00012F0D5EF12F0DFEF12F0000E296E000EE0
:1025B0002A6E000E2B6E000E2C6EDFEF12F02B8EAB
:1025C000000E2C6EEEEF12F0000E296E000E2A6E39
:1025D000000E2B6E000E2C6EEEEF12F03050800BC2
:1025E000391A30503024416E2FAEF9EF12F0FBEF64
:1025F00012F0FEEF12F04180FEEF12F04150D8B41D
:1026000004EF13F006EF13F01DEF13F04128D8A4E8
:102610000CEF13F00EEF13F018EF13F0000E2D6E09
:10262000000E2E6E000E2F6E000E306E18EF13F09F
:102630002F8E000E306E27EF13F0000E2D6E000E61
:102640002E6E000E2F6E000E306E27EF13F02D5001
:102650002E102F103010D8A430EF13F032EF13F0FB
:102660004CEF13F0000E296E000E2A6E000E2B6E3A
:10267000000E2C6E800E2B127F0E2C1239502C1255
:1026800029C029F02AC02AF02BC02BF02CC02CF036
:10269000C4EF14F0C4EF14F04050D8A452EF13F07C
:1026A00054EF13F068EF13F0000E296E000E2A6E3F
:1026B000000E2B6E000E2C6E29C029F02AC02AF0C5
:1026C0002BC02BF02CC02CF0C4EF14F0C4EF14F08E
:1026D0004150316E326A311E321E314A322A405028
:1026E000336E346A31503326325034227F0E332415
:1026F0003A6E000E34203B6E29C035F02AC036F009
:102700002BC037F02CC038F0000E296E000E2A6E58
:10271000000E2B6E000E2C6E000E3C6E000E3D6EF9
:10272000000E3E6E000E3F6E000E416ED4EF13F0B1
:102730004150D8B49EEF13F0A0EF13F0B9EF13F0AF
:10274000D8903536363637363836D89029362A3648
:102750002B362C363FAEAFEF13F0B1EF13F0B2EFE4
:1027600013F02980D8903C363D363E363F36B9EFDF
:1027700013F02D50355C2E5036582F5037583050AE
:102780003858D8A0C6EF13F0C8EF13F0D3EF13F00A
:102790003F8C2D50355E2E50365A2F50375A3050C0
:1027A000385AD3EF13F0412A190E4164DAEF13F0CF
:1027B000DCEF13F098EF13F0DEEF13F03550361026
:1027C00037103810D8B4E7EF13F0E9EF13F005EF46
:1027D00014F03C8005EF14F005EF14F0D890293682
:1027E0002A362B362C363FAEF8EF13F0FAEF13F003
:1027F000FBEF13F02980D8903C363D363E363F360D
:102800003A06D8A03B0605EF14F02BAE0AEF14F001
:102810000CEF14F0EEEF13F00EEF14F0000E416E1B
:102820003FAE15EF14F017EF14F03FEF14F0FF0E6A
:102830003C14316EFF0E3D14326EFF0E3E14336EAB
:102840007F0E3F14346E3150321033103410D8B430
:102850002CEF14F02EEF14F032EF14F0010E416E55
:102860003FEF14F029A037EF14F039EF14F03FEFE9
:1028700014F0010E416E3FEF14F03FEF14F04150A1
:10288000D8B445EF14F047EF14F06FEF14F0010ED9
:102890002926000E2A222B222C222CA052EF14F0E3
:1028A00054EF14F06FEF14F029C031F02AC032F069
:1028B0002BC033F02CC034F0343434323332323263
:1028C000313231C029F032C02AF033C02BF034C08D
:1028D0002CF03A4A3B2A6FEF14F06FEF14F03BBE36
:1028E0007AEF14F03B5008E13A28D8A07AEF14F0C0
:1028F0007CEF14F089EF14F0000E3B6E3A68000E86
:10290000296E000E2A6E000E2B6E000E2C6E89EFC3
:1029100014F03BBE96EF14F03B5006E13A04D8B0F9
:1029200094EF14F096EF14F0A6EF14F0000E3B6E47
:10293000000E3A6E000E296E000E2A6E000E2B6EEF
:10294000000E2C6E000E396EA6EF14F03AC040F067
:1029500040A0ADEF14F0AFEF14F0B2EF14F02B8EF7
:10296000B5EF14F02B9EB5EF14F0D89040302C6EDC
:1029700039502C1229C029F02AC02AF02BC02BF084
:102980002CC02CF0C4EF14F012005A045B10D8A431
:10299000CCEF14F0CEEF14F00EEF16F0C08243EC43
:1029A0001CF0C092D4EF14F0C0A0D9EF14F0DBEF0C
:1029B00014F0D4EF14F0DDEF14F0C2CF02F0C3CF67
:1029C00003F0046A056A000E15EC16F002C0DCF094
:1029D00003C0DDF004C0DEF005C0DFF0DCC010F0A5
:1029E000DDC011F0DEC012F0DFC013F00A0E146E6D
:1029F000280E156EA00E166E3B0E176E7EEC10F0B4
:102A000010C0DCF011C0DDF012C0DEF013C0DFF04A
:102A1000DCC002F0DDC003F0DEC004F0DFC005F072
:102A200017EC1DF002C042F003C043F004C044F0B4
:102A300005C045F0000E466E000E476EA00E486EB3
:102A4000400E496E61EC0BF042C0C0F043C0C1F0D3
:102A500044C0C2F045C0C3F0000E2D6E400E2E6E75
:102A60001C0E2F6E460E306EC0C029F0C1C02AF079
:102A7000C2C02BF0C3C02CF0B5EC12F029C0AEF0F0
:102A80002AC0AFF02BC0B0F02CC0B1F0DCC029F0F0
:102A9000DDC02AF0DEC02BF0DFC02CF0AEC02DF080
:102AA000AFC02EF0B0C02FF0B1C030F0B5EC12F0D6
:102AB00029C0C4F02AC0C5F02BC0C6F02CC0C7F096
:102AC000C4C029F0C5C02AF0C6C02BF0C7C02CF086
:102AD000000E2D6E400E2E6E1C0E2F6E460E306EAA
:102AE000B5EC12F029C0A8F02AC0A9F02BC0AAF0BA
:102AF0002CC0ABF0A8C056F0A9C057F0AAC058F03F
:102B0000ABC059F068EC07F056C0E0F057C0E1F0F8
:102B100058C0E2F059C0E3F0B8C02DF0B9C02EF0B3
:102B2000BAC02FF0BBC030F0000E296E000E2A6E26
:102B3000800E2B6E3F0E2C6EB5EC12F029C046F0C5
:102B40002AC047F02BC048F02CC049F0000E2D6E73
:102B5000900E2E6E780E2F6E450E306EE0C029F06E
:102B6000E1C02AF0E2C02BF0E3C02CF0B5EC12F08B
:102B700029C042F02AC043F02BC044F02CC045F0DD
:102B800061EC0BF042C0AEF043C0AFF044C0B0F017
:102B900045C0B1F0000E296E000E2A6E800E2B6E1D
:102BA0003F0E2C6EAEC02DF0AFC02EF0B0C02FF097
:102BB000B1C030F0B5EC12F029C0BCF02AC0BDF0B5
:102BC0002BC0BEF02CC0BFF0BCC042F0BDC043F073
:102BD000BEC044F0BFC045F0330E466E930E476E44
:102BE000880E486EC30E496E61EC0BF042C0BCF01B
:102BF00043C0BDF044C0BEF045C0BFF0BCC042F011
:102C0000BDC043F0BEC044F0BFC045F086EC18F034
:102C100042C0ACF043C0ADF00EEF16F0ACC05AF0BD
:102C2000ADC05BF014EF16F012000A6E0A50D8B473
:102C30001CEF16F01EEF16F040EF16F005BE25EF64
:102C400016F023EF16F040EF16F002C006F003C0B6
:102C500007F004C008F005C009F0061E071E081E94
:102C6000091E062A000E07220822092206C00CF0BF
:102C700007C00DF008C00EF009C00FF04AEF16F0C3
:102C800002C00CF003C00DF004C00EF005C00FF040
:102C90004AEF16F00250031004100510D8A453EFA9
:102CA00016F055EF16F061EF16F0000E026E000EF2
:102CB000036E000E046E000E056E02EF17F002EFB9
:102CC00017F0960E0B6E6DEF16F00B2AD8900F32A0
:102CD0000E320D320C326DEF16F0000E0C14066E33
:102CE000000E0D14076E000E0E14086EFE0E0F146B
:102CF000096E0650071008100910D8A482EF16F0CC
:102D000084EF16F065EF16F094EF16F094EF16F0DE
:102D10000B2A010E0C26000E0D220E220F22D89037
:102D20000F320E320D320C32000E0C14066E000EF5
:102D30000D14076E000E0E14086EFF0E0F14096EB0
:102D40000650071008100910D8A4A9EF16F0ABEF31
:102D500016F088EF16F0B7EF16F0B7EF16F00B0687
:102D6000D8900C360D360E360F36B7EF16F00EBE75
:102D7000BCEF16F0BEEF16F0C8EF16F0020E0B60B7
:102D8000C4EF16F0C6EF16F0AFEF16F0C8EF16F06E
:102D90000BB0CDEF16F0CFEF16F0D2EF16F00E9E7F
:102DA000D2EF16F0D8900B320BC006F0076A086A13
:102DB000096A06C009F0086A076A066A06500C121A
:102DC00007500D1208500E1209500F120A50D8B4B5
:102DD000ECEF16F0EEEF16F0F8EF16F005BEF5EF9B
:102DE00016F0F3EF16F0F8EF16F00F8EF8EF16F07E
:102DF0000CC002F00DC003F00EC004F00FC005F0CF
:102E000002EF17F01200000ECE6E000ECF6E4CC017
:102E100002F04DC003F06CEC1CF00FEF17F081A234
:102E200014EF17F016EF17F00FEF17F0CD8019EF32
:102E300017F081B21EEF17F020EF17F019EF17F01F
:102E4000CD90CF504F6E4E6ACE50506E516A4E505C
:102E50005010546E4F505110556E000E2D6E000ED6
:102E60002E6E000E2F6E400E306E890E146ED20E36
:102E7000156EDE0E166E3C0E176E54C002F055C075
:102E800003F0000E03BEFF0E046E056E010E15EC7E
:102E900016F002C010F003C011F004C012F005C01B
:102EA00013F07EEC10F010C029F011C02AF012C00F
:102EB0002BF013C02CF0B5EC12F029C042F02AC060
:102EC00043F02BC044F02CC045F086EC18F042C013
:102ED000D8F043C0D9F0AE0E2D6E470E2E6EEB0E1D
:102EE0002F6E420E306E54C002F055C003F0000E3B
:102EF00003BEFF0E046E056E010E15EC16F002C047
:102F000029F003C02AF004C02BF005C02CF0B5EC6A
:102F100012F029C042F02AC043F02BC044F02CC06C
:102F200045F086EC18F042C054F043C055F0010E55
:102F30005424546E000E5520556E55BEA9EF17F05F
:102F4000555009E1020E545CD8A0A9EF17F0ABEF81
:102F500017F0BFEF17F055BEB9EF17F0910E545CA4
:102F6000010E5558D8B0B7EF17F0B9EF17F0BFEF13
:102F700017F054C052F055C053F0C5EF17F0000ED3
:102F8000536E000E526EC5EF17F052C04CF053C096
:102F90004DF0CBEF17F01200000E0F6E000E0E6E0C
:102FA000000E156E000E146E270E176E100E166EA4
:102FB000000E196E000E186E000E116E000E106ECF
:102FC000000E0C140E6E800E0D140F6E0E500F10AE
:102FD000D8B4EDEF17F0EFEF17F0FDEF17F0FF0E9D
:102FE0000C1AFF0E0D1A0C4A0D2ACD0E066E0E0E8F
:102FF000076E02EC1BF0FDEF17F0000E156E000ED1
:10300000146E15BE0DEF18F0155009E1050E145C95
:10301000D8A00DEF18F00FEF18F013EF18F085EFB0
:1030200018F085EF18F0000E196E000E186E0CC027
:1030300002F00DC003F016C004F017C005F0D7EC85
:1030400019F002C018F003C019F016C002F017C042
:1030500003F018C004F019C005F067EC1DF0021E63
:10306000031E024A032A0C5002240C6E0D5003204A
:103070000D6E16C002F017C003F0000E056E0A0EAA
:10308000046ED7EC19F002C016F003C017F019BE99
:1030900054EF18F0195006E11804D8B052EF18F0A8
:1030A00054EF18F05FEF18F010501110D8B45BEF28
:1030B00018F05DEF18F073EF18F05FEF18F0000EE6
:1030C000116E010E106E300E1826000E192218C057
:1030D00012F0000E136E120E066E000E076E02EC5A
:1030E0001BF073EF18F0144A152A15BE81EF18F083
:1030F000155009E1050E145CD8A081EF18F083EF9C
:1031000018F013EF18F085EF18F01200443445342E
:103110004B6E4B50D8A48FEF18F091EF18F09DEF45
:1031200018F0000E426E000E436E000E446E000E4C
:10313000456E2EEF19F02EEF19F042C046F043C055
:1031400047F044C048F045C049F0200EADEF18F0FC
:10315000D8904932483247324632E82EA8EF18F06C
:1031600046504A6E448EFF0E4216FF0E4316FF0E67
:103170004416000E4516960E4B5E4BBEC4EF18F07B
:10318000C2EF18F0E8EF18F04B50800A970FD8B054
:10319000CCEF18F0CEEF18F0DCEF18F0000E426E16
:1031A000000E436E000E446E000E456E2EEF19F0B9
:1031B0002EEF19F0DCEF18F0D8904532443243324C
:1031C00042324B3EDCEF18F012EF19F012EF19F01B
:1031D0001F0E4B64EEEF18F0F0EF18F006EF19F049
:1031E000000E426E000E436E000E446E000E456EE1
:1031F0002EEF19F02EEF19F006EF19F0D8904236A5
:103200004336443645364B0606EF19F04B50D8A4EA
:103210000CEF19F00EEF19F0FEEF18F012EF19F0A5
:1032200012EF19F04A50D8B418EF19F01AEF19F04C
:1032300024EF19F0451E441E431E426C000E43222B
:103240004422452224EF19F042C042F043C043F02B
:1032500044C044F045C045F02EEF19F01200C7EC11
:103260001DF04DEC1AF035EF19F023EC0EF05C6E0A
:103270000001E405E511D8A440EF19F042EF19F080
:103280004BEF19F0BAEC1BF0000E0001E56F000ED9
:10329000E46F4BEF19F0420E5C18D8A452EF19F00E
:1032A00054EF19F087EF19F037EC1DF08D0E066E14
:1032B0000E0E076E02EC1BF07AEF19F023EC0EF005
:1032C0005C6E310E5C18D8A468EF19F06AEF19F043
:1032D0007AEF19F0000E4D6E010E4C6E03EC17F0F4
:1032E0004CC0D8F04DC0D9F07A0E5C6E7AEF19F070
:1032F0007AEF19F0430E5C18D8A481EF19F083EF30
:1033000019F05EEF19F087EF19F087EF19F0410E11
:103310005C18D8A48EEF19F090EF19F0C1EF19F0F6
:1033200037EC1DF0B4EF19F023EC0EF05C6E7A0E62
:103330005C18D8B49EEF19F0A0EF19F0B4EF19F0B3
:103340005C50B6EC1CF0020E0001B36F040EB26FBD
:10335000BA0EE82EFED7B22FFCD7B32FFAD700F063
:10336000B4EF19F0B4EF19F0430E5C18D8A4BBEF1A
:1033700019F0BDEF19F094EF19F0C1EF19F0C1EF9A
:1033800019F0430E5C18D8A4C8EF19F0CAEF19F071
:10339000CFEF19F0000E0001E56F010EE46F7A0E19
:1033A0005C6E35EF19F035EF19F018EF00F0000EF4
:1033B000076E05BEE0EF19F0DEEF19F0E8EF19F047
:1033C000046C051ED8B0052A010E076EE8EF19F04F
:1033D00003BEEFEF19F0EDEF19F0F7EF19F0026C03
:1033E000031ED8B0032A010E071AF7EF19F0000EDA
:1033F000096E000E086E04500510D8B402EF1AF0E2
:1034000004EF1AF038EF1AF0010E066E0EEF1AF004
:10341000D89004360536062A0EEF1AF005AE13EFE3
:103420001AF015EF1AF008EF1AF019EF1AF019EF69
:103430001AF0D890083609360450025C055003583B
:10344000D8A025EF1AF027EF1AF02EEF1AF004504B
:10345000025E0550035A08802EEF1AF0D89005320C
:103460000432062E19EF1AF038EF1AF038EF1AF07E
:103470000750D8B43EEF1AF040EF1AF046EF1AF0BA
:10348000086C091ED8B0092A46EF1AF008C002F0ED
:1034900009C003F04CEF1AF01200000E4D6E010E41
:1034A0004C6E03EC17F04CC0D0F04DC0D1F00001D1
:1034B000D1BF66EF1AF0D15107E1050ED05DD8B04B
:1034C00064EF1AF066EF1AF08DEF1AF0000E0D6E31
:1034D000010E0C6E47EC1BF07AEF1AF0000E4D6EE9
:1034E000010E4C6E03EC17F04CC0D0F04DC0D1F083
:1034F0007AEF1AF00001D1BF87EF1AF0D15109E13C
:10350000050ED05DD8A087EF1AF089EF1AF06EEFA4
:103510001AF08DEF1AF08DEF1AF0000E5B6E010EAF
:103520005A6EC5EC14F05AC0D4F05BC0D5F000015F
:10353000D5BFA6EF1AF0D55107E13C0ED45DD8B047
:10354000A4EF1AF0A6EF1AF0BAEF1AF0000E036E0D
:10355000010E026E7CEC1DF0000E0D6E020E0C6E64
:1035600047EC1BF0D4C00CF0D5C00DF0CCEC17F03C
:10357000BAEF1AF01200016EABB4C1EF1AF0C3EF4C
:103580001AF0CAEF1AF0ABA2C8EF1AF0CAEF1AF09D
:10359000D0EF1AF0AB98650E01EF1BF001EF1BF0B6
:1035A000640E0118D8A4D7EF1AF0D9EF1AF0DEEFA5
:1035B0001AF0640E01EF1BF001EF1BF0630E01180F
:1035C000D8A4E5EF1AF0E7EF1AF0ECEF1AF0630E6B
:1035D00001EF1BF001EF1BF0660E0118D8A4F3EF0A
:1035E0001AF0F5EF1AF0FCEF1AF0660E01EF1BF07F
:1035F00001EF1BF001EF1BF0015001EF1BF001EF99
:103600001BF01200000E0B6E000E0A6E25EF1BF071
:103610000A500624086E0B500720096E08C0F6FFFA
:1036200009C0F7FF000EF86E0D0EF76403D0080016
:10363000F55005D0F6CFE9FFF7CFEAFFEF50B6EC33
:103640001CF00A4A0B2A25EF1BF00A500624086ECC
:103650000B500720096E08C0F6FF09C0F7FF000EE7
:10366000F86E0D0EF76403D00800F55005D0F6CFC4
:10367000E9FFF7CFEAFFEF500009D8A442EF1BF0B3
:1036800044EF1BF008EF1BF046EF1BF012000C0498
:103690000D10D8A44EEF1BF050EF1BF064EF1BF0A1
:1036A00037EC1DF0000E066E000E056E000E086E63
:1036B000000E076E83EC1BF0AE0E066E0E0E076E4C
:1036C00002EC1BF064EF1BF0020E0C180D10D8A4D6
:1036D0006CEF1BF06EEF1BF082EF1BF037EC1DF070
:1036E000000E066E000E056E000E086E000E076ED0
:1036F00083EC1BF0A10E066E0E0E076E02EC1BF0A3
:1037000082EF1BF012000550140DF3500724096ED0
:1037100006BE94EF1BF0065009E1020E055CD8A02E
:1037200094EF1BF096EF1BF09AEF1BF0180E092692
:103730009AEF1BF0095018EC1CF0096EA2EF1BF079
:10374000A2EF1BF09BEC1DF00009D8A4AAEF1BF020
:10375000ACEF1BF0A2EF1BF08C96F80EAAEC1DF05C
:103760000950F00BAAEC1DF00938F00B1009AAEC77
:103770001DF0120037EC1DF0000E066E000E056EF7
:10378000000E086E000E076E83EC1BF0790E066EBD
:103790000E0E076E02EC1BF0000E066E010E056E9B
:1037A000000E086E000E076E83EC1BF04E0E066EC8
:1037B0000E0E076E02EC1BF0000E066E020E056E7A
:1037C000000E086E000E076E83EC1BF0640E066E92
:1037D0000E0E076E02EC1BF01200066E05C007F01D
:1037E000D890073604500726D8900736065007268B
:1037F000D8900736072A073AF00E071602EF1CF09A
:1038000002EF1CF09BEC1DF00009D8A40AEF1CF09D
:103810000CEF1CF002EF1CF08C96F80EAAEC1DF0D9
:103820000750AAEC1DF0000EAAEC1DF08C861200C9
:10383000046E04C002F00F0E0216023AF00E0216D9
:1038400004380F0B0F0B0210046E04C002F0330E8D
:103850000216D8900236D89002360440E8423F0B58
:10386000330B0210046E04C002F0550E0216D890FD
:103870000234036ED8900430550B0310046E0450CC
:1038800042EF1CF01200000E036E000E026E03BE2B
:1038900053EF1CF0100E025C270E0358D8A053EF14
:1038A0001CF055EF1CF059EF1CF06BEF1CF06BEFA8
:1038B0001CF0024A032A03BE67EF1CF0100E025CE4
:1038C000270E0358D8A067EF1CF069EF1CF059EFE2
:1038D0001CF06BEF1CF0120002040310D8A473EF6D
:1038E0001CF075EF1CF07DEF1CF08380060EE82EB7
:1038F000FED700D0839091EF1CF0020E0218031047
:10390000D8A485EF1CF087EF1CF091EF1CF08382A8
:10391000060EE82EFED700D0839291EF1CF091EFB7
:103920001CF01200C80EF66E3B0EF76E000EF86E1D
:1039300000EEE4F010EE04F00900F5CFEEFFE550E4
:10394000E150FAE101EE00F0280EEE6AE806FDE132
:1039500000EEB4F0300EEE6AE806FDE15C6A5D90C0
:103960005D92000EF86E00012FEF19F0056E055004
:1039700018EC1CF0056EBFEF1CF0BFEF1CF09BECC9
:103980001DF00009D8A4C7EF1CF0C9EF1CF0BFEF71
:103990001CF08C96FA0EAAEC1DF00550F00BAAEC68
:1039A0001DF00538F00BAAEC1DF08C861200D350E8
:1039B0007009D36E959895949596958294908C867F
:1039C00000F0560E026EB60EE82EFED7022EFCD781
:1039D000560E026EB60EE82EFED7022EFCD7560EFD
:1039E000026EB60EE82EFED7022EFCD71200E0ECD7
:1039F0001DF0330E0F01306F669C0E012A51F00B43
:103A000006092A6F1F51F00B01091F6F6788678A2B
:103A1000AC9CAC8AAC98AC96AC84AC90AB8EAB9CB6
:103A2000AB88D08EF28EF28C9D8A9D981200025047
:103A3000031004100510D8B420EF1DF022EF1DF084
:103A40002CEF1DF0000E021A000E031A000E041ACD
:103A5000800E051A2CEF1DF002C002F003C003F027
:103A600004C004F005C005F036EF1DF012003BEF76
:103A70001DF03BEF1DF09BEC1DF00009D8A443EFB7
:103A80001DF045EF1DF03BEF1DF08C96F80EAAECF3
:103A90001DF0800EAAEC1DF0000EAAEC1DF08C8625
:103AA00012000E011E85F40E1E17050E1D13F50ED5
:103AB0001D17500E30135F0E3017F10E0F0119173E
:103AC000310E19131A8F1A9D8F0E391712000250DA
:103AD0000402F3CF06F0F4CF07F002500502F350D2
:103AE000072603500402F350072606C002F007C061
:103AF00003F07BEF1DF0120002040310D8A483EF43
:103B00001DF085EF1DF088EF1DF0838A8BEF1DF00F
:103B1000839A8BEF1DF01200070ED36E000ECF6E4E
:103B2000000ECE6E3F0ECD16CD98CD9A000ECE6E05
:103B3000000ECF6E12008C96FC0EAAEC1DF0000E4B
:103B4000AAEC1DF0036E8C8600D00350010BA9EF88
:103B50001DF01200026E02C003FFAFEF1DF00F0157
:103B60001AA1B5EF1DF0B7EF1DF0AFEF1DF0035137
:103B70001200D7EC1CF051EC1DF037EC1DF0010EDB
:103B8000046E000E056E010EEDEC1BF01200F7EC5A
:103B90001CF0B9EC1DF0D9EC1DF0D0EC1DF01200BA
:103BA00095909592F19E628293828C908CEC1DF0A0
:103BB0001200F00E966E84808482848484861200C3
:0C3BC000D380D382D384120001000300E4
:020000040001F9
:10FFF000A0F728F033F0FFF703FFFFFF1DF0F8F341
:00000001FF
