:020000040000FA
:0400000085EF10F088
:100E0000000000000000000000000020636D4E693B
:100E1000636F20657374206672616E636169734FDE
:100E20007574206F662052616E67654469737461E2
:100E30006E6365203D2020202020202020202020BF
:100E400020202020202020202020002D0000000E27
:100E5000046E000E036E8D9684BE31EF07F033EF03
:100E600007F050EF07F0020E026E040E016EBA0E8C
:100E7000E82EFED7012EFCD7022EFAD700D084BE72
:100E800044EF07F046EF07F050EF07F0430E056E12
:100E9000000E046E010E036E50EF07F050EF07F0E6
:100EA00084BC55EF07F057EF07F074EF07F0020E20
:100EB000026E040E016EBA0EE82EFED7012EFCD78C
:100EC000022EFAD700D084BC68EF07F06AEF07F073
:100ED00074EF07F0440E056E000E046E010E036EF3
:100EE00074EF07F074EF07F084BA79EF07F07BEF47
:100EF00007F098EF07F0020E026E040E016EBA0EB4
:100F0000E82EFED7012EFCD7022EFAD700D084BAE5
:100F10008CEF07F08EEF07F098EF07F0450E056EA7
:100F2000000E046E010E036E98EF07F098EF07F0C5
:100F300084B89DEF07F09FEF07F0BCEF07F0020EBB
:100F4000026E040E016EBA0EE82EFED7012EFCD7FB
:100F5000022EFAD700D084B8B0EF07F0B2EF07F056
:100F6000BCEF07F0460E056E000E046E010E036E18
:100F7000BCEF07F0BCEF07F08D868D9484BEC3EF05
:100F800007F0C5EF07F0E2EF07F0020E026E040E65
:100F9000016EBA0EE82EFED7012EFCD7022EFAD72C
:100FA00000D084BED6EF07F0D8EF07F0E2EF07F0ED
:100FB000420E056E000E046E010E036EE2EF07F0A6
:100FC000E2EF07F084BCE7EF07F0E9EF07F006EF88
:100FD00008F0020E026E040E016EBA0EE82EFED765
:100FE000012EFCD7022EFAD700D084BCFAEF07F00E
:100FF000FCEF07F006EF08F0390E056E000E046EE8
:10100000010E036E06EF08F006EF08F084BA0BEF4E
:1010100008F00DEF08F02AEF08F0020E026E040E41
:10102000016EBA0EE82EFED7012EFCD7022EFAD79B
:1010300000D084BA1EEF08F020EF08F02AEF08F085
:10104000360E056E000E046E010E036E2AEF08F0D8
:101050002AEF08F084B82FEF08F031EF08F04EEFD8
:1010600008F0020E026E040E016EBA0EE82EFED7D4
:10107000012EFCD7022EFAD700D084B842EF08F038
:1010800044EF08F04EEF08F0330E056E000E046ECC
:10109000010E036E4EEF08F04EEF08F08D848D9236
:1010A00084BE55EF08F057EF08F074EF08F0020E19
:1010B000026E040E016EBA0EE82EFED7012EFCD78A
:1010C000022EFAD700D084BE68EF08F06AEF08F06D
:1010D00074EF08F0300E056E000E046E010E036E04
:1010E00074EF08F074EF08F084BC79EF08F07BEF40
:1010F00008F098EF08F0020E026E040E016EBA0EB0
:10110000E82EFED7012EFCD7022EFAD700D084BCE1
:101110008CEF08F08EEF08F098EF08F0380E056EAF
:10112000000E046E010E036E98EF08F098EF08F0C1
:1011300084BA9DEF08F09FEF08F0BCEF08F0020EB4
:10114000026E040E016EBA0EE82EFED7012EFCD7F9
:10115000022EFAD700D084BAB0EF08F0B2EF08F050
:10116000BCEF08F0350E056E000E046E010E036E26
:10117000BCEF08F0BCEF08F084B8C1EF08F0C3EF93
:1011800008F0E0EF08F0020E026E040E016EBA0ED7
:10119000E82EFED7012EFCD7022EFAD700D084B855
:1011A000D4EF08F0D6EF08F0E0EF08F0320E056E4D
:1011B000000E046E010E036EE0EF08F0E0EF08F0A1
:1011C0008D828D9084BEE7EF08F0E9EF08F006EF1E
:1011D00009F0020E026E040E016EBA0EE82EFED762
:1011E000012EFCD7022EFAD700D084BEFAEF08F009
:1011F000FCEF08F006EF09F0410E056E000E046EDC
:10120000010E036E06EF09F006EF09F084BC0BEF48
:1012100009F00DEF09F02AEF09F0020E026E040E3C
:10122000016EBA0EE82EFED7012EFCD7022EFAD799
:1012300000D084BC1EEF09F020EF09F02AEF09F07E
:10124000370E056E000E046E010E036E2AEF09F0D4
:101250002AEF09F084BA2FEF09F031EF09F04EEFD1
:1012600009F0020E026E040E016EBA0EE82EFED7D1
:10127000012EFCD7022EFAD700D084BA42EF09F033
:1012800044EF09F04EEF09F0340E056E000E046EC7
:10129000010E036E4EEF09F04EEF09F084B853EFE4
:1012A00009F055EF09F072EF09F0020E026E040E1C
:1012B000016EBA0EE82EFED7012EFCD7022EFAD709
:1012C00000D084B866EF09F068EF09F072EF09F01A
:1012D000310E056E000E046E010E036E72EF09F002
:1012E00072EF09F08D8003500410D8A47AEF09F052
:1012F0007CEF09F07EEF09F07A0E056E055081EF64
:1013000009F012001250800B1F6E12501224266E2C
:1013100011AE8DEF09F08FEF09F092EF09F0268002
:1013200092EF09F02650D8B498EF09F09AEF09F03F
:10133000B1EF09F02628D8A4A0EF09F0A2EF09F038
:10134000ACEF09F0000E0F6E000E106E000E116E65
:10135000000E126EACEF09F0118E000E126EBBEF94
:1013600009F0000E0F6E000E106E000E116E000ED2
:10137000126EBBEF09F01650800B1F1A1650162480
:10138000276E15AEC6EF09F0C8EF09F0CBEF09F0F4
:101390002780CBEF09F02750D8B4D1EF09F0D3EF75
:1013A00009F0EAEF09F02728D8A4D9EF09F0DBEF1C
:1013B00009F0E5EF09F0000E136E000E146E000E3A
:1013C000156E000E166EE5EF09F0158E000E166E06
:1013D000F4EF09F0000E136E000E146E000E156E81
:1013E000000E166EF4EF09F01350141015101610BD
:1013F000D8A4FDEF09F0FFEF09F019EF0AF0000E95
:101400000F6E000E106E000E116E000E126E800E2A
:1014100011127F0E12121F5012120FC00FF010C0C7
:1014200010F011C011F012C012F091EF0BF091EF1B
:101430000BF02650D8A41FEF0AF021EF0AF035EF89
:101440000AF0000E0F6E000E106E000E116E000EF0
:10145000126E0FC00FF010C010F011C011F012C0CA
:1014600012F091EF0BF091EF0BF02750176E186A06
:10147000171E181E174A182A2650196E1A6A175076
:10148000192618501A227F0E1924206E000E1A20D9
:10149000216E0FC01BF010C01CF011C01DF012C057
:1014A0001EF0000E0F6E000E106E000E116E000E7C
:1014B000126E000E226E000E236E000E246E000EC1
:1014C000256E000E276EA1EF0AF02750D8B46BEFFF
:1014D0000AF06DEF0AF086EF0AF0D8901B361C3642
:1014E0001D361E36D8900F3610361136123625AE00
:1014F0007CEF0AF07EEF0AF07FEF0AF00F80D890C1
:10150000223623362436253686EF0AF013501B5C2C
:1015100014501C5815501D5816501E58D8A093EF43
:101520000AF095EF0AF0A0EF0AF0258C13501B5E2D
:1015300014501C5A15501D5A16501E5AA0EF0AF08E
:10154000272A190E2764A7EF0AF0A9EF0AF065EF22
:101550000AF0ABEF0AF01B501C101D101E10D8B47F
:10156000B4EF0AF0B6EF0AF0D2EF0AF02280D2EF21
:101570000AF0D2EF0AF0D8900F3610361136123634
:1015800025AEC5EF0AF0C7EF0AF0C8EF0AF00F80EA
:10159000D89022362336243625362006D8A02106B8
:1015A000D2EF0AF011AED7EF0AF0D9EF0AF0BBEF95
:1015B0000AF0DBEF0AF0000E276E25AEE2EF0AF02C
:1015C000E4EF0AF00CEF0BF0FF0E2214176EFF0E83
:1015D0002314186EFF0E2414196E7F0E25141A6E34
:1015E0001750181019101A10D8B4F9EF0AF0FBEFC1
:1015F0000AF0FFEF0AF0010E276E0CEF0BF00FA0C0
:1016000004EF0BF006EF0BF00CEF0BF0010E276E62
:101610000CEF0BF00CEF0BF02750D8B412EF0BF0DF
:1016200014EF0BF03CEF0BF0010E0F26000E102212
:101630001122122212A01FEF0BF021EF0BF03CEF52
:101640000BF00FC017F010C018F011C019F012C045
:101650001AF01A341A3219321832173217C00FF032
:1016600018C010F019C011F01AC012F0204A212A37
:101670003CEF0BF03CEF0BF021BE47EF0BF021509D
:1016800008E12028D8A047EF0BF049EF0BF056EF08
:101690000BF0000E216E2068000E0F6E000E106E13
:1016A000000E116E000E126E56EF0BF021BE63EFAE
:1016B0000BF0215006E12004D8B061EF0BF063EF8E
:1016C0000BF073EF0BF0000E216E000E206E000E7B
:1016D0000F6E000E106E000E116E000E126E000ED8
:1016E0001F6E73EF0BF020C026F026A07AEF0BF0F0
:1016F0007CEF0BF07FEF0BF0118E82EF0BF0119E61
:1017000082EF0BF0D8902630126E1F5012120FC0CD
:101710000FF010C010F011C011F012C012F091EFD4
:101720000BF01200096E0950D8B499EF0BF09BEF43
:101730000BF0BDEF0BF004BEA2EF0BF0A0EF0BF02F
:10174000BDEF0BF001C005F002C006F003C007F0CA
:1017500004C008F0051E061E071E081E052A000EFE
:1017600006220722082205C00BF006C00CF007C0B5
:101770000DF008C00EF0C7EF0BF001C00BF002C077
:101780000CF003C00DF004C00EF0C7EF0BF00150D9
:10179000021003100410D8A4D0EF0BF0D2EF0BF01E
:1017A000DEEF0BF0000E016E000E026E000E036EF7
:1017B000000E046E7FEF0CF07FEF0CF0960E0A6EB9
:1017C000EAEF0BF00A2AD8900E320D320C320B32AF
:1017D000EAEF0BF0000E0B14056E000E0C14066EF3
:1017E000000E0D14076EFE0E0E14086E0550061046
:1017F00007100810D8A4FFEF0BF001EF0CF0E2EF98
:101800000BF011EF0CF011EF0CF00A2A010E0B2671
:10181000000E0C220D220E22D8900E320D320C3208
:101820000B32000E0B14056E000E0C14066E000E2B
:101830000D14076EFF0E0E14086E055006100710EB
:101840000810D8A426EF0CF028EF0CF005EF0CF0F0
:1018500034EF0CF034EF0CF00A06D8900B360C364F
:101860000D360E3634EF0CF00DBE39EF0CF03BEFB9
:101870000CF045EF0CF0020E0A6041EF0CF043EF64
:101880000CF02CEF0CF045EF0CF00AB04AEF0CF026
:101890004CEF0CF04FEF0CF00D9E4FEF0CF0D8908A
:1018A0000A320AC005F0066A076A086A05C008F02D
:1018B000076A066A056A05500B1206500C1207509B
:1018C0000D1208500E120950D8B469EF0CF06BEFEE
:1018D0000CF075EF0CF004BE72EF0CF070EF0CF032
:1018E00075EF0CF00E8E75EF0CF00BC001F00CC014
:1018F00002F00DC003F00EC004F07FEF0CF01200F8
:10190000000ECE6E000ECF6E3AEC11F088EF0CF0A8
:1019100081A28DEF0CF08FEF0CF088EF0CF0CD80F2
:1019200092EF0CF081B297EF0CF099EF0CF092EF80
:101930000CF0CD90CF50336E326ACE50346E356A93
:1019400032503410366E33503510376EAE0E136E83
:10195000470E146E6B0E156E420E166ECECF01F052
:10196000CFCF02F0036A046A000E92EC0BF001C0C4
:101970000FF002C010F003C011F004C012F082ECAE
:1019800009F00FC028F010C029F011C02AF012C0D1
:101990002BF012EC0EF028C040F029C041F0AE0E42
:1019A000136E470E146E6B0E156E420E166E36C019
:1019B00001F037C002F0000E02BEFF0E036E046E8F
:1019C000010E92EC0BF001C00FF002C010F003C04A
:1019D00011F004C012F082EC09F00FC028F010C022
:1019E00029F011C02AF012C02BF012EC0EF028C022
:1019F00036F029C037F0010E3624366E000E37203F
:101A0000376E37BE0DEF0DF0375009E1020E365C30
:101A1000D8A00DEF0DF00FEF0DF037EF0DF037BE42
:101A20001DEF0DF0910E365C010E3758D8B01BEF4C
:101A30000DF01DEF0DF037EF0DF0A2EC10F0000EE1
:101A4000056E010E046E000E076E010E066EB7ECF9
:101A50000FF02B0E056E0E0E066E31EC0FF040C02F
:101A60000BF041C00CF058EC0DF04BEF0DF0A2EC78
:101A700010F0000E056E010E046E000E076E010ED2
:101A8000066EB7EC0FF01F0E056E0E0E066E31ECF3
:101A90000FF04BEF0DF0020E336E040E326EBA0EE5
:101AA000E82EFED7322EFCD7332EFAD700D0120004
:101AB000000E0E6E000E0D6E000E146E000E136EF4
:101AC000270E166E100E156E000E186E000E176E95
:101AD000000E106E000E0F6E000E0B140D6E800EB9
:101AE0000C140E6E0D500E10D8B479EF0DF07BEF84
:101AF0000DF089EF0DF0FF0E0B1AFF0E0C1A0B4ABA
:101B00000C2A4B0E056E0E0E066E31EC0FF089EFAF
:101B10000DF0000E146E000E136E14BE99EF0DF052
:101B2000145009E1050E135CD8A099EF0DF09BEF5E
:101B30000DF09FEF0DF011EF0EF011EF0EF0000E13
:101B4000186E000E176E0BC001F00CC002F015C02D
:101B500003F016C004F0BBEC0EF001C017F002C099
:101B600018F015C001F016C002F017C003F018C03D
:101B700004F0D2EC10F0011E021E014A022A0B50A2
:101B800001240B6E0C5002200C6E15C001F016C023
:101B900002F0000E046E0A0E036EBBEC0EF001C0E4
:101BA00015F002C016F018BEE0EF0DF0185006E177
:101BB0001704D8B0DEEF0DF0E0EF0DF0EBEF0DF015
:101BC0000F501010D8B4E7EF0DF0E9EF0DF0FFEF74
:101BD0000DF0EBEF0DF0000E106E010E0F6E300EDB
:101BE0001726000E182217C011F0000E126E110EEB
:101BF000056E000E066E31EC0FF0FFEF0DF0134A8C
:101C0000142A14BE0DEF0EF0145009E1050E135CFA
:101C1000D8A00DEF0EF00FEF0EF09FEF0DF011EFCB
:101C20000EF012002A342B34316E3150D8A41BEF41
:101C30000EF01DEF0EF029EF0EF0000E286E000ED4
:101C4000296E000E2A6E000E2B6EBAEF0EF0BAEF60
:101C50000EF028C02CF029C02DF02AC02EF02BC089
:101C60002FF0200E39EF0EF0D8902F322E322D3279
:101C70002C32E82E34EF0EF02C50306E2A8EFF0EF0
:101C80002816FF0E2916FF0E2A16000E2B16960E8A
:101C9000315E31BE50EF0EF04EEF0EF074EF0EF0ED
:101CA0003150800A970FD8B058EF0EF05AEF0EF06F
:101CB00068EF0EF0000E286E000E296E000E2A6EE0
:101CC000000E2B6EBAEF0EF0BAEF0EF068EF0EF0CA
:101CD000D8902B322A3229322832313E68EF0EF06A
:101CE0009EEF0EF09EEF0EF01F0E31647AEF0EF0B5
:101CF0007CEF0EF092EF0EF0000E286E000E296EB3
:101D0000000E2A6E000E2B6EBAEF0EF0BAEF0EF038
:101D100092EF0EF0D890283629362A362B36310627
:101D200092EF0EF03150D8A498EF0EF09AEF0EF02B
:101D30008AEF0EF09EEF0EF09EEF0EF03050D8B40A
:101D4000A4EF0EF0A6EF0EF0B0EF0EF02B1E2A1E41
:101D5000291E286C000E29222A222B22B0EF0EF019
:101D600028C028F029C029F02AC02AF02BC02BF067
:101D7000BAEF0EF01200000E066E04BEC4EF0EF0B5
:101D8000C2EF0EF0CCEF0EF0036C041ED8B0042AA4
:101D9000010E066ECCEF0EF002BED3EF0EF0D1EFC7
:101DA0000EF0DBEF0EF0016C021ED8B0022A010E1D
:101DB000061ADBEF0EF0000E086E000E076E0350E1
:101DC0000410D8B4E6EF0EF0E8EF0EF01CEF0FF0C1
:101DD000010E056EF2EF0EF0D89003360436052A98
:101DE000F2EF0EF004AEF7EF0EF0F9EF0EF0ECEFBD
:101DF0000EF0FDEF0EF0FDEF0EF0D890073608362E
:101E00000350015C04500258D8A009EF0FF00BEF0B
:101E10000FF012EF0FF00350015E0450025A0780DA
:101E200012EF0FF0D89004320332052EFDEF0EF0C2
:101E30001CEF0FF01CEF0FF00650D8B422EF0FF09C
:101E400024EF0FF02AEF0FF0076C081ED8B0082A15
:101E50002AEF0FF007C001F008C002F030EF0FF0DA
:101E60001200000E0A6E000E096E54EF0FF00950BA
:101E70000524076E0A500620086E07C0F6FF08C04A
:101E8000F7FF000EF86E0D0EF76403D00800F55052
:101E900005D0F6CFE9FFF7CFEAFFEF5044EC10F0A2
:101EA000094A0A2A54EF0FF009500524076E0A5018
:101EB0000620086E07C0F6FF08C0F7FF000EF86E98
:101EC0000D0EF76403D00800F55005D0F6CFE9FFFA
:101ED000F7CFEAFFEF500009D8A471EF0FF073EFCE
:101EE0000FF037EF0FF075EF0FF012002CEC11F040
:101EF0000E0E056E0E0E066E31EC0FF080EF0FF039
:101F000027EC07F0426E310E4218D8A48AEF0FF08A
:101F10008CEF0FF090EF0FF080EC0CF090EF0FF0E3
:101F20007A0E4218D8B497EF0FF099EF0FF0A2EFA6
:101F30000FF0425044EC10F0A60EE82EFED700D071
:101F4000A2EF0FF0430E4218D8A4A9EF0FF0ABEFA9
:101F50000FF0AFEF0FF0A2EC10F0AFEF0FF07A0E32
:101F6000426E80EF0FF080EF0FF000EF00F00450B2
:101F7000140DF3500624086E05BEC8EF0FF005508F
:101F800009E1020E045CD8A0C8EF0FF0CAEF0FF011
:101F9000CEEF0FF0180E0826CEEF0FF0085019EC18
:101FA00010F0086ED6EF0FF0D6EF0FF0F8EC10F04F
:101FB0000009D8A4DEEF0FF0E0EF0FF0D6EF0FF03E
:101FC0008C96F80E07EC11F00850F00B07EC11F0AE
:101FD0000838F00B100907EC11F01200056E04C070
:101FE00006F0D890063603500626D89006360550DF
:101FF0000626D8900636062A063AF00E061603EF95
:1020000010F003EF10F0F8EC10F00009D8A40BEF7B
:1020100010F00DEF10F003EF10F08C96F80E07ECB7
:1020200011F0065007EC11F0000E07EC11F08C8651
:102030001200036E03C001F00F0E0116013AF00EFC
:10204000011603380F0B0F0B0110036E03C001F0D4
:10205000330E0116D8900136D89001360340E8427D
:102060003F0B330B0110036E03C001F0550E011638
:10207000D8900134026ED8900330550B0210036ED5
:10208000035043EF10F01200046E045019EC10F0EE
:10209000046E4DEF10F04DEF10F0F8EC10F0000969
:1020A000D8A455EF10F057EF10F04DEF10F08C96CC
:1020B000FA0E07EC11F00450F00B07EC11F00438A5
:1020C000F00B07EC11F08C861200D3507009D36E20
:1020D000959895949596958294908C8600F0560EDE
:1020E000016EB60EE82EFED7012EFCD7560E016EFD
:1020F000B60EE82EFED7012EFCD7560E016EB60E98
:10210000E82EFED7012EFCD71200820EF66E220EAC
:10211000F76E000EF86E0900F5CF43F00900F5CF19
:1021200044F000EE60F0280EEE6AE806FDE100EEF5
:1021300038F00B0EEE6AE806FDE1000EF86E0001C5
:1021400076EF0FF0A6EF10F0A6EF10F0F8EC10F01D
:102150000009D8A4AEEF10F0B0EF10F0A6EF10F029
:102160008C96F80E07EC11F0800E07EC11F0000EC3
:1021700007EC11F08C8612000E011E85F40E1E175E
:10218000050E1D13F50E1D17500E30135F0E301780
:10219000F10E0F011917310E19131A8F1A9D8F0E98
:1021A0003917120001500302F3CF05F0F4CF06F007
:1021B00001500402F350062602500302F350062693
:1021C00005C001F006C002F0E6EF10F01200020EAA
:1021D000CD6E220ED36E000ECF6E000ECE6E3F0E71
:1021E000CD16CD98CD9A000ECE6E000ECF6E120099
:1021F0008C96FC0E07EC11F0000E07EC11F0026E4D
:102200008C8600D00250010B06EF11F01200016E17
:1022100001C003FF0CEF11F00F011AA112EF11F032
:1022200014EF11F00CEF11F00351120065EC10F0F7
:10223000BCEC10F0A2EC10F0010E036E000E046E68
:10224000010EEEEC0FF012009590F19E62829382E7
:102250008C90E7EC10F0120016EC11F033EC11F05A
:1022600024EC11F01200F00E966E84808482848437
:10227000848612008380060EE82EFED700D083905D
:042280001200030045
:020000040001F9
:10FFF000E0F72BF121F0FFF703FEFFFF1DF0F8F310
:00000001FF
