:020000040000FA
:0400000016EF00F007
:100008005D8207EF00F09EAA0CEF00F00EEF00F003
:1000180007EF00F0AECF57F0575060EC12F0566E75
:080028005D921100ACEF13F032
:100E0000004E69636F20657374206672616E636162
:100E1000697300000000000000000000422D205611
:100E200065726966206361707465757220646973A8
:100E30007400432D205265746F75726E6572206167
:100E400075206D656E7500412D20566572696620AE
:100E5000746F756368657300000000312D506F7505
:100E600072207072656C6576657220646973744F68
:100E70007574206F662052616E6765446973746192
:100E80006E6365203D2020636D20202020202020DF
:100E900020202020202020202020202020002D0085
:010EA0000051
:100EA200000E056E000E046E8D9684BE5BEF07F099
:100EB2005DEF07F07AEF07F0020E036E040E026E8A
:100EC200BA0EE82EFED7022EFCD7032EFAD700D098
:100ED20084BE6EEF07F070EF07F07AEF07F0430E73
:100EE200066E000E056E010E046E7AEF07F07AEFC1
:100EF20007F084BC7FEF07F081EF07F09EEF07F069
:100F0200020E036E040E026EBA0EE82EFED7022EF9
:100F1200FCD7032EFAD700D084BC92EF07F094EFEF
:100F220007F09EEF07F0440E066E000E056E010EEE
:100F3200046E9EEF07F09EEF07F084BAA3EF07F06E
:100F4200A5EF07F0C2EF07F0020E036E040E026E69
:100F5200BA0EE82EFED7022EFCD7032EFAD700D007
:100F620084BAB6EF07F0B8EF07F0C2EF07F0450E0C
:100F7200066E000E056E010E046EC2EF07F0C2EFA0
:100F820007F084B8C7EF07F0C9EF07F0E6EF07F004
:100F9200020E036E040E026EBA0EE82EFED7022E69
:100FA200FCD7032EFAD700D084B8DAEF07F0DCEFD3
:100FB20007F0E6EF07F0460E066E000E056E010E14
:100FC200046EE6EF07F0E6EF07F08D868D9484BE9F
:100FD200EDEF07F0EFEF07F00CEF08F0020E036EF3
:100FE200040E026EBA0EE82EFED7022EFCD7032E96
:100FF200FAD700D084BE00EF08F002EF08F00CEF41
:1010020008F0420E066E000E056E010E046E0CEF25
:1010120008F00CEF08F084BC11EF08F013EF08F0B1
:1010220030EF08F0020E036E040E026EBA0EE82EC6
:10103200FED7022EFCD7032EFAD700D084BC24EFB1
:1010420008F026EF08F030EF08F0390E066E000EB9
:10105200056E010E046E30EF08F030EF08F084BA2E
:1010620035EF08F037EF08F054EF08F0020E036E88
:10107200040E026EBA0EE82EFED7022EFCD7032E05
:10108200FAD700D084BA48EF08F04AEF08F054EFDC
:1010920008F0360E066E000E056E010E046E54EF59
:1010A20008F054EF08F084B859EF08F05BEF08F04D
:1010B20078EF08F0020E036E040E026EBA0EE82EEE
:1010C200FED7022EFCD7032EFAD700D084B86CEFDD
:1010D20008F06EEF08F078EF08F0330E066E000E9F
:1010E200056E010E046E78EF08F078EF08F08D843B
:1010F2008D9284BE7FEF08F081EF08F09EEF08F03A
:10110200020E036E040E026EBA0EE82EFED7022EF7
:10111200FCD7032EFAD700D084BE92EF08F094EFEA
:1011220008F09EEF08F0300E066E000E056E010EFE
:10113200046E9EEF08F09EEF08F084BCA3EF08F067
:10114200A5EF08F0C2EF08F0020E036E040E026E65
:10115200BA0EE82EFED7022EFCD7032EFAD700D005
:1011620084BCB6EF08F0B8EF08F0C2EF08F0380E12
:10117200066E000E056E010E046EC2EF08F0C2EF9D
:1011820008F084BAC7EF08F0C9EF08F0E6EF08F0FC
:10119200020E036E040E026EBA0EE82EFED7022E67
:1011A200FCD7032EFAD700D084BADAEF08F0DCEFCE
:1011B20008F0E6EF08F0350E066E000E056E010E21
:1011C200046EE6EF08F0E6EF08F084B8EBEF08F003
:1011D200EDEF08F00AEF09F0020E036E040E026E44
:1011E200BA0EE82EFED7022EFCD7032EFAD700D075
:1011F20084B8FEEF08F000EF09F00AEF09F0320EB2
:10120200066E000E056E010E046E0AEF09F00AEF7B
:1012120009F08D828D9084BE11EF09F013EF09F071
:1012220030EF09F0020E036E040E026EBA0EE82EC3
:10123200FED7022EFCD7032EFAD700D084BE24EFAD
:1012420009F026EF09F030EF09F0410E066E000EAC
:10125200056E010E046E30EF09F030EF09F084BC28
:1012620035EF09F037EF09F054EF09F0020E036E83
:10127200040E026EBA0EE82EFED7022EFCD7032E03
:10128200FAD700D084BC48EF09F04AEF09F054EFD6
:1012920009F0370E066E000E056E010E046E54EF55
:1012A20009F054EF09F084BA59EF09F05BEF09F045
:1012B20078EF09F0020E036E040E026EBA0EE82EEB
:1012C200FED7022EFCD7032EFAD700D084BA6CEFD9
:1012D20009F06EEF09F078EF09F0340E066E000E99
:1012E200056E010E046E78EF09F078EF09F084B80C
:1012F2007DEF09F07FEF09F09CEF09F0020E036E1B
:10130200040E026EBA0EE82EFED7022EFCD7032E72
:10131200FAD700D084B890EF09F092EF09F09CEF71
:1013220009F0310E066E000E056E010E046E9CEF82
:1013320009F09CEF09F08D8004500510D8A4A4EFA9
:1013420009F0A6EF09F0A8EF09F07A0E066E065032
:10135200ABEF09F012001350800B1C6E13501324D4
:10136200226E12AEB7EF09F0B9EF09F0BCEF09F047
:101372002280BCEF09F02250D8B4C2EF09F0C4EFCA
:1013820009F0D9EF09F02228D8A4CAEF09F0CCEF6E
:1013920009F0D6EF09F0000E106E000E116E000E6D
:1013A200126E000E136ED6EF09F0128EE3EF09F003
:1013B200000E106E000E116E000E126E000E136EF5
:1013C200E3EF09F01750800B1C1A17501724216EF7
:1013D20016AEEEEF09F0F0EF09F0F3EF09F021801D
:1013E200F3EF09F02150D8B4F9EF09F0FBEF09F05F
:1013F20010EF0AF02128D8A401EF0AF003EF0AF057
:101402000DEF0AF0000E146E000E156E000E166E31
:10141200000E176E0DEF0AF0168E18EF0AF0000E8E
:10142200146E000E156E000E166E000E176E215011
:10143200D8B41EEF0AF020EF0AF02AEF0AF0225089
:10144200D8A426EF0AF028EF0AF036EF0AF02AEFC6
:101452000AF0000E106E000E116E000E126E000EDB
:10146200136EE2EF0BF0E2EF0BF016501002F3CF27
:1014720027F0F4CF28F027501D6E1E6A1F6A206ADB
:101482002850236E246A256A266A15501102F3CF6A
:1014920027F0F4CF28F027501D26000E1E221F220F
:1014A200202228502326000E2422252226221450F0
:1014B2001202F3CF27F0F4CF28F027501D26000E9A
:1014C2001E221F22202228502326000E24222522FB
:1014D20026221FC020F01EC01FF01DC01EF01D6A74
:1014E20014501102F3CF27F0F4CF28F027501D2615
:1014F20028501E22000E1F22000E2022155010021C
:10150200F3CF27F0F4CF28F027501D2628501E22B3
:10151200000E1F22000E20221FC020F01EC01FF04E
:101522001DC01EF01D6A14501002F3CF27F0F4CF35
:1015320028F027501D2628501E22000E1F22000EC2
:10154200202216501102F3CF27F0F4CF28F02750B3
:10155200232628502422000E2522000E2622155072
:101562001202F3CF27F0F4CF28F027502326285079
:101572002422000E2522000E262216501202F3CF3C
:1015820027F0F4CF28F02750186E2850196E1A6AE7
:101592001B6A1AC01BF019C01AF018C019F0186A99
:1015A20018502326195024221A5025221B50262275
:1015B2001DC018F01EC019F01FC01AF020C01BF089
:1015C200190EE9EF0AF0D8901B321A32193218328A
:1015D200E82EE4EF0AF018502326195024221A505C
:1015E20025221B5026221FC020F01EC01FF01DC046
:1015F2001EF01D6A215022C018F0196A1826000E2A
:101602001922820E1824276EFF0E1920286E21EF50
:101612000BF0D890233624362536263620AE14EF2A
:101622000BF016EF0BF017EF0BF02380D8901D365E
:101632001E361F3620362706D8A0280621EF0BF0CB
:1016420025AE26EF0BF028EF0BF00AEF0BF02AEF96
:101652000BF0000E216E20AE31EF0BF033EF0BF0EA
:101662005BEF0BF0FF0E1D14186EFF0E1E14196EA9
:10167200FF0E1F141A6E7F0E20141B6E18501910C5
:101682001A101B10D8B448EF0BF04AEF0BF04EEFD4
:101692000BF0010E216E5BEF0BF023A053EF0BF06A
:1016A20055EF0BF05BEF0BF0010E216E5BEF0BF0D1
:1016B2005BEF0BF02150D8B461EF0BF063EF0BF04E
:1016C2008BEF0BF0010E2326000E24222522262268
:1016D20026A06EEF0BF070EF0BF08BEF0BF023C038
:1016E20018F024C019F025C01AF026C01BF01B34D4
:1016F2001B321A321932183218C023F019C024F0E2
:101702001AC025F01BC026F0274A282A8BEF0BF0BF
:101712008BEF0BF028BE96EF0BF0285008E127283C
:10172200D8A096EF0BF098EF0BF0A2EF0BF0000EA3
:10173200236E000E246E800E256E7F0E266ED6EF6F
:101742000BF028BEAFEF0BF0285006E12704D8B00B
:10175200ADEF0BF0AFEF0BF0BBEF0BF0000E236E13
:10176200000E246E000E256E000E266E000E1C6EFC
:10177200D6EF0BF027C022F0FF0E2316FF0E241621
:101782007F0E2516000E261622A0CAEF0BF0CCEF14
:101792000BF0CFEF0BF0258ECFEF0BF0D89022306D
:1017A200266ED6EF0BF0D6EF0BF01C50261223C09C
:1017B20010F024C011F025C012F026C013F0E2EFA1
:1017C2000BF012002C50800B396E2C502C24406EE2
:1017D2002BAEEEEF0BF0F0EF0BF0F3EF0BF04080DF
:1017E200F3EF0BF04050D8B4F9EF0BF0FBEF0BF036
:1017F20012EF0CF04028D8A401EF0CF003EF0CF02C
:101802000DEF0CF0000E296E000E2A6E000E2B6EEC
:10181200000E2C6E0DEF0CF02B8E000E2C6E1CEFBA
:101822000CF0000E296E000E2A6E000E2B6E000EBA
:101832002C6E1CEF0CF03050800B391A30503024D3
:10184200416E2FAE27EF0CF029EF0CF02CEF0CF0CD
:1018520041802CEF0CF04150D8B432EF0CF034EF51
:101862000CF04BEF0CF04128D8A43AEF0CF03CEF0F
:101872000CF046EF0CF0000E2D6E000E2E6E000ED8
:101882002F6E000E306E46EF0CF02F8E000E306E73
:1018920055EF0CF0000E2D6E000E2E6E000E2F6E08
:1018A200000E306E55EF0CF02D502E102F10301010
:1018B200D8A45EEF0CF060EF0CF07AEF0CF0000EA3
:1018C200296E000E2A6E000E2B6E000E2C6E800EFC
:1018D2002B127F0E2C1239502C1229C029F02AC04B
:1018E2002AF02BC02BF02CC02CF0F2EF0DF0F2EF0F
:1018F2000DF04050D8A480EF0CF082EF0CF096EF80
:101902000CF0000E296E000E2A6E000E2B6E000ED9
:101912002C6E29C029F02AC02AF02BC02BF02CC033
:101922002CF0F2EF0DF0F2EF0DF04150316E326A11
:10193200311E321E314A322A4050336E346A3150DF
:101942003326325034227F0E33243A6E000E342076
:101952003B6E29C035F02AC036F02BC037F02CC0C0
:1019620038F0000E296E000E2A6E000E2B6E000E4D
:101972002C6E000E3C6E000E3D6E000E3E6E000E92
:101982003F6E000E416E02EF0DF04150D8B4CCEF25
:101992000CF0CEEF0CF0E7EF0CF0D890353636367F
:1019A20037363836D89029362A362B362C363FAE83
:1019B200DDEF0CF0DFEF0CF0E0EF0CF02980D890B7
:1019C2003C363D363E363F36E7EF0CF02D50355C67
:1019D2002E5036582F50375830503858D8A0F4EF80
:1019E2000CF0F6EF0CF001EF0DF03F8C2D50355E50
:1019F2002E50365A2F50375A3050385A01EF0DF0C8
:101A0200412A190E416408EF0DF00AEF0DF0C6EFFE
:101A12000CF00CEF0DF03550361037103810D8B4EA
:101A220015EF0DF017EF0DF033EF0DF03C8033EFB3
:101A32000DF033EF0DF0D89029362A362B362C369E
:101A42003FAE26EF0DF028EF0DF029EF0DF02980C3
:101A5200D8903C363D363E363F363A06D8A03B0655
:101A620033EF0DF02BAE38EF0DF03AEF0DF01CEF27
:101A72000DF03CEF0DF0000E416E3FAE43EF0DF066
:101A820045EF0DF06DEF0DF0FF0E3C14316EFF0EC1
:101A92003D14326EFF0E3E14336E7F0E3F14346ED1
:101AA2003150321033103410D8B45AEF0DF05CEFCD
:101AB2000DF060EF0DF0010E416E6DEF0DF029A0FB
:101AC20065EF0DF067EF0DF06DEF0DF0010E416E59
:101AD2006DEF0DF06DEF0DF04150D8B473EF0DF0D6
:101AE20075EF0DF09DEF0DF0010E2926000E2A2252
:101AF2002B222C222CA080EF0DF082EF0DF09DEF17
:101B02000DF029C031F02AC032F02BC033F02CC0C6
:101B120034F03434343233323232313231C029F09B
:101B220032C02AF033C02BF034C02CF03A4A3B2AA0
:101B32009DEF0DF09DEF0DF03BBEA8EF0DF03B5079
:101B420008E13A28D8A0A8EF0DF0AAEF0DF0B7EF00
:101B52000DF0000E3B6E3A68000E296E000E2A6EE2
:101B6200000E2B6E000E2C6EB7EF0DF03BBEC4EFD5
:101B72000DF03B5006E13A04D8B0C2EF0DF0C4EFCD
:101B82000DF0D4EF0DF0000E3B6E000E3A6E000E1B
:101B9200296E000E2A6E000E2B6E000E2C6E000EA9
:101BA200396ED4EF0DF03AC040F040A0DBEF0DF0FB
:101BB200DDEF0DF0E0EF0DF02B8EE3EF0DF02B9E3D
:101BC200E3EF0DF0D89040302C6E39502C1229C022
:101BD20029F02AC02AF02BC02BF02CC02CF0F2EFF7
:101BE2000DF01200000ECE6E000ECF6EB3EC14F0AC
:101BF200FBEF0DF081A200EF0EF002EF0EF0FBEF13
:101C02000DF0CD8005EF0EF081B20AEF0EF00CEF71
:101C12000EF005EF0EF0CD90CF504D6E4C6ACE50C7
:101C22004E6E4F6A4C504E10506E4D504F10516ECA
:101C3200000E2D6E000E2E6E000E2F6E400E306EB8
:101C4200890E146ED20E156EDE0E166E3C0E176ED7
:101C520050C002F051C003F0000E03BEFF0E046E2E
:101C6200056E010E4EEC0FF002C010F003C011F031
:101C720004C012F005C013F0ACEC09F010C029F05A
:101C820011C02AF012C02BF013C02CF0E3EC0BF0C1
:101C920029C042F02AC043F02BC044F02CC045F0CA
:101CA2003CEC10F042C054F043C055F0AE0E2D6E25
:101CB200470E2E6EEB0E2F6E420E306E50C002F0AB
:101CC20051C003F0000E03BEFF0E046E056E010E3E
:101CD2004EEC0FF002C029F003C02AF004C02BF032
:101CE20005C02CF0E3EC0BF029C042F02AC043F00F
:101CF2002BC044F02CC045F03CEC10F042C050F038
:101D020043C051F0010E5024506E000E5120516E0E
:101D120051BE95EF0EF0515009E1020E505CD8A071
:101D220095EF0EF097EF0EF02DEF0FF051BEA5EFED
:101D32000EF0910E505C010E5158D8B0A3EF0EF088
:101D4200A5EF0EF02DEF0FF030EC14F0000E066E42
:101D5200000E056E000E086E010E076EECEC12F01E
:101D62007B0E066E0E0E076EA7EC12F0000E066ECC
:101D7200000E056E000E086E0E0E076EECEC12F0F1
:101D820050C002F051C003F0000E056E0A0E046E40
:101D9200F4EC11F00250300FCFEC13F050C002F00F
:101DA20051C003F0000E056E0A0E046E7EEC11F0B7
:101DB20002C050F003C051F0000E066E000E056E18
:101DC200000E086E0D0E076EECEC12F050C002F021
:101DD20051C003F0000E056E0A0E046EF4EC11F011
:101DE2000250300FCFEC13F050C002F051C003F09C
:101DF200000E056E0A0E046E7EEC11F002C050F069
:101E020003C051F0000E066E000E056E000E086E45
:101E12000C0E076EECEC12F050C002F051C003F051
:101E2200000E056E0A0E046EF4EC11F00250300F33
:101E3200CFEC13F0000E066E000E056E000E086E5B
:101E42000F0E076EECEC12F0860E066E0E0E076E8B
:101E5200A7EC12F041EF0FF030EC14F0000E066E1A
:101E6200010E056E000E086E010E076EECEC12F00C
:101E72006F0E066E0E0E076EA7EC12F041EF0FF01A
:101E8200020E4D6E040E4C6EBA0EE82EFED74C2E8C
:101E9200FCD74D2EFAD700D012000A6E0A50D8B4E1
:101EA20055EF0FF057EF0FF079EF0FF005BE5EEF31
:101EB2000FF05CEF0FF079EF0FF002C006F003C0F5
:101EC20007F004C008F005C009F0061E071E081E30
:101ED200091E062A000E07220822092206C00CF05B
:101EE20007C00DF008C00EF009C00FF083EF0FF02D
:101EF20002C00CF003C00DF004C00EF005C00FF0DC
:101F020083EF0FF00250031004100510D8A48CEFD9
:101F12000FF08EEF0FF09AEF0FF0000E026E000E30
:101F2200036E000E046E000E056E3BEF10F03BEFE9
:101F320010F0960E0B6EA6EF0FF00B2AD8900F3210
:101F42000E320D320C32A6EF0FF0000E0C14066E9C
:101F5200000E0D14076E000E0E14086EFE0E0F1406
:101F6200096E0650071008100910D8A4BBEF0FF035
:101F7200BDEF0FF09EEF0FF0CDEF0FF0CDEF0FF0B2
:101F82000B2A010E0C26000E0D220E220F22D890D3
:101F92000F320E320D320C32000E0C14066E000E91
:101FA2000D14076E000E0E14086EFF0E0F14096E4C
:101FB2000650071008100910D8A4E2EF0FF0E4EF62
:101FC2000FF0C1EF0FF0F0EF0FF0F0EF0FF00B0694
:101FD200D8900C360D360E360F36F0EF0FF00EBEDF
:101FE200F5EF0FF0F7EF0FF001EF10F0020E0B60BC
:101FF200FDEF0FF0FFEF0FF0E8EF0FF001EF10F041
:102002000BB006EF10F008EF10F00BEF10F00E9E81
:102012000BEF10F0D8900B320BC006F0076A086A7B
:10202200096A06C009F0086A076A066A06500C12B5
:1020320007500D1208500E1209500F120A50D8B450
:1020420025EF10F027EF10F031EF10F005BE2EEF64
:1020520010F02CEF10F031EF10F00F8E31EF10F086
:102062000CC002F00DC003F00EC004F00FC005F06A
:102072003BEF10F01200443445344B6E4B50D8A461
:1020820045EF10F047EF10F053EF10F0000E426EE4
:10209200000E436E000E446E000E456EE4EF10F02B
:1020A200E4EF10F042C046F043C047F044C048F0AD
:1020B20045C049F0200E63EF10F0D8904932483203
:1020C20047324632E82E5EEF10F046504A6E448E9A
:1020D200FF0E4216FF0E4316FF0E4416000E451663
:1020E200960E4B5E4BBE7AEF10F078EF10F09EEF3B
:1020F20010F04B50800A970FD8B082EF10F084EFA7
:1021020010F092EF10F0000E426E000E436E000EC1
:10211200446E000E456EE4EF10F0E4EF10F092EF23
:1021220010F0D89045324432433242324B3E92EF65
:1021320010F0C8EF10F0C8EF10F01F0E4B64A4EFC0
:1021420010F0A6EF10F0BCEF10F0000E426E000E81
:10215200436E000E446E000E456EE4EF10F0E4EFA5
:1021620010F0BCEF10F0D890423643364436453674
:102172004B06BCEF10F04B50D8A4C2EF10F0C4EFE6
:1021820010F0B4EF10F0C8EF10F0C8EF10F04A50A2
:10219200D8B4CEEF10F0D0EF10F0DAEF10F0451E09
:1021A200441E431E426C000E432244224522DAEFB3
:1021B20010F042C042F043C043F044C044F045C076
:1021C20045F0E4EF10F012009BEC14F051EC07F034
:1021D200586E59045A10D8A4F1EF10F0F3EF10F032
:1021E200FBEF10F023EC13F0000E5A6E000E596E46
:1021F200FBEF10F0420E5818D8A402EF11F004EFD2
:1022020011F02FEF11F030EC14F05B0E066E0E0E93
:10221200076EA7EC12F022EF11F051EC07F0586EA6
:10222200310E5818D8A418EF11F01AEF11F022EF5E
:1022320011F0F3EC0DF07A0E586E22EF11F022EF4E
:1022420011F0430E5818D8A429EF11F02BEF11F01A
:102252000EEF11F02FEF11F02FEF11F0410E581881
:10226200D8A436EF11F038EF11F069EF11F030EC2D
:1022720014F05CEF11F051EC07F0586E7A0E58181A
:10228200D8B446EF11F048EF11F05CEF11F058505E
:10229200CFEC13F0020E00018F6F040E8E6FBA0E98
:1022A200E82EFED78E2FFCD78F2FFAD700F05CEFE7
:1022B20011F05CEF11F0430E5818D8A463EF11F03F
:1022C20065EF11F03CEF11F069EF11F069EF11F0D9
:1022D200430E5818D8A470EF11F072EF11F076EF98
:1022E20011F0000E5A6E010E596E7A0E586EE7EF1B
:1022F20010F0E7EF10F016EF00F0000E076E05BECB
:1023020087EF11F085EF11F08FEF11F0046C051ECD
:10231200D8B0052A010E076E8FEF11F003BE96EFBB
:1023220011F094EF11F09EEF11F0026C031ED8B081
:10233200032A010E071A9EEF11F0000E096E000E1D
:10234200086E04500510D8B4A9EF11F0ABEF11F0EC
:10235200DFEF11F0010E066EB5EF11F0D8900436E2
:102362000536062AB5EF11F005AEBAEF11F0BCEF53
:1023720011F0AFEF11F0C0EF11F0C0EF11F0D890F3
:10238200083609360450025C05500358D8A0CCEF39
:1023920011F0CEEF11F0D5EF11F00450025E0550AE
:1023A200035A0880D5EF11F0D89005320432062E78
:1023B200C0EF11F0DFEF11F0DFEF11F00750D8B4EA
:1023C200E5EF11F0E7EF11F0EDEF11F0086C091EE7
:1023D200D8B0092AEDEF11F008C002F009C003F0ED
:1023E200F3EF11F01200000E076E03BEFDEF11F0C5
:1023F200FBEF11F005EF12F0026C031ED8B0032AB6
:10240200010E076E05EF12F005BE0CEF12F00AEF97
:1024120012F012EF12F0046C051ED8B0052A12EF6A
:1024220012F004500510D8B419EF12F01BEF12F09D
:102432004BEF12F0010E066E25EF12F0D890043623
:102442000536062A25EF12F005AE2AEF12F02CEF20
:1024520012F01FEF12F030EF12F030EF12F00450D2
:10246200025C05500358D8A039EF12F03BEF12F08E
:1024720041EF12F00450025E0550035A41EF12F090
:10248200D89005320432062E30EF12F04BEF12F0E4
:102492004BEF12F00750D8B451EF12F053EF12F095
:1024A20059EF12F0026C031ED8B0032A59EF12F052
:1024B20002C002F003C003F05FEF12F01200016EDF
:1024C200ABB466EF12F068EF12F06FEF12F0ABA24E
:1024D2006DEF12F06FEF12F075EF12F0AB98650E20
:1024E200A6EF12F0A6EF12F0640E0118D8A47CEF4A
:1024F20012F07EEF12F083EF12F0640EA6EF12F0EC
:10250200A6EF12F0630E0118D8A48AEF12F08CEF36
:1025120012F091EF12F0630EA6EF12F0A6EF12F096
:10252200660E0118D8A498EF12F09AEF12F0A1EFFC
:1025320012F0660EA6EF12F0A6EF12F0A6EF12F05E
:102542000150A6EF12F0A6EF12F01200000E0B6E71
:10255200000E0A6ECAEF12F00A500624086E0B50E3
:102562000720096E08C0F6FF09C0F7FF000EF86EDB
:102572000D0EF76403D00800F55005D0F6CFE9FF41
:10258200F7CFEAFFEF50CFEC13F00A4A0B2ACAEF5B
:1025920012F00A500624086E0B500720096E08C07C
:1025A200F6FF09C0F7FF000EF86E0D0EF76403D0B8
:1025B2000800F55005D0F6CFE9FFF7CFEAFFEF505C
:1025C2000009D8A4E7EF12F0E9EF12F0ADEF12F034
:1025D200EBEF12F012000550140DF3500724096EB0
:1025E20006BEFDEF12F0065009E1020E055CD8A00E
:1025F200FDEF12F0FFEF12F003EF13F0180E0926B1
:1026020003EF13F0095081EC13F0096E0BEF13F096
:102612000BEF13F06FEC14F00009D8A413EF13F0D2
:1026220015EF13F00BEF13F08C96F80E7EEC14F00E
:102632000950F00B7EEC14F00938F00B10097EEC17
:1026420014F0120030EC14F0000E066E000E056E4F
:10265200000E086E000E076EECEC12F0470E066ECE
:102662000E0E076EA7EC12F0000E066E010E056E3E
:10267200000E086E000E076EECEC12F01C0E066ED9
:102682000E0E076EA7EC12F0000E066E020E056E1D
:10269200000E086E000E076EECEC12F0320E066EA3
:1026A2000E0E076EA7EC12F01200066E05C007F0C0
:1026B200D890073604500726D890073606500726CA
:1026C200D8900736072A073AF00E07166BEF13F079
:1026D2006BEF13F06FEC14F00009D8A473EF13F052
:1026E20075EF13F06BEF13F08C96F80E7EEC14F08E
:1026F20007507EEC14F0000E7EEC14F08C86120073
:10270200046E04C002F00F0E0216023AF00E021618
:1027120004380F0B0F0B0210046E04C002F0330ECC
:102722000216D8900236D89002360440E8423F0B97
:10273200330B0210046E04C002F0550E0216D8903C
:102742000234036ED8900430550B0310046E04500B
:10275200ABEF13F012007C0EF66E290EF76E000E30
:10276200F86E00EE59F010EE04F00900F5CFEEFF1E
:10277200E550E150FAE100EE60F02E0EEE6AE80656
:10278200FDE100EE52F0070EEE6AE806FDE15D9013
:102792005D92000EF86E0001E5EF10F0056E055037
:1027A20081EC13F0056ED8EF13F0D8EF13F06FEC55
:1027B20014F00009D8A4E0EF13F0E2EF13F0D8EF21
:1027C20013F08C96FA0E7EEC14F00550F00B7EECB2
:1027D20014F00538F00B7EEC14F08C861200D35006
:1027E2007009D36E959895949596958294908C865F
:1027F20000F0560E026EB60EE82EFED7022EFCD761
:10280200560E026EB60EE82EFED7022EFCD7560EDC
:10281200026EB60EE82EFED7022EFCD71200BAECDC
:1028220014F00C0E0F01306F669C0E012A51F00B52
:1028320006092A6F1F51F00B01091F6F6788678A0B
:10284200AC9CAC8AAC98AC96AC84AC90AB8EAB9C96
:10285200AB88D08EF28EF28C9D8A9D98120034EF56
:1028620014F034EF14F06FEC14F00009D8A43CEF2C
:1028720014F03EEF14F034EF14F08C96F80E7EEC68
:1028820014F0800E7EEC14F0000E7EEC14F08C86B8
:1028920012000E011E85F40E1E17050E1D13F50EF5
:1028A2001D17500E30135F0E3017F10E0F0119175E
:1028B200310E19131A8F1A9D8F0E39171200070E37
:1028C200D36E000ECF6E000ECE6E3F0ECD16CD989B
:1028D200CD9A000ECE6E000ECF6E12008C96FC0EBC
:1028E2007EEC14F0000E7EEC14F0036E8C8600D0A9
:1028F2000350010B7DEF14F01200026E02C003FFC1
:1029020083EF14F00F011AA189EF14F08BEF14F08A
:1029120083EF14F003511200F0EC13F04AEC14F0C0
:1029220030EC14F0010E046E000E056E010E56EC32
:1029320013F0120010EC14F08DEC14F0ACEC14F067
:10294200A4EC14F012009590F19E628293828C9016
:1029520060EC14F01200F00E966E848084828484FF
:10296200848612008380060EE82EFED700D0839064
:0E2972001200D380D382D38412000100030030
:020000040001F9
:10FFF000A0F728F033F0FFF703FFFFFF1DF0F8F341
:00000001FF
